:100000000C9462000C947F000C947F000C947F0091
:100010000C947F000C947F000C947F000C947F0064
:100020000C94EB030C947F000C947F000C947F00E5
:100030000C947F000C947F000C947F000C947F0044
:100040000C94A1030C947F000C947F000C947F000F
:100050000C947F000C947F000C947F000C947F0024
:100060000C947F000C947F00000000002300260009
:10007000290000000000240027002A0000000000E2
:10008000250028002B0004040404040404040202D4
:100090000202020203030303030301020408102007
:1000A0004080010204081020010204081020000012
:1000B0000008000201000003040700000000000027
:1000C0000000CE0C11241FBECFEFD8E0DEBFCDBFA5
:1000D00022E0A0E0B1E001C01D92AF31B207E1F72C
:1000E00010E0C2E6D0E004C02197FE010E942B0D73
:1000F000C136D107C9F70E94D0040C94310D0C947D
:100100000000AF92BF92CF92DF92EF92FF920F93D7
:100110001F93CF93DF937C016B015A01FC01808117
:1001200091812091090230910A02C1E0D0E082174A
:10013000930708F05DC09C01220F331FE091070276
:10014000F0910802E20FF31F00811181EC01C095CC
:10015000D095C170DD272CEE3FEF80FF02C024E177
:1001600030E02A0D3B1DC90163E470E00E94FE0CE3
:100170000617170750F0C90168E270E00E94FE0CF4
:100180006F5F7F4F6017710760F52A0D3B1DC90136
:1001900063E470E00E94FE0C0617170750F0C901D7
:1001A00068E270E00E94FE0C6F5F7F4F601771077E
:1001B00058F52A0D3B1DC90163E470E00E94FE0C56
:1001C0000617170758F0C90168E270E00E94FE0C9C
:1001D0006F5F7F4F93E06017710720F4CFEFDFEF81
:1001E00007C091E0F60180818F5F891778F48083E2
:1001F000CE01DF91CF911F910F91FF90EF90DF9093
:10020000CF90BF90AF90089592E0ECCF1082F701AD
:1002100080819181019691838083EACFFC019B01CB
:1002200024513109C90163E470E00E94FE0CE61715
:10023000F70758F0C90168E270E00E94FE0C6F5F9A
:100240007F4F81E06E177F0708F480E008952F92BA
:100250003F924F925F926F927F928F929F92AF9256
:10026000BF92CF92DF92EF92FF920F931F93CF93A3
:10027000DF9300D000D000D0CDB7DEB7382E3C835E
:100280002B8338012E2C70E0660F771F2091070218
:1002900030910802260F371F3E832D839A012C5E72
:1002A0003F4FC90163E470E00E94FE0C8B01C9015D
:1002B00068E270E00E94FE0CCB0101969A8389836C
:1002C000EE2009F459C0C12CD12C7601912CED817E
:1002D000FE81808191818017910708F480C0298177
:1002E0003A812817390708F47AC0A280B3806B815D
:1002F0007C81C5010E940E01882391F1CC0CDD1C8C
:10030000EE1CFF1C6894C0F88D819E8104969E832C
:100310008D8393943910DBCFC092FF01D0920002FD
:10032000E0920102F092020222242394822D26966A
:100330000FB6F894DEBF0FBECDBFDF91CF911F91F6
:100340000F91FF90EF90DF90CF90BF90AF909F9074
:100350008F907F906F905F904F903F902F90089577
:10036000B301C5010E940E01282E8823F9F2CC0C9E
:10037000DD1CEE1CFF1CC8CF812C912C54018394F2
:10038000C12CD12C7601ED81FE8180819181801775
:10039000910760F229813A812817390738F24280A3
:1003A00053806B817C81C2010E940E01882389F0F9
:1003B000C828D928EA28FB288D819E8104969E832F
:1003C0008D83880C991CAA1CBB1C3A943110DBCF7E
:1003D000A3CFB301C2010E940E018111EDCF212CE8
:1003E000A5CF8F929F92AF92BF92EF920F931F93E0
:1003F000CF93DF938091090290910A028436910590
:1004000059F080E0DF91CF911F910F91EF90BF9055
:10041000AF909F908F900895E0910702F0910802AD
:1004200082819381C397859760F7848195814A97EC
:10043000439738F7E12C00EB11E020E135E040EB89
:1004400051E063E080E10E9427018823D1F280908F
:10045000FF0190900002A0900102B0900202C9E05A
:10046000D0E082E0881680E29806A104B10431F160
:10047000CDE0D0E09AEA89169AE59906A104B10484
:10048000E9F0CCE0D0E084E5881682E39806A10488
:10049000B104A1F0CBE0D0E093E0891691E0990699
:1004A000A104B10459F0CAE0D0E083E288168BECD5
:1004B0009806A104B10411F4CEE0D0E0E12C00EBE9
:1004C00011E020E135E040EB51E063E280E20E9480
:1004D0002701882309F495CF4091FF015091000234
:1004E00060910102709102029A0194E0369527957D
:1004F0009A95E1F730930F0220930E02262F30E0F9
:100500003093110220931002342F36273527292DDE
:100510002825922F92959F7092279F70242F2F70DD
:10052000921719F094E090931502CA30D10579F42E
:1005300090911502906190931502E0911202F09152
:1005400013028E2A9F2A909213028092120237176A
:1005500019F094E090931502E0910702F0910802DF
:100560002081318128323A4028F49091150291601F
:1005700090931502D0930D02C0930C0290E39093D8
:10058000140240CF833081F028F4813099F082301A
:10059000A9F008958730A9F08830C9F08430B1F40B
:1005A000809180008F7D03C0809180008F77809341
:1005B0008000089584B58F7784BD089584B58F7DBC
:1005C000FBCF8091B0008F778093B0000895809129
:1005D000B0008F7DF9CF1F93CF93DF93282F30E0AA
:1005E000F901E255FF4F8491F901E656FF4FD4918E
:1005F000F901EA57FF4FC491CC23A9F0162F8111BE
:100600000E94C202EC2FF0E0EE0FFF1FE458FF4FF4
:10061000A591B4918FB7F894EC91111108C0D095C1
:10062000DE23DC938FBFDF91CF911F910895DE2BE6
:10063000F8CFCF93DF9390E0FC01E656FF4F249173
:100640008A579F4FFC0184918823D1F090E0880F56
:10065000991FFC01EE58FF4FA591B491FC01E4589D
:10066000FF4FC591D49161110EC09FB7F8948C9142
:10067000E22FE0958E238C932881E223E8839FBFAD
:10068000DF91CF9108958FB7F894EC91E22BEC9322
:100690008FBFF6CF3FB7F894809105019091060186
:1006A000A0910701B091080126B5A89B05C02F3F76
:1006B00019F00196A11DB11D3FBFBA2FA92F982F88
:1006C0008827BC01CD01620F711D811D911D42E083
:1006D000660F771F881F991F4A95D1F708958F924B
:1006E0009F92AF92BF92CF92DF92EF92FF924B0117
:1006F0005C010E944A036B017C010E944A036C1951
:100700007D098E099F09683E734081059105A8F314
:1007100021E0821A9108A108B10888EEC80E83E092
:10072000D81EE11CF11C81149104A104B10429F725
:10073000FF90EF90DF90CF90BF90AF909F908F9001
:1007400008951F920F920FB60F9211242F933F938B
:100750008F939F93AF93BF9380910101909102017A
:10076000A0910301B09104013091000123E0230F17
:100770002D3758F50196A11DB11D209300018093DE
:10078000010190930201A0930301B09304018091B1
:10079000050190910601A0910701B0910801019611
:1007A000A11DB11D8093050190930601A09307013F
:1007B000B0930801BF91AF919F918F913F912F917D
:1007C0000F900FBE0F901F90189526E8230F0296EA
:1007D000A11DB11DD2CF1F920F920FB60F921124FF
:1007E0002F933F934F935F936F937F938F939F9339
:1007F000AF93BF93CF93DF93EF93FF9320910A01C1
:1008000030E0F901E255FF4F8491F901E656FF4FC0
:10081000D491F901EA57FF4FC491CC2379F08111AB
:100820000E94C202EC2FF0E0EE0FFF1FE859FF4FCD
:10083000A591B491EC91ED2321E009F420E08091A1
:100840000F0190911001019609F46FC0909310016F
:1008500080930F018091090181111BC0211119C0E2
:1008600080910F01909110018536910570F01092E2
:10087000DB01909312018093110181E090E090934D
:100880000E0180930D0180930901109210011092C6
:100890000F0180910D0190910E018536910530F088
:1008A00031E03093DB0133E03093090130910901ED
:1008B000313009F03DC02130C9F4AC014F5F5F4FCA
:1008C00050930E0140930D01880F991FFC01EF5EBC
:1008D000FE4F80910F0190911001918380831092BF
:1008E000100110920F0182E08093090180910C01A8
:1008F000882341F080910B0121114AC061E08111F0
:100900004AC02D9AFF91EF91DF91CF91BF91AF91A6
:100910009F918F917F916F915F914F913F912F9117
:100920000F900FBE0F901F9018958FEF9FEF8ECFF7
:1009300030910901323001F540910F0150911001C1
:10094000211114C0BC016F5F7F4F70930E01609343
:100950000D01880F991FFC01EF5EFE4F518340830C
:100960001092100110920F0181E0BECF83E0453656
:10097000510508F0B9CFBACF80910901833009F051
:10098000B5CF2111B3CF1092100110920F01AECF4D
:10099000882321F060E00E94EB02B4CF2D98B2CF03
:1009A000CF93DF9300D000D000D0CDB7DEB77894DE
:1009B00084B5826084BD84B5816084BD85B5826064
:1009C00085BD85B5816085BD80916E008160809315
:1009D0006E0010928100809181008260809381007E
:1009E000809181008160809381008091800081608E
:1009F000809380008091B10084608093B1008091E9
:100A0000B00081608093B00080917A008460809310
:100A10007A0080917A00826080937A0080917A00D7
:100A2000816080937A0080917A00806880937A0058
:100A30001092C100F89482E08093B0008093B100DE
:100A400084E68093B3008093B4001092B20084E0F7
:100A50008093700078941092090160E080910A01FF
:100A60000E94190361E085E00E94190360E085E0BF
:100A70000E94EB0261E086E00E94190360E086E0DC
:100A80000E94EB0261E087E00E94190360E087E0CA
:100A90000E94EB0261E088E00E94190360E088E0B8
:100AA0000E94EB0261E089E00E94190360E089E0A6
:100AB0000E94EB0261E08AE00E94190360E08AE094
:100AC0000E94EB0261E08BE00E94190360E08BE082
:100AD0000E94EB0261E08CE00E94190360E08CE070
:100AE0000E94EB0261E08DE00E94190360E08DE05E
:100AF0000E94EB0222242394312C44244A94542C47
:100B0000320180910901833079F48091DB018823DF
:100B100091F081E080930B021092DB0110920E01A4
:100B200010920D011092090180E090E0892B49F3A9
:100B30000E940000E6CF21E131E0309308022093CB
:100B4000070280910D0190910E0190930A0280930B
:100B5000090210920B02409110025091110270E0B4
:100B600060E040931A0250931B0260931C02709342
:100B70001D0240910E0250910F0270E060E0409320
:100B80001602509317026093180270931902109284
:100B900011021092100210920F0210920E02109287
:100BA0001402109215021092FF011092000210928E
:100BB0000102109202022091130130911401265873
:100BC00031092C35310508F08AC08430910521F5B2
:100BD00080911501909116018197489708F07FC088
:100BE00080911701909118010897089708F077C035
:100BF000109203024092FF015092000260920102A3
:100C00007092020281E88093150288E090E0909350
:100C10000D0280930C0233C08434910509F05FC04B
:100C20008091150190911601825491098F9708F0D7
:100C300056C0EE24E39400E312E020E936E040E3FE
:100C400052E063E080E20E942701882309F447C054
:100C5000E0910702F0910802EA57FF4F80819181ED
:100C600008970897E0F580E28093030288E090E01F
:100C700090930D0280930C0280E88093150280917E
:100C8000F0019091F1018334BCEB9B0709F4D4C5CA
:100C900008F0F3C4833F3CE0930709F436C508F03D
:100CA000C9C48B3F944009F03DCF8091E8019091F9
:100CB000E90160E0019709F0EAC589E00E94EB02D2
:100CC0006BE470E080E090E00E946F0361E08AE0F6
:100CD0000E94EB021092E9011092E8012EC50E94D9
:100CE000F1018111CCCF0E94F1018111C8CF809117
:100CF0000D0190910E01829711F5E0910702F0919C
:100D000008028281938104970597C8F484819581B4
:100D10000B970A97A0F4EE24E3940CE013E02CE187
:100D200037E044E051E063E08FE00E942701882330
:100D300031F08FE08093030282E090E099CF209120
:100D4000090230910A022A31310508F453C0E091BA
:100D50000702F0910802808191810A9780F4109235
:100D600003024092FF0150920002609201027092D1
:100D7000020281E8809315028FEF9FEF48CF8281B6
:100D8000938184974A97B0F560E043E050E0C12C2E
:100D9000D12C7601848195810897089758F5868132
:100DA000978182319105E0F0809720F5CC0CDD1C15
:100DB000EE1CFF1C6894C0F86F5F4E5F5F4F349667
:100DC0004217530738F360930302C092FF01D09299
:100DD0000002E0920102F092020284E190E048CF2A
:100DE0008930910538F0419728F4CC0CDD1CEE1CBD
:100DF000FF1CE2CF1B823A8229822930310508F498
:100E000067C049E753E0BE016D5F7F4FCE01019699
:100E10000E948100892B09F05BC049E753E0BE01C5
:100E20006D5F7F4FCE0101960E948100019709F00E
:100E30004FC049E753E0BE016D5F7F4FCE01019681
:100E40000E948100892B09F043C0B12CC12CD12C08
:100E500076012091090230910A0289819A818217D4
:100E6000930748F549E753E0BE016D5F7F4FCE0120
:100E700001960E9481008C0149E753E0BE016D5F3D
:100E80007F4FCE0101960E9481000130110551F47F
:100E9000892BF1F4CC0CDD1CEE1CFF1C6894C0F80F
:100EA000B394D7CF012BA1F4019791F4CC0CDD1CA6
:100EB000EE1CFF1CF5CFB0920302C092FF01D0924E
:100EC0000002E0920102F09202028FE090E0D0CEA8
:100ED0001B823A8229828091090290910A02892B11
:100EE00009F47FC0E0910702F091080282819381AA
:100EF00088974D9708F075C082E090E09A838983C7
:100F0000848195810C970B9708F06BC083E090E08B
:100F10009A8389834CEB51E0BE016D5F7F4FCE0118
:100F200001960E948100892B09F05BC04CEB51E0D7
:100F3000BE016D5F7F4FCE0101960E948100019737
:100F400009F04FC0812C912C540110E000E0209159
:100F5000090230910A0289819A818217930708F069
:100F6000A0C04CEB51E0BE016D5F7F4FCE010196FA
:100F70000E9481007C010330110539F14CEB51E0F6
:100F8000BE016D5F7F4FCE0101960E9481006C0112
:100F90000330110561F44CEB51E0BE016D5F7F4FF2
:100FA000CE0101960E948100C816D906D1F4E11441
:100FB000F10409F469C0EA94EF2899F4CD2889F482
:100FC000880C991CAA1CBB1C69C04CEB51E0BE01EB
:100FD0006D5F7F4FCE0101960E948100E816F906F1
:100FE00069F28091090290910A02CC9709F066C0DB
:100FF000E0910702F091080282819381865891095D
:101000008C35910508F05AC08481958182549109EC
:101010008F9708F053C0EE24E39400E312E020E938
:1010200036E040E352E063E08CE10E942701882330
:1010300009F444C0E0910702F0910802EA58FF4F1A
:101040008081918108970897C8F58091FF01909160
:101050000002A0910102B0910202AC01BD0184E145
:1010600076956795579547958A95D1F750930F02D6
:1010700040930E02B0931102A09310028CE1809372
:10108000140286E090E0C3CDCA94CD2809F0A9CF20
:10109000880C991CAA1CBB1C689480F80F5F1F4F1A
:1010A00056CF009303028092FF0190920002A0921B
:1010B0000102B092020280E190E0DACD4091090293
:1010C00050910A02E0910702F09108028281938117
:1010D0004232510501F59C01285031092730310574
:1010E000D0F4DF01AE5BBF4F2D913C912850310908
:1010F0002730310580F4109203024092FF01509294
:101100000002609201027092020281E8809315024F
:1011100084E090E07CCD8D5791098735910538F5B5
:101120004432510520F184819581CE978C97F8F453
:10113000EE24E3940EE012E02AE236E04EE052E0C4
:1011400063E080E10E942701882389F0E091070293
:10115000F0910802EA5BFF4F808191810897079721
:1011600030F480E18093030284E090E081CDE0914F
:101170000702F09108022091090230910A0282814F
:101180009381815491098F97D0F524303105D1F4A2
:10119000848195818197489790F5868197810897FA
:1011A000089768F5109203024092FF0150920002E6
:1011B000609201027092020281E88093150281E13F
:1011C00090E025CD24343105D0F08481958181547F
:1011D00091098E97A0F4EE24E39406E212E022E750
:1011E00036E046E252E063E080E20E942701882375
:1011F00031F080E28093030281E190E039CD4091AB
:10120000090250910A02E0910702F09108024A3166
:10121000510508F49FC0808191814097A0F41092FD
:1012200003024092FF01509200026092010270920C
:10123000020281E88093150222E130E030930D0232
:1012400020930C021CCD82819381C497869790F5E0
:1012500084819581C497869768F5DF0183E090E0EB
:10126000C12CD12C76019C012F5F3F4F24173507ED
:1012700008F05BC016962D913C9117972D503109BF
:101280002C30310508F051C018962D913C911997DA
:101290002432310560F02E33310560F4CC0CDD1CB6
:1012A000EE1CFF1C6894C0F802961496DCCF2A301E
:1012B000310598F5828193814434510509F04AC083
:1012C0000B970A9708F046C0848195818A974E97BC
:1012D00008F040C0EE24E3940EEE12E026E638E07B
:1012E0004EEE52E063E080E20E942701882391F1F4
:1012F000E0910702F0910802EA57FF4F8081918147
:101300000B970A9738F580E280931402A5E1B0E0CC
:10131000B0930D02A0930C02AFCC2431310550F6EE
:10132000CC0CDD1CEE1CFF1CBFCF0197969587955A
:10133000809303028C3018F410920302BBCFC0924A
:10134000FF01D0920002E0920102F092020282E1DB
:1013500090E08ECCE0910702F09108022091090202
:1013600030910A02828193810297049708F060C04D
:101370002432310509F05CC0848195810F970C9768
:1013800008F056C0EE24E39407E011E029E232E0D1
:101390004EE950E063E080E10E942701882309F4D0
:1013A00047C0E0910702F0910802DF01AA5BBF4F3E
:1013B0008D919C9102970497D8F54091FF019091EF
:1013C0000002242F392F592F52955F709F7064E0CF
:1013D000369527956A95E1F72F704F708FE0852736
:1013E00089278227481719F084E0809315026081CD
:1013F0007181683F714128F4809115028260809369
:10140000150250930E0210920F0230E1939FC0011B
:101410001124822B909311028093100285E090E0BA
:1014200090930D0280930C0280E18093140227CCEC
:10143000E0910702F09108022091090230910A021E
:101440008281938140970D97D0F524323105B9F50B
:10145000848195814597409790F5E12C07EA15E046
:1014600024ED31E046E152E063E080E10E94270193
:10147000882329F1E0910702F0910802DF01AA5BBD
:10148000BF4F8D919C9108970797C8F48091FF01F9
:101490009091000298279F3F91F42081318124315F
:1014A000354018F491E09093150290E0909311026A
:1014B0008093100230920D0220920C02B5CF8090E2
:1014C000090290900A02A6E68A16910409F05AC011
:1014D000E0900702F0900802CC24C394D12C20E0C5
:1014E00030E040E010E000E01C821D821E82D70147
:1014F0001296ED91FC91B2E0CB0ED11CD70114965F
:10150000AD90BC90C501BF010E94FE0CDB01EA0D4D
:10151000FB1D71973E97D8F5512F602F7C818D81EF
:101520009E8101E00E94120DE32FF42F152F062F4C
:101530007C838D839E83129708F42160B4E0EB0EC8
:10154000F11C85E6C816D10491F687E090E09093EF
:101550000D0280930C0282E38093140280E1809359
:10156000150220931202E093130220930402E093E9
:101570000502F093FF015093000260930102709303
:1015800002027DCB96E08916910408F4CBCAE09163
:101590000702F0910802329603E010E025EC3DE9E5
:1015A0004CE151E88AE0F82E0815190588F5848188
:1015B000958161917191F89E6001F99ED00C112482
:1015C000DB01AA0FBB1FAA0FBB1FAA0FBB1FE12C79
:1015D000CA16DB0688F0F69ED001F79EB00D1124E6
:1015E00063E0880F991F6A95E1F7EE24E394A8174A
:1015F000B90710F482E0E82E63E971E080E091E041
:101600000E94D40C9B01AC012E250F5F1F4FCCCF45
:101610002093FF0130930002409301025093020295
:1016200080E280930302AFEFBFEFB0930D02A0936F
:101630000C0225CB83392CE6920709F4C0C083370E
:101640009C4809F06FCA8091E4019091E50161E046
:10165000019709F0DFC088E00E94EB026BE470E0C4
:1016600080E090E00E946F0360E088E00E94EB025F
:101670001092E5011092E40160C08331ACEE9A074C
:1016800009F472C0F8F4873228ED920709F41AC100
:101690008731984E09F046CA8091EA019091EB019A
:1016A000019709F006C160E08BE00E94EB02109206
:1016B000EB011092EA016BE470E080E090E00E94A0
:1016C0006F0330CA8F30A0EF9A0709F43AC1873010
:1016D000984F09F027CA8091EE019091EF0161E0E7
:1016E000019709F01AC18DE00E94EB0261EE70E0F3
:1016F00080E090E00E946F0360E08DE00E94EB02CA
:101700001092EF011092EE0118C08091DE019091CD
:10171000DF0161E00197B1F485E00E94EB026BE428
:1017200070E080E090E00E946F0360E085E00E943E
:10173000EB021092DF011092DE0169E170E080E0BF
:1017400090E0BDCF85E00E94EB0264E670E080E0AF
:1017500090E00E946F0360E085E00E94EB0230920F
:10176000DF012092DE01E9CF8091E0019091E1015B
:1017700061E0019791F486E00E94EB026BE470E077
:1017800080E090E00E946F0360E086E00E94EB0240
:101790001092E1011092E001D0CF86E00E94EB02AE
:1017A0006BE470E080E090E00E946F0360E086E010
:1017B0000E94EB023092E1012092E001BECF8091C5
:1017C000E2019091E30161E0019791F487E00E94CA
:1017D000EB026BE470E080E090E00E946F0360E059
:1017E00087E00E94EB021092E3011092E201A5CF84
:1017F00087E00E94EB026BE470E080E090E00E94E2
:101800006F0360E087E00E94EB023092E3012092D8
:10181000E20193CF88E00E94EB026BE470E080E08D
:1018200090E00E946F0360E088E00E94EB0230923B
:10183000E5012092E40181CF8091E6019091E701DA
:1018400061E0019791F489E00E94EB026BE470E0A3
:1018500080E090E00E946F0360E08AE00E94EB026B
:101860001092E7011092E60168CF89E00E94EB0236
:101870006BE470E080E090E00E946F0360E08AE03B
:101880000E94EB023092E7012092E60156CF89E0F8
:101890000E94EB0264E670E080E090E00E946F033B
:1018A00061E08AE00E94EB023092E9012092E801B7
:1018B00044CF61E08BE00E94EB023092EB0120927A
:1018C000EA01F9CE8091EC019091ED0161E0019780
:1018D00091F48CE00E94EB0261EE70E080E090E019
:1018E0000E946F0360E08CE00E94EB021092ED0119
:1018F0001092EC0122CF8CE00E94EB0261EE70E0CE
:1019000080E090E00E946F0360E08CE00E94EB02B8
:101910003092ED012092EC0110CF8DE00E94EB029D
:1019200061EE70E080E090E00E946F0360E08DE087
:101930000E94EB0221E030E03093EF012093EE01B2
:10194000FCCE8091F0019091F10160E0019791F45B
:101950008AE00E94EB0264E670E080E090E00E9482
:101960006F0360E089E00E94EB021092F101109297
:10197000F001E3CE8AE00E94EB0264E670E080E0D2
:1019800090E00E946F0360E089E00E94EB0281E03A
:1019900090E09093F1018093F001CFCEE9E0F1E087
:1019A00082E0818313820895DB018F939F930E94CD
:1019B000E40CBF91AF91A29F800D911DA39F900D4C
:1019C000B29F900D112408950E94EF0CA59F900DD9
:1019D000B49F900DA49F800D911D11240895A29F86
:1019E000B001B39FC001A39F700D811D1124911DF3
:1019F000B29F700D811D1124911D0895AA1BBB1B60
:101A000051E107C0AA1FBB1FA617B70710F0A61BFE
:101A1000B70B881F991F5A95A9F780959095BC011F
:101A2000CD010895002E083090F0982F872F762F43
:101A3000652F542F432F322F22270850F4CF220F27
:101A4000331F441F551F661F771F881F991F0A9554
:101A5000B2F7002D0895EE0FFF1F0590F491E02DD1
:061A60000994F894FFCF89
:00000001FF
