:100000000C942A000C94ED0118950000189500003E
:10001000189500001895000018950000189500002C
:10002000189500000C94D404189500001895000051
:10003000189500001895000018950000189500000C
:1000400018950000189500001895000018950000FC
:10005000189500008FE58DBFC0E4E8E34E2E84E0E4
:100060008EBFD4E0F4E05F2EEEEFF3E0A0E6B0E068
:1000700088278D933197E9F784B7082E877F84BF4F
:100080008FE181BD87E081BD0E940705662480E085
:1000900081BB8FEF82BB8FEF8ABB8FEF87BB8FEF68
:1000A00084BB8D9A8E9A8F9ABF98A6E3B0E08C910C
:1000B00087FBA2E6B0E08C9182F98C9380E080937C
:1000C0006500809162008F7D809362008091620064
:1000D0008F7E8093620080916200886080936200CE
:1000E0008EEF80936600A6E6B0E08C9188BB002777
:1000F000A2E6B0E08C9182FB0EF401E041E004172F
:1001000011F00C94880086E2809367000C948B00B9
:100110008AE080936700A7E6B0E08C9185BB80E021
:100120008FBD85E08EBD8EB5887F8EBD85E08EBD8E
:10013000809A979A0E94F6040027A2E6B0E08C917C
:1001400082FB0EF401E041E0041711F00C94B000C2
:100150000E94F004E4E0FDE00E94E9040C94B60083
:100160000E94F004E4E1FDE00E94E9040E94F4042E
:10017000E4E2FDE00E94E904E2E0F0E00E94FE0417
:100180008CE00E9455050E94F6049598969A9798DF
:1001900085B78C7F826085BF8BB780648BBF789476
:1001A0000E94F6040E94E2030027A2E6B0E08C91D0
:1001B00084FB0EF401E040E0041711F00C94E2001F
:1001C0000E94C9020027A2E6B0E08C9184FB0EF4E5
:1001D00001E041E0041711F00C94A901ACE4B0E097
:1001E0008D919C91A3E6B0E08D939C93A3E6B0E043
:1001F0000D911C91003154EA150710F40C94040180
:10020000979880E0809365000E949105A0E6B0E099
:100210002C93A1E6B0E01C9300916000083011F02F
:100220000C947301A1E6B0E08C918F778C930091D0
:100230006100003211F00C9421010E94E1020C9443
:100240007301013211F00C9429010E9407030C94F0
:100250007301003111F00C9431010E9430030C94B1
:100260007301013111F00C9439010E9489030C943F
:1002700073010D3011F00C9441010E944C040C9458
:1002800073010C3011F00C9449010E9486020C9409
:100290007301013011F00C9454018EEF80936600CD
:1002A0000E94C4040C947301023011F00C945F019D
:1002B0008DEF809366000E94C4040C947301033098
:1002C00011F00C946A018BEF809366000E94C404C5
:1002D0000C947301043011F00C94730187EF809338
:1002E00066000E94C404A0E3B0E08C9184FBA2E607
:1002F000B0E08C9187F98C93A0E3B0E08C9181FB06
:10030000A2E6B0E08C9186F98C930027A2E6B0E0DB
:100310008C9186FB0EF401E040E0041711F00C9480
:1003200097018AE090E00E9482050E9486020027E1
:10033000A2E6B0E08C9187FB0EF401E040E00417E8
:1003400011F00C94A9018AE090E00E9482050E94BD
:100350008D040027A2E6B0E08C9184FB0EF401E04E
:1003600040E0041711F00C94EB01A0E3B0E08C9195
:1003700081FBA2E6B0E08C9186F98C930E949105F6
:10038000A0E6B0E02C93A1E6B0E01C9300916000E1
:10039000083011F00C94D901A1E6B0E08C918F7770
:1003A0008C93009161000C3011F00C94D9010E94E3
:1003B00086020027A2E6B0E08C9186FB0EF401E0F5
:1003C00040E0041711F00C94EB018AE090E00E94E9
:1003D00082050E9486020C94E2000F921F922F92D7
:1003E0003F924F925F927F92AF92BF920F931F9373
:1003F0002F933F934F935F936F937F938F939F932D
:10040000AF93BF93CF93DF93EF93FF938FB78F9308
:100410008BB78F7B8BBF0027A0E3B0E08C9180FB74
:100420000EF401E040E0041711F00C943D020027A7
:10043000A2E6B0E08C9185FB0EF401E040E00417E9
:1004400011F00C94290281E090E00E9482050E9444
:1004500030030027A2E6B0E08C9185FB0EF401E0AA
:1004600041E0041711F00C943B0281E090E00E94FF
:1004700082050E94E1020C9461020027A2E6B0E02E
:100480008C9185FB0EF401E040E0041711F00C9410
:100490004F0281E090E00E9482050E9489030027BC
:1004A000A2E6B0E08C9185FB0EF401E041E0041778
:1004B00011F00C94610281E090E00E9482050E949C
:1004C000070380E48ABF81E090E00E9482058BB739
:1004D00080648BBF8F918FBFFF91EF91DF91CF91A0
:1004E000BF91AF919F918F917F916F915F914F914C
:1004F0003F912F911F910F91BF90AF907F905F9090
:100500004F903F902F901F900F901895A2E6B0E06B
:100510008C9184FB882780F9809580FBA2E6B0E06F
:100520008C9184F98C930027A2E6B0E08C9184FB37
:100530000EF401E041E0041711F00C94A3020E94B4
:10054000AC020C94A5020E94C90280E090E0909356
:100550004D0080934C000895969AA6E6B0E08C91E9
:1005600088BBA7E6B0E08C9185BB9598979A8CE004
:100570000E9455050E94F6040E94E2038EE591E078
:100580000E94820581E0809365008BB780648BBFF9
:10059000089500916500003011F00C94DD029698EA
:1005A0008FEF88BB80E085BB88E00E945505959A57
:1005B00097988CEB92E00E9482058BB78F7B8BBF64
:1005C0000895979A959A8AE090E00E9482059598FE
:1005D000009166000B3F10F00C94F1028BEF8093BA
:1005E000660091E0A6E6B0E00E940306A6E6B0E051
:1005F0008C9188BB88EC90E00E9482050E94E20307
:1006000080E090E090934D0080934C000895979A7D
:10061000959A8AE090E00E94820595980091660084
:100620000D3F18F011F00C9417030C941A038DEF82
:100630008093660091E0A6E6B0E00E940D06A6E673
:10064000B0E08C9188BB88EC90E00E9482050E940B
:10065000E20380E090E090934D0080934C00089579
:10066000959A8AE090E00E9482059598979A0027D3
:10067000A2E6B0E08C9182FB0EF401E041E00417A9
:1006800011F00C946B03009167000F3110F00C9483
:100690004C038EE180936700009167000F3310F0E8
:1006A0000C946103A7E6B0E08C918F5F8C9380E09F
:1006B00085BB83E090E00E948205A7E6B0E08C91C4
:1006C00085BB0E94E20380E090E090934D00809310
:1006D0004C000C948803009167000F3310F00C94C9
:1006E0008003A7E6B0E08C918F5F8C9380E085BBA0
:1006F00083E090E00E948205A7E6B0E08C9185BB84
:100700000E94E20380E090E090934D0080934C00C3
:100710000895959A8AE090E00E9482059598979AAC
:100720000027A2E6B0E08C9182FB0EF401E041E0EC
:10073000041711F00C94C403009167000F3110F0FE
:100740000C94A50380E2809367000091670000325B
:1007500010F40C94BA03A7E6B0E08C9181508C930E
:1007600080E085BB83E090E00E948205A7E6B0E0D0
:100770008C9185BB0E94E20380E090E090934D0055
:1007800080934C000C94E10300916700013010F459
:100790000C94D903A7E6B0E08C9181508C9380E053
:1007A00085BB83E090E00E948205A7E6B0E08C91D3
:1007B00085BB0E94E20380E090E090934D0080931F
:1007C0004C000895009167004FE1041BA9E6B0E0DA
:1007D0000C93009166000E3F11F00C94F5030E94FB
:1007E000F004E6E3FDE00E94E904009166000D3F9D
:1007F00011F00C9401040E94F004EAE4FDE00E9470
:10080000E904009166000B3F11F00C940D040E9466
:10081000F004EEE5FDE00E94E90400916600073F68
:1008200011F00C9419040E94F004E2E7FDE00E942C
:10083000E9040027A2E6B0E08C9182FB0EF401E00F
:1008400041E0041711F00C9439040E94F404E6E826
:10085000FDE00E94E904A0E2B4E0E9E6F0E00E94D5
:1008600038060E94E104E0E9FDE00E94E9040C94EE
:100870004B040E94F404E6E8FDE00E94E904A0E2D3
:10088000B4E0E7E6F0E00E9438060E94E104E0E907
:10089000FDE00E94E9040895A2E6B0E08C9183FB9C
:1008A000882780F9809580FBA2E6B0E08C9183F9DF
:1008B0008C93979A0027A2E6B0E08C9183FB0EF40C
:1008C00001E041E0041711F00C947604A6E6B0E0D4
:1008D0008C9188BBA7E6B0E08C9185BB0E94E203B7
:1008E00084EF91E00E9482050C9484048FEF88BB12
:1008F00080E085BB0E94F604E4E9FDE00E94E90483
:1009000084EF91E00E9482050E94E20380E090E083
:1009100090934D0080934C000895A2E6B0E08C9136
:1009200085FB882780F9809580FBA2E6B0E08C915A
:1009300085F98C93979A0027A2E6B0E08C9185FB0D
:100940000EF401E041E0041711F00C94B1040E9490
:10095000F6040E94F004ECE9FDE00E94E9040C9426
:10096000B9040E94F6040E94F004ECEAFDE00E9443
:10097000E90484EF91E00E94820580E090E090938A
:100980004D0080934C000895979AA6E6B0E08C91B4
:1009900088BB0E94E20380E090E090934D0080933A
:1009A0004C000895F894FFCF8F939F938FB73395A2
:1009B000539509F4439591EC92BF9F918FBF8F910E
:1009C0001895A0E2B4E08D91882311F068D0FBCF98
:1009D00008950E941706802D11F061D0FACF089576
:1009E00082E063D011D007C080EC5FC081E05DD0B1
:1009F0000BD080E85AC080E858D0089588EE93E084
:100A000081D03197D9F7089583E099277BC08AEF89
:100A100090E00E948205D59AD49AD39AD29AD19A1C
:100A2000D09AD89885E090E00E948205D998DD9808
:100A3000DC98DB9ADA9AD99AEF93FF93E4ECF0E032
:100A40000E947605FF91EF91D99859D0D99AEF93EA
:100A5000FF93E4ECF0E00E947605FF91EF91D998C6
:100A60004ED0D99AEF93FF93E4ECF0E00E94760524
:100A7000FF91EF91D99843D0DA98D99AEF93FF93E9
:100A8000E4ECF0E00E947605FF91EF91D99837D021
:100A900088E20BD08EE009D086E007D00895D89A7E
:100AA000829505D004D02BD00895D898F9CF85959C
:100AB00010F4DA9A01C0DA98859510F4DB9A01C037
:100AC000DB98859510F4DC9A01C0DC98859510F4CC
:100AD000DD9A01C0DD98D99AEF93FF93E4ECF0E042
:100AE0000E947605FF91EF91D99808953197F1F71B
:100AF0000895689462F80895E89462F8089581E092
:100B000090E000C0EF93FF93EE27E82BE92B31F044
:100B1000E0EDF7E03197F1F70197D1F7FF91EF9111
:100B200008950F933F934F935F932F923F928F932C
:100B30009F938FB78F9383B78F93826083BF89B75B
:100B40008F93816089BF81EC82BF5527442733276B
:100B5000483008F047C0373324F4839BF8CFF8CFF0
:100B600041C04830ECF78399FCCF33273232D4F5BB
:100B7000839BFCCF932F332711272227913110F02D
:100B8000969511E0292E2694322C290E990F390EB4
:100B9000113021F0321534F58399FCCF33270CE066
:100BA0003215F0F3839909C08894111F221F331561
:100BB000CCF4839BFCCF332708C00894111F221F5D
:100BC000331584F48399FCCF33270A9549F7912F85
:100BD000991F221F991F221F25FB17F926FB16F9C3
:100BE0002F7102C01FEF2FEF8F9189BF8F9183BFAD
:100BF0008F918FBF9F918F913F902F905F914F91D9
:100C00003F910F910895903039F08C91880F08F43E
:100C100081609A95D9F78C930895903039F08C9132
:100C2000869508F480689A95D9F78C930895C895AD
:100C3000319600200895000F111F221F331F0895C1
:100C400000951095209530950F5F1F4F2F4F3F4F08
:100C50000895019110810EC001911191219130816F
:100C60000BC00191108117FF05C03FEF2FEF04C0AB
:100C7000008111272227332737FF03C0E1DF8DE2F0
:100C80008D93CF93DF93CF92DF92EF92AA24BB2470
:100C9000CC24DD24EE2440E2CAE0DD2755E093E3D6
:100CA0008881890F87FD9F7083FD907F891B8993C1
:100CB0005A95A9F7C0DFAA1CBB1CCC1CDD1CEE1C7E
:100CC0004A9551F7E894EFE0FF2782910ED0EB3080
:100CD000E0F71EF068948A2D0CD088278D93EF9052
:100CE000DF90CF90DF91CF910895982F829501D01A
:100CF000892F8F70805D26F0803309F40895689401
:100D00008D9308955368756E7420566F6C2E206312
:100D100074726C00522032522020566F6C2E206369
:100D200074726C00762E312E3020656C666F727591
:100D30006D2E726F000053656C65637465643A20B4
:100D400044564420494E2020000053656C6563746E
:100D500065643A2043442020494E2020000053651A
:100D60006C65637465643A2041757820494E202093
:100D7000000053656C65637465643A2054756E2099
:100D8000494E20200000566F6C756D65203D200097
:100D9000202020004D5554452021200041646A75D3
:100DA000737420496E7075742020000041646A7568
:0C0DB000737420566F6C756D6520000098
:00000001FF
