:100000000C9462000C948A000C948A000C948A0070
:100010000C948A000C948A000C948A000C94DE03E1
:100020000C948A000C948A000C948A000C948A0028
:100030000C948A000C948A000C948A000C948A0018
:100040000C9494030C948A000C9462030C943C036B
:100050000C948A000C948A000C948A000C948A00F8
:100060000C948A000C948A000000000023002600F3
:10007000290000000000240027002A0000000000E2
:10008000250028002B0004040404040404040202D4
:100090000202020203030303030301020408102007
:1000A0004080010204081020010204081020000012
:1000B0000008000201000003040700000000000027
:1000C0000000BB0411241FBECFEFD8E0DEBFCDBFC0
:1000D00011E0A0E0B1E0E8EFFEE102C005900D9272
:1000E000A633B107D9F722E0A6E3B1E001C01D9223
:1000F000AE3BB207E1F710E0C2E6D0E004C02197C2
:10010000FE010E94650FC136D107C9F70E94ED04B8
:100110000C947A0F0C940000AF92BF92CF92DF92B2
:10012000EF92FF920F931F93CF93DF936C017B01AC
:100130008B01040F151FEB015E01AE18BF08C0173D
:10014000D10759F06991D601ED91FC910190F081B0
:10015000E02DC6010995892B79F7C501DF91CF9173
:100160001F910F91FF90EF90DF90CF90BF90AF90D5
:100170000895FC01538D448D252F30E0842F90E0AD
:10018000821B930B541710F0CF9608950197089592
:10019000FC01918D828D981761F0A28DAE0FBF2F5B
:1001A000B11D5D968C91928D9F5F9F73928F90E0B1
:1001B00008958FEF9FEF0895FC01918D828D981720
:1001C00031F0828DE80FF11D858D90E008958FEF5D
:1001D0009FEF0895FC01918D228D892F90E0805C26
:1001E0009F4F821B91098F73992708958FE491E0A7
:1001F0000E94EA0021E0892B09F420E0822F089573
:1002000080E090E0892B29F00E94F60081110C9487
:1002100000000895FC01A48DA80FB92FB11DA35AA9
:10022000BF4F2C91848D90E001968F739927848F16
:10023000A689B7892C93A089B1898C918370806439
:100240008C93938D848D981306C00288F389E02DDA
:1002500080818F7D80830895EF92FF920F931F938B
:10026000CF93DF93EC0181E0888F9B8D8C8D981369
:100270001AC0E889F989808185FF15C09FB7F89475
:10028000EE89FF896083E889F989808183708064C1
:1002900080839FBF81E090E0DF91CF911F910F910C
:1002A000FF90EF900895F62E0B8D10E00F5F1F4F1B
:1002B0000F731127E02E8C8D8E110CC00FB607FC2A
:1002C000FACFE889F989808185FFF5CFCE010E94B8
:1002D0000A01F1CFEB8DEC0FFD2FF11DE35AFF4F1B
:1002E000F0829FB7F8940B8FEA89FB898081806246
:1002F000CFCFCF93DF93EC01888D8823B9F0AA8903
:10030000BB89E889F9898C9185FD03C0808186FDD0
:100310000DC00FB607FCF7CF8C9185FFF2CF80811F
:1003200085FFEDCFCE010E940A01E9CFDF91CF9189
:100330000895833081F028F4813099F08230A9F05B
:1003400008958730A9F08830C9F08430B1F48091E5
:1003500080008F7D03C0809180008F778093800024
:10036000089584B58F7784BD089584B58F7DFBCFC4
:100370008091B0008F778093B00008958091B00095
:100380008F7DF9CF1F93CF93DF93282F30E0F901B2
:10039000E255FF4F8491F901E656FF4FD491F901E0
:1003A000EA57FF4FC491CC23A9F0162F81110E9468
:1003B0009901EC2FF0E0EE0FFF1FE458FF4FA591DD
:1003C000B4918FB7F894EC91111108C0D095DE2349
:1003D000DC938FBFDF91CF911F910895DE2BF8CF73
:1003E000CF93DF9390E0FC01E656FF4F24918A57AC
:1003F0009F4FFC0184918823D1F090E0880F991FD2
:10040000FC01EE58FF4FA591B491FC01E458FF4F59
:10041000C591D49161110EC09FB7F8948C91E22FD1
:10042000E0958E238C932881E223E8839FBFDF91A0
:10043000CF9108958FB7F894EC91E22BEC938FBF96
:10044000F6CF3FB7F89480913B0190913C01A09189
:100450003D01B0913E0126B5A89B05C02F3F19F084
:100460000196A11DB11D3FBFBA2FA92F982F882734
:10047000BC01CD01620F711D811D911D42E0660F0F
:10048000771F881F991F4A95D1F708958F929F92E1
:10049000AF92BF92CF92DF92EF92FF924B015C013D
:1004A0000E9421026B017C010E9421026C197D09CE
:1004B0008E099F09683E734081059105A8F321E0EC
:1004C000821A9108A108B10888EEC80E83E0D81EF0
:1004D000E11CF11C81149104A104B10429F7FF90DF
:1004E000EF90DF90CF90BF90AF909F908F90089546
:1004F000CF92DF92EF92FF92CF93DF93EC01072E22
:10050000000C880B990B0E94D50D6B017C0120E03B
:1005100030E040E45FE30E94850E20E030E048E4F4
:1005200052E40E942B0D0E949D0DC617D707D4F0F0
:1005300020E030E040EA5FE3C701B6010E94850E8B
:1005400020E030E048E452E40E942B0D20E030E04F
:1005500040E85FE30E94BA0C0E949D0D21E06C17F9
:100560007D070CF420E0822F90E0DF91CF91FF9087
:10057000EF90DF90CF9008958F929F92AF92BF92AD
:10058000CF92DF92EF92FF920F931F93CF93DF935F
:10059000FC0120813181E0914B01F0914C0101E09F
:1005A00010E02E173F070CF045C0D901AA0FBB1F62
:1005B000E0914901F0914A01EA0FFB1FA080B18050
:1005C0008901009510950170112720FD27C02CE9A5
:1005D0003FEFEA016B017C014901840E951EB401D5
:1005E000C5010E94780221E030E0892BD1F48C0E05
:1005F0009D1EB401C5010E94780222E030E0892BE3
:1006000081F4BE01680D791DC5010E94780223E0C6
:1006100030E0892B31F40FEF1FEF0CC024E630E0FF
:10062000D8CFF6018081918101968217930784F4D7
:1006300091838083C801DF91CF911F910F91FF902B
:10064000EF90DF90CF90BF90AF909F908F900895E4
:1006500011821082F701808191810196E9CFFC011E
:1006600001900020E9F73197AF01481B590BBC01FD
:100670008FE491E00C948C001F920F920FB60F92B2
:1006800011242F933F934F935F936F937F938F9397
:100690009F93AF93BF93EF93FF938FE491E00E94FA
:1006A0000A01FF91EF91BF91AF919F918F917F913F
:1006B0006F915F914F913F912F910F900FBE0F90CF
:1006C0001F9018951F920F920FB60F9211242F931F
:1006D0008F939F93EF93FF93E0915F01F0916001FF
:1006E0008081E0916501F091660182FD1BC09081DF
:1006F000809168018F5F8F7320916901821741F0AB
:10070000E0916801F0E0E15BFE4F958F8093680116
:10071000FF91EF919F918F912F910F900FBE0F90AE
:100720001F9018958081F4CF1F920F920FB60F92F1
:1007300011242F933F938F939F93AF93BF938091F7
:10074000370190913801A0913901B0913A0130916F
:10075000360123E0230F2D3758F50196A11DB11D59
:10076000209336018093370190933801A09339018B
:10077000B0933A0180913B0190913C01A0913D01E1
:10078000B0913E010196A11DB11D80933B01909354
:100790003C01A0933D01B0933E01BF91AF919F9169
:1007A0008F913F912F910F900FBE0F901F90189532
:1007B00026E8230F0296A11DB11DD2CF1F920F92E2
:1007C0000FB60F9211242F933F934F935F936F9324
:1007D0007F938F939F93AF93BF93CF93DF93EF93C9
:1007E000FF932091ED0130E0F901E255FF4F849134
:1007F000F901E656FF4FD491F901EA57FF4FC49132
:10080000CC2379F081110E949901EC2FF0E0EE0FDA
:10081000FF1FE859FF4FA591B491EC91ED2381E0C2
:1008200009F480E02091F1013091F2012F5F3F4FF8
:100830003093F2012093F1019091F001953618F078
:1008400096E09093EC019091EC01943009F466C02D
:10085000B8F49230F1F0933009F444C09091EF0174
:10086000992309F46BC081117CC08091EE0188232B
:1008700009F463C08091EE0161E00E94C2015EC094
:10088000953009F457C0963049F791E09093BD0236
:100890004FC08111E3CF2091F1013091F201243654
:1008A000310528F41092F2011092F101D7CF109285
:1008B000BD021092F001E091F00191E09E0F909343
:1008C000F001F0E02091F1013091F201EE0FFF1FF5
:1008D000E451FE4F308727831092F2011092F1010C
:1008E00093E019C0813009F0B9CFE091F00191E0B7
:1008F0009E0F9093F001F0E02091F1013091F20110
:10090000EE0FFF1FE451FE4F308727831092F20154
:100910001092F10194E09093EC01A0CF882359F25A
:100920002091F1013091F2012536310508F496CF7E
:1009300095E0F1CF811192CFB5CF2D9AFF91EF9134
:10094000DF91CF91BF91AF919F918F917F916F91E7
:100950005F914F913F912F910F900FBE0F901F907D
:1009600018958091EE01882321F08091EE0160E0DE
:1009700084CF2D98E3CFEFE4F1E01382128288EE6A
:1009800093E0A0E0B0E084839583A683B78384E0FE
:1009900091E09183808385EC90E09587848784EC57
:1009A00090E09787868780EC90E0918B808B81EC3C
:1009B00090E0938B828B82EC90E0958B848B86EC1D
:1009C00090E0978B868B118E128E138E148EECEE28
:1009D000F1E082E0818313820895CF93DF93CDB756
:1009E000DEB7AB970FB6F894DEBF0FBECDBF7894DD
:1009F00084B5826084BD84B5816084BD85B5826024
:100A000085BD85B5816085BD80916E0081608093D4
:100A10006E0010928100809181008260809381003D
:100A2000809181008160809381008091800081604D
:100A3000809380008091B10084608093B1008091A8
:100A4000B00081608093B00080917A0084608093D0
:100A50007A0080917A00826080937A0080917A0097
:100A6000816080937A0080917A00806880937A0018
:100A70001092C100E0915F01F091600182E08083FB
:100A8000E0915B01F0915C011082E0915D01F091D9
:100A90005E019FEC908310926701E0916301F091F9
:100AA000640196E09083E0916101F0916201908190
:100AB00090619083E0916101F09162019081986072
:100AC0009083E0916101F091620190819068908340
:100AD000E0916101F091620190819F7D9083F89493
:100AE0008093B0008093B10094E69093B30010928D
:100AF000B2008093700078948093EC011092F00122
:100B00008091ED0160E00E94F00161E088E00E94C8
:100B1000F00160E088E00E94C20161E087E00E948D
:100B2000F00160E087E00E94C20161E086E00E947F
:100B3000F00160E086E00E94C20144244A94542CF3
:100B40003201A0E22A2E312C23EF31E030934A010A
:100B5000209349018091F00190E090934C018093A3
:100B60004B018091BD0290E090934E0180934D0126
:100B70008091EC01853009F07DC28091F501909162
:100B8000F601885891098D35910508F051C0809182
:100B9000F001843009F58091F7019091F801809778
:100BA0004797D0F48091F9019091FA01099709973C
:100BB00098F41092480110924701409243015092DC
:100BC0004401609245017092460183E090E0909369
:100BD000400180933F01FAC18091F001843440F1DB
:100BE0008091F7019091F801825491098E9700F558
:100BF00090E080E040E050E0BA01FC01E750FE4F99
:100C000020813181295031092930310588F4FC01D6
:100C1000E550FE4F208131812751310922313105C4
:100C200010F120813181265031092730310588F1BA
:100C30008091F0018A3108F461C08091F3019091B4
:100C4000F401843F914050F5109248011092470101
:100C500040924301509244016092450170924601D6
:100C60008BE090E0B4CF440F551F661F771F4160A3
:100C700004968038910509F6309248012092470188
:100C800040934301509344016093450170934601A2
:100C90009CCF440F551F661F771FEACF8091F50147
:100CA0009091F60185974B9748F5ECEEF1E082E0E4
:100CB00090E0C12CD12C76019C012F5F3F4F4091D9
:100CC000F0014217130609F00CF4F6C04385548571
:100CD000475051094730510508F0EDC0258536854C
:100CE000235131092F30310508F4D7C025853685C9
:100CF0002A5031092930310508F4D8C08091F0011B
:100D00008A3108F43FC08091F3019091F401803260
:100D1000934008F499CF8091F5019091F601C69720
:100D2000869780F58091F7019091F801C697869794
:100D300048F5ECEEF1E083E090E0C12CD12C760197
:100D40009C012F5F3F4F4091F0014217130609F0BD
:100D50000CF4DAC0458556854C5051094B3051058D
:100D600008F0D1C027853089255231092B31310552
:100D700008F4BBC0278530892C5031092A30310551
:100D800008F4BCC08091F001823238F18091F50105
:100D90009091F6010697079700F5ECEEF1E082E0FE
:100DA00090E040E050E0BA01DC0111962091F001A2
:100DB0002A171B0609F00CF4D3C0238534852E5165
:100DC00031092731310508F4B6C0238534852C500C
:100DD00031092B30310508F4BDC01BA21AA2E1E095
:100DE000F0E0FA83E9838091F0018D3008F44FC17F
:100DF00049E753E0BE016E5D7F4FCE0101960E9430
:100E0000BC02892B09F043C149E753E0BE016E5D86
:100E10007F4FCE0101960E94BC02019709F037C1B5
:100E200049E753E0BE016E5D7F4FCE0101960E94FF
:100E3000BC028C01892B09F02AC1812C912C540110
:100E40002091F00189819A812817190609F00CF484
:100E5000ABC049E753E0BE016E5D7F4FCE01019606
:100E60000E94BC027C0149E753E0BE016E5D7F4FEA
:100E7000CE0101960E94BC02F1E0EF16F10409F0E8
:100E800088C0892B09F003C1880C991CAA1CBB1CC3
:100E9000689480F80F5F1F4FD3CFCC0CDD1CEE1C85
:100EA000FF1C6894C0F80296349606CFCC0CDD1C6B
:100EB000EE1CFF1CF8CFC90101979595879590937B
:100EC0004801809347010C972CF41092480110922E
:100ED000470114CFC0924301D0924401E0924501F2
:100EE000F092460184E090E072CECC0CDD1CEE1C4A
:100EF000FF1C6894C0F80296349622CFCC0CDD1CFF
:100F0000EE1CFF1CF8CFC90101979595879590932A
:100F10004801809347010C972CF4109248011092DD
:100F2000470130CFC0924301D0924401E092450185
:100F3000F092460195CE440F551F661F771F416002
:100F4000258536853496235031092530310538F40E
:100F500002962ACF440F551F661F771FF1CFCD0190
:100F60000197959587959093480180934701409705
:100F70002CF410924801109247012FCF4093430167
:100F80005093440160934501709346018CE090E0DA
:100F90001ECEEF2809F07BC0019709F078C0880CBD
:100FA000991CAA1CBB1C76CF1093480100934701E3
:100FB0008092430190924401A0924501B092460173
:100FC00021E030E03093400120933F0180913F01C8
:100FD000909140018330910509F0B1C4E090430144
:100FE000F090440182E191E00E942F03209143019F
:100FF00030914401409145015091460119A28E0162
:101000000F5D1F4FCA01B9012AE030E040E050E017
:101010000E94020F605DD8016E938D01211531058C
:101020004105510579F7109769F0FD010190002005
:10103000E9F73197AF014A1B5B0BBD018FE491E0EB
:101040000E948C0083E291E00E942F03BBE5EB1627
:10105000B4EAFB0609F471C408F041C461E0F5EF9D
:10106000EF16FAE0FF0609F446C482E08093EC0133
:101070001092F00180E090E0892B09F465CD0E9488
:10108000F600882309F45DCD0E9400005ACD1BA212
:101090001AA281E090E09A83898380914B0190911C
:1010A0004C01181619060CF07EC0E0914901F09130
:1010B0004A01A2E0B0E0BA83A98382819381899733
:1010C0004E9708F070C083E090E09A838983848112
:1010D00095810B970A9708F066C04CEB51E0BE0172
:1010E0006E5D7F4FCE0101960E94BC028C01892B60
:1010F00009F059C04CEB51E0BE016E5D7F4FCE014F
:1011000001960E94BC02019709F04DC0812C912CE0
:10111000540120914B0130914C0189819A818217B1
:1011200093070CF0E2C04CEB51E0BE016E5D7F4FC7
:10113000CE0101960E94BC027C010330110539F1F9
:101140004CEB51E0BE016E5D7F4FCE0101960E94D7
:10115000BC026C010330110561F44CEB51E0BE019F
:101160006E5D7F4FCE0101960E94BC02C816D90663
:10117000D1F4E114F10409F4ABC0EA94EF2899F436
:10118000CD2889F4880C991CAA1CBB1CABC04CEB65
:1011900051E0BE016E5D7F4FCE0101960E94BC0200
:1011A000E816F90669F2E0914901F0914A0182815D
:1011B0009381C697869778F5848195814B9745975B
:1011C00050F5DF0116967F0136ECE30EF11C20E0AE
:1011D00030E040E050E060E070E080E090E00D91B1
:1011E0001C9111970950110908301105A0F41296AD
:1011F0000D911C911397015111090D30110508F43F
:1012000083C012960D911C9113970450110905305B
:10121000110508F49EC08091F001893380F182812C
:101220009381895791098335910548F5848195818A
:10123000CA97899720F59F012A5F3F4FC12CD12C77
:10124000760143E050E0D9016D917C9111976A508D
:1012500071096930710598F412966D917C9113971C
:10126000665171096131710508F477C012966D916C
:101270007C91665071096730710508F49DC08091BA
:10128000F001823209F09DC0828193810A9709970B
:1012900008F097C0A091F001B0E0A150B048AA0FAB
:1012A000BB1FAE0FBF1F8D919C910A97099708F045
:1012B00088C0109248011092470140924301509219
:1012C0004401609245017092460186E090E07FCC37
:1012D000CA94CD2809F067CF880C991CAA1CBB1CA6
:1012E000689480F80F5F1F4F14CF1093480100934C
:1012F00047018092430190924401A0924501B0922F
:10130000460122E030E05ECE01E00E942F0F216016
:101310001496AE15BF0509F062CF209343013093B8
:101320004401409345015093460100E20E944A0F58
:10133000209341013093420185E090E09093400179
:1013400080933F0180E390E09093480180934701B0
:101350003DCE01E00E942F0FDBCFD701C601880FE1
:10136000991FAA1FBB1F6C017D016894C0F84E5FD6
:101370005F4F2C5F3F4F4B33510509F064CF9F0106
:101380002A583F4FD9012D913C912A5031092930DB
:10139000310508F074CF2CE130E030934801209300
:1013A0004701C0924301D0924401E0924501F0927E
:1013B00046018AE090E00BCCCC0CDD1CEE1CFF1C3F
:1013C000D6CF82819381895791098335910560F544
:1013D0008091F001813240F184819581CA9789978B
:1013E00018F59F012A5F3F4FC12CD12C760143E0B5
:1013F00050E0D9016D917C9111976A507109693063
:10140000710590F412966D917C9113976651710954
:101410006131710580F112966D917C916650710970
:101420006730710508F454C0828193818C5491090E
:10143000C59708F081C08091F001843009F04DC05B
:10144000848195818097479708F047C0868197816E
:101450000997099708F041C010924801109247017E
:1014600040924301509244016092450170924601BE
:1014700087E090E0ACCBD701C601880F991FAA1F67
:10148000BB1F6C017D016894C0F84E5F5F4F2C5FFD
:101490003F4F4332510509F0ACCF9F012A5B3F4FCC
:1014A000D9012D913C912A5031092930310508F09C
:1014B000BBCF20E130E03093480120934701C09238
:1014C0004301D0924401E0924501F0924601FDCEE5
:1014D000CC0CDD1CEE1CFF1CD8CF8091F0018434B5
:1014E00058F18481958189549109C39728F59F010A
:1014F0002A5F3F4FBF016A577F4FC12CD12C760125
:10150000D9014D915C9111974950510949305105CC
:1015100098F412964D915C911397465151094131BF
:10152000510508F4A2C012964D915C9146505109A4
:101530004730510508F4B6C08091F0018634C0F1FF
:10154000828193810C970B9798F5848195810997F7
:10155000099770F5868197818C974F9748F580851C
:10156000918589974D9720F59F01265F3F4FC12CAC
:10157000D12C760145E050E0D9016D917C91119715
:101580006C5071096B30710598F412966D917C91D5
:1015900013976E5171096731710508F488C012966E
:1015A0006D917C91695071096930710508F4ACC086
:1015B0008091F001883508F4B6C082819381855806
:1015C00091098B35910508F0AEC0848195818254D4
:1015D00091098E9708F0A7C08F01045C1F4F8DE121
:1015E00090E030E020E04091F0014450550B84172A
:1015F000950714F5A80142505109DA014D915C910B
:10160000495051094830510508F08DC0BC016F5F49
:101610007F4FD8014D915C91119747505109473048
:10162000510508F476C04D915C9148515109423101
:10163000510508F475C0CB01019795958795909356
:101640004801809347018A970CF46DC0C901330F9C
:10165000AA0BBB0B8093430190934401A0934501D7
:10166000B093460189E090E0B2CAD701C601880F65
:10167000991FAA1FBB1F6C017D016894C0F82C5FE5
:101680003F4F6217730709F03BCF30924801209219
:101690004701C0924301D0924401E0924501F0928B
:1016A0004601E6CECC0CDD1CEE1CFF1CE8CFD701BA
:1016B000C601880F991FAA1FBB1F6C017D0168948A
:1016C000C0F84E5F5F4F2C5F3F4F4534510509F026
:1016D00053CF9F0126573F4FD9012D913C912C505C
:1016E00031092B30310508F063CF30924801209248
:1016F0004701C0924301D0924401E0924501F0922B
:10170000460188E090E063CACC0CDD1CEE1CFF1C97
:10171000D8CF220F331F216002960C5F1F4F63CF7B
:10172000220F331FF9CF8091F001803279F5828149
:1017300093810697069750F58481958109970997BB
:1017400028F59F012A5F3F4FBF01625C7F4FC12C8C
:10175000D12C7601D9014D915C91119746505109D8
:101760004630510598F412964D915C91139749516A
:1017700051094331510508F48CC012964D915C918A
:10178000495051094930510508F4A4C020914B013A
:1017900030914C013FA32EA3263031050CF465CCCB
:1017A0008F010E5F1F4F85ECC82E8DE9D82E8CE17E
:1017B000E82E81E8F82E83E090E09DA38CA3D80169
:1017C00014966D917C911597AD90BC9090E080E05F
:1017D0000E94D30D68A779A78AA79BA7B50190E0BF
:1017E00080E00E94D30D4B015C012DEC3CEC4CE4FD
:1017F0005FE30E94850E9B01AC0168A579A58AA5CF
:101800009BA50E94260DF0E0E0E087FD16C02DECC0
:101810003CEC4CE45FE368A579A58AA59BA50E94F2
:10182000850E9B01AC01C501B4010E94260DE2E0CA
:10183000F0E087FD02C0E1E0F0E0A701960163E976
:1018400071E080E091E00E94F20E6F01FF0FEE0860
:10185000FF08C626D726E826F926ECA1FDA1319679
:10186000FDA3ECA30E5F1F4F2EA13FA12E173F0734
:1018700009F0A5CFC0924301D0924401E092450106
:10188000F092460130924801209247018FEF9FEF7E
:101890009EC9D701C601880F991FAA1FBB1F6C01E3
:1018A0007D016894C0F82C5F3F4F2617370709F079
:1018B00051CF2EE030E03093480120934701C09291
:1018C0004301D0924401E0924501F09246018FE03D
:1018D00090E07DC9CC0CDD1CEE1CFF1CE4CF27E1A1
:1018E000E21628EEF20661F060E03DE0E31632EF2A
:1018F000F30609F0BACB88E00E94C20161E005C09E
:1019000061E088E00E94C20160E087E00E94C201BD
:1019100061E086E00E94C2016BE470E080E090E04C
:101920000E94460260E086E00E94C20162E370E02D
:1019300080E090E00E94460298CB60E0E2CF8430E5
:10194000910529F488E191E00E942F038ECB81302C
:10195000910519F48FE191E0F7CF8230910519F4E8
:1019600085E291E0F1CF019609F07FCB8BE291E027
:10197000EBCF5058BB27AA270E94D10C0C944B0EDA
:101980000E943D0E38F00E94440E20F039F49F3F33
:1019900019F426F40C943A0E0EF4E095E7FB0C943F
:1019A000340EE92F0E945C0E58F3BA1762077307D2
:1019B0008407950720F079F4A6F50C947E0E0EF4BA
:1019C000E0950B2EBA2FA02D0B01B90190010C014F
:1019D000CA01A0011124FF27591B99F0593F50F467
:1019E000503E68F11A16F040A22F232F342F4427BF
:1019F000585FF3CF469537952795A795F0405395B7
:101A0000C9F77EF41F16BA0B620B730B840BBAF086
:101A10009150A1F0FF0FBB1F661F771F881FC2F7F1
:101A20000EC0BA0F621F731F841F48F48795779505
:101A30006795B795F7959E3F08F0B0CF9395880FBF
:101A400008F09927EE0F9795879508950E94100E3C
:101A500008F481E008950E943F0D0C944B0E0E9403
:101A6000440E58F00E943D0E40F029F45F3F29F0EB
:101A70000C94340E51110C947F0E0C943A0E0E946B
:101A80005C0E68F39923B1F3552391F3951B550B25
:101A9000BB27AA2762177307840738F09F5F5F4F41
:101AA000220F331F441FAA1FA9F335D00E2E3AF080
:101AB000E0E832D091505040E695001CCAF72BD098
:101AC000FE2F29D0660F771F881FBB1F26173707E9
:101AD0004807AB07B0E809F0BB0B802DBF01FF271B
:101AE00093585F4F3AF09E3F510578F00C94340EB6
:101AF0000C947F0E5F3FE4F3983ED4F38695779580
:101B00006795B795F7959F5FC9F7880F911D9695D3
:101B1000879597F90895E1E0660F771F881FBB1F2F
:101B2000621773078407BA0720F0621B730B840BDC
:101B3000BA0BEE1F88F7E09508950E94A40D6894F3
:101B4000B1110C947F0E08950E94640E88F09F5787
:101B500098F0B92F9927B751B0F0E1F0660F771FD1
:101B6000881F991F1AF0BA95C9F714C0B13091F0C7
:101B70000E947E0EB1E008950C947E0E672F782FA0
:101B80008827B85F39F0B93FCCF38695779567958C
:101B9000B395D9F73EF490958095709561957F4FF8
:101BA0008F4F9F4F0895E89409C097FB3EF490959E
:101BB0008095709561957F4F8F4F9F4F9923A9F026
:101BC000F92F96E9BB279395F695879577956795B5
:101BD000B795F111F8CFFAF4BB0F11F460FF1BC0F9
:101BE0006F5F7F4F8F4F9F4F16C0882311F096E98C
:101BF00011C0772321F09EE8872F762F05C066233A
:101C000071F096E8862F70E060E02AF09A95660FF2
:101C1000771F881FDAF7880F9695879597F90895AB
:101C2000990F0008550FAA0BE0E8FEEF16161706ED
:101C3000E807F907C0F012161306E407F50798F055
:101C4000621B730B840B950B39F40A2661F0232B6E
:101C5000242B252B21F408950A2609F4A140A695EA
:101C60008FEF811D811D089597F99F6780E870E0CF
:101C700060E008959FEF80EC089500240A94161602
:101C8000170618060906089500240A94121613066A
:101C9000140605060895092E0394000C11F48823F8
:101CA00052F0BB0F40F4BF2B11F460FF04C06F5F14
:101CB0007F4F8F4F9F4F089557FD9058440F551FEA
:101CC00059F05F3F71F04795880F97FB991F61F0BE
:101CD0009F3F79F087950895121613061406551F35
:101CE000F2CF4695F1DF08C0161617061806991FA1
:101CF000F1CF86957105610508940895E894BB2796
:101D000066277727CB0197F908950E94980E0C94C7
:101D10004B0E0E943D0E38F00E94440E20F0952399
:101D200011F00C94340E0C943A0E11240C947F0E86
:101D30000E945C0E70F3959FC1F3950F50E0551F04
:101D4000629FF001729FBB27F00DB11D639FAA2710
:101D5000F00DB11DAA1F649F6627B00DA11D661F5F
:101D6000829F2227B00DA11D621F739FB00DA11D80
:101D7000621F839FA00D611D221F749F3327A00D3A
:101D8000611D231F849F600D211D822F762F6A2FD6
:101D900011249F5750409AF0F1F088234AF0EE0F3B
:101DA000FF1FBB1F661F771F881F91505040A9F768
:101DB0009E3F510580F00C94340E0C947F0E5F3FD3
:101DC000E4F3983ED4F3869577956795B795F795A4
:101DD000E7959F5FC1F7FE2B880F911D969587951C
:101DE00097F90895DB018F939F930E94240FBF9171
:101DF000AF91A29F800D911DA39F900DB29F900D5A
:101E000011240895A1E21A2EAA1BBB1BFD010DC0CF
:101E1000AA1FBB1FEE1FFF1FA217B307E407F5079A
:101E200020F0A21BB30BE40BF50B661F771F881F76
:101E3000991F1A9469F760957095809590959B010C
:101E4000AC01BD01CF0108950E946B0FA59F900DBD
:101E5000B49F900DA49F800D911D11240895002E14
:101E6000083090F0982F872F762F652F542F432F0F
:101E7000322F22270850F4CF220F331F441F551F43
:101E8000661F771F881F991F0A95B2F7002D0895C6
:101E900097FD1094002E083098F00850232F342F0F
:101EA000452F562F672F782F892F912DF4CF15941A
:101EB0009795879577956795579547953795279582
:101EC0000A95AAF71124002D0895EE0FFF1F059023
:101ED000F491E02D0994A29FB001B39FC001A39F8C
:101EE000700D811D1124911DB29F700D811D112453
:081EF000911D0895F894FFCF45
:101EF800000000002C018C00B9007901EA00C8003C
:101F0800DC004E45433A2000534F4E593A200052C8
:101F180043353A20005243363A2000554E4B4E4F37
:061F2800574E3A200000B4
:00000001FF
