:100000000C940E020C9436020C9436020C943602B8
:100010000C9436020C9436020C9436020C94360280
:100020000C9436020C94DC210C9436020C943602AB
:100030000C9436020C9436020C9436020C94360260
:100040000C9473200C9436020C9436020C943602F5
:100050000C9436020C9436020C9436020C94360240
:100060000C94BD200C943602300039003800370063
:1000700036003500340033003200310044697370BB
:100080006C6179004D656E7500446F776E20416C30
:1000900069617300557020416C696173004D75741E
:1000A00065004C656674204172726F770052696713
:1000B0006874204172726F7700446F776E204172CE
:1000C000726F77005570204172726F7700002000C8
:1000D0002000200064322D320064322D3100643162
:1000E0002D320064312D31003A0042616E6E65722E
:1000F00020320042616E6E657220310048694669A7
:1001000020507265616D7020342E30320050726F55
:1001100044657369676E73004D6178566F6C004D6E
:10012000696E566F6C00492F4F2073656C00566FD7
:100130006C756D6500506F72742D3800506F72745D
:100140002D3700506F72742D3600506F72742D353C
:1001500000506F72742D3400506F72742D33005044
:100160006F72742D3200506F72742D31004D6178B2
:10017000004D696E00436F6172736500566F6C7558
:100180006D65205374657000436C6F636B00506F36
:1001900074004D6F746F720064422F537465700069
:1001A00064312052656C6179730000000000230007
:1001B00026002900416D702044656C617900506F04
:1001C00077657200C400B900AD00A2009D009400E4
:1001D0008900BE018400590271027C007A00780017
:1001E00076007400720070006E006C006A00680097
:1001F0004F02CD00436F6D706C657465642E004BCB
:10020000657920536B69707065642E004C6561726E
:100210006E20495200556E6368616E6765642E00FA
:10022000496E697420454550524F4D206E6F772EB0
:1002300000526573746F72652044656661756C74F5
:100240003F00436F6E666967204D6F646521004D06
:10025000756C74692D4F757400536C656570002062
:100260004175746F00204F66662000204F6E20207D
:10027000004261636B6C69676874003220643220ED
:100280002020003120643220202000496E707574D7
:10029000004F757470757400322064312020003175
:1002A0002064312020006E2F610031206442003034
:1002B0002E3520644200302E3120644200A001001F
:1002C00000980192018E01880100000000000000EA
:1002D000007C010000750171016D0166015F01582C
:1002E0000151014A0143013C0135012E0126010063
:1002F00000B401590271021F0118010D01FC00F345
:1003000000EA00E800E300DE00D900D400D200D00B
:1003100000CE00CD004D55544500000000002400E3
:1003200027002A0000000000250028002B000404FC
:10033000040404040404020202020202030303038D
:100340000303010204081020408001020408102069
:100350000102040810200000000800020100000350
:1003600004070000000000000000476F6F64206E6B
:10037000696768740080809F9F9F9F808080809EB7
:100380009F9F9E808080809C9D9D9C808080809887
:100390009D9D9880808080909595908080808080C1
:1003A000959580808080809F9F9F9F80808E95956F
:1003B0009791918E801F001F1F001F001F1F001F9D
:1003C000001F1F000000001F000000001F00001F92
:1003D0001F1F0E001F1F1F0E001F1F1F0E040204F1
:1003E00002040204020202020420200402020404A5
:1003F0000204202004040204020204040104010493
:10040000200303040103040402040403030403039C
:1004100001010404030404030400A42211241FBEE8
:10042000CFEFD8E0DEBFCDBF15E0A0E0B1E0E8EF50
:10043000F9E502C005900D92A231B107D9F727E086
:10044000A2E1B5E001C01D92AF31B207E1F712E0C1
:10045000CEE0D2E004C02197FE010E94D329CD3026
:10046000D107C9F70E94D0220C94FA2C0C940000FA
:100470008091130681110CC081EA8093B20082E062
:100480008093710610920D071092740610927306F5
:100490000895AF92BF92CF92DF92EF92FF920F93A7
:1004A0001F93CF93DF937C016B018A01FC01C08114
:1004B000D1818091F4059091F505C817D9070CF00A
:1004C00081C0E091F205F091F305CE01880F991FEC
:1004D000E80FF91FA080B18024E630E0C0FD02C023
:1004E0002CE93FEF200F311FC901880F991F820FA0
:1004F000931F68EC70E00E945B29A616B70654F0C3
:10050000C90168E270E00E945B296F5F7F4F6A1546
:100510007B05A4F5200F311FC901880F991F820F99
:10052000931F68EC70E00E945B29A616B70654F092
:10053000C90168E270E00E945B296F5F7F4F6A1516
:100540007B05B4F5200F311FC901880F991F820F59
:10055000931F68EC70E00E945B29A616B70664F052
:10056000C90168E270E00E945B296F5F7F4F23E062
:1005700030E06A157B0524F48FEF0FC021E030E0F6
:10058000F60180819181019682179307A4F49183EB
:100590008083CE01809590958170DF91CF911F91DE
:1005A0000F91FF90EF90DF90CF90BF90AF900895A4
:1005B00022E030E0E5CF11821082F7018081918145
:1005C0000196E5CF81E0E9CF2AE090E080E061E4A8
:1005D00060937C0030917A00306430937A003091DF
:1005E0007A0036FDFCCF3091780040917900542F8D
:1005F000432F840F951F215059F76AE070E00E9445
:100600005B29CB01089508950895833081F028F483
:10061000813099F08230A9F008958730A9F08830B0
:10062000C9F08430B1F4809180008F7D03C0809147
:1006300080008F7780938000089584B58F7784BD84
:10064000089584B58F7DFBCF8091B0008F77809324
:10065000B00008958091B0008F7DF9CF1F93CF93A4
:10066000DF93282F30E0F901EA5AFC4F8491F90119
:10067000EE5BFC4FD491F901E25DFC4FC491CC23B9
:10068000A9F0162F81110E940503EC2FF0E0EE0F68
:10069000FF1FEC5DFC4FA591B4918FB7F894EC91DE
:1006A000111108C0D095DE23DC938FBFDF91CF916D
:1006B0001F910895DE2BF8CFCF93DF9390E0FC01DC
:1006C000EE5BFC4F2491825D9C4FFC01849188235A
:1006D000D1F090E0880F991FFC01E65EFC4FA591D8
:1006E000B491FC01EC5DFC4FC591D49161110EC039
:1006F0009FB7F8948C91E22FE0958E238C932881FC
:10070000E223E8839FBFDF91CF9108958FB7F894DC
:10071000EC91E22BEC938FBFF6CF1F93CF93DF9337
:10072000182FEB0161E00E945C03209739F460E030
:10073000812FDF91CF911F910C942E03CF3FD105D4
:1007400011F461E0F5CFE12FF0E0EA5AFC4FE491BB
:10075000E33031F140F4E130B1F0E230E1F0C038A3
:10076000D1057CF7E4CFE73029F1E83059F1E430E6
:10077000B1F780918000806280938000D0938B00DD
:10078000C0938A0004C084B5806884BDC7BDDF9172
:10079000CF911F91089584B5806284BDC8BDF7CF05
:1007A00080918000806880938000D0938900C093FE
:1007B0008800EDCF8091B00080688093B000C09336
:1007C000B300E5CF8091B00080628093B000C09309
:1007D000B400DDCF682F70E080911C070C948D036E
:1007E0003FB7F89480919A0590919B05A0919C0544
:1007F000B0919D0526B5A89B05C02F3F19F0019625
:10080000A11DB11D3FBFBA2FA92F982F8827BC016A
:10081000CD01620F711D811D911D42E0660F771F92
:10082000881F991F4A95D1F708958F929F92AF9292
:10083000BF92CF92DF92EF92FF924B015C010E9438
:10084000F0036B017C010E94F0036C197D098E0995
:100850009F09683E734081059105A8F321E0821A43
:100860009108A108B10888EEC80E83E0D81EE11CEB
:10087000F11C81149104A104B10429F7FF90EF90B9
:10088000DF90CF90BF90AF909F908F9008952FB73B
:10089000F8946091960570919705809198059091D4
:1008A00099052FBF089520917205260F3327331F16
:1008B00021323105ECF420913A06FC0190E080E011
:1008C000243069F082E00895A09172052191AC0175
:1008D0004E5A5A4FA40FB52FB11D2C93019686176F
:1008E00098F380917205680F6093720580E0089517
:1008F00081E0089510923A0681E0809339061092C3
:10090000140661E082E10E942E0361E083E10E940F
:100910002E03E9EBF0E080818E7F808380818D7FE4
:10092000808388E48093B80085E48093BC000895B8
:10093000CF93DF9391E0909351058823B9F0C09154
:10094000B800D091BA008091BC008A7B8093BC0033
:1009500060E082E10E942E0360E083E10E942E03AA
:100960000E947A04D093BA00C093B800DF91CF916F
:1009700008958F929F92AF92BF92CF92DF92EF92A3
:10098000FF920F931F93CF93DF93D0916306D132E1
:1009900008F0D7C0182FC09162060E94F0036B01C7
:1009A0007C0180913A0681116BC082E080933A0607
:1009B000109339068FEF8093380610923706D09344
:1009C0003606A2E4B6E0E6E1F6E080E0D81391C096
:1009D0001092150680911506CC0FC82BC0931506F2
:1009E00080911406813009F088C0109214060E948C
:1009F000F0036B017C01809115068093BB00809110
:100A00003C0690913D06A0913E06B0913F06892B91
:100A10008A2B8B2BA1F00E94F00300913C061091D1
:100A20003D0620913E0630913F066C197D098E09E6
:100A30009F09061717072807390708F442C0809155
:100A4000BC0083FDD8CF85EC8093BC000E94F003EE
:100A50006B017C0180913A06823009F450C080918C
:100A600038068F3F09F46FC080913806803209F450
:100A70006CC080913806803309F469C084E026C0D8
:100A800080913C0690913D06A0913E06B0913F06B4
:100A9000892B8A2B8B2B09F484CF0E94F003809042
:100AA0003C0690903D06A0903E06B0903F066C1923
:100AB0007D098E099F0986169706A806B90608F0D3
:100AC00070CF80913B060E94980485E01092410609
:100AD0001092630610924006DF91CF911F910F9103
:100AE000FF90EF90DF90CF90BF90AF909F908F904E
:100AF00008959D9191938F5F69CF85EEA5CF8091E9
:100B00003C0690913D06A0913E06B0913F06892B90
:100B10008A2B8B2B09F49ECF0E94F00300913C0698
:100B200010913D0620913E0630913F066C197D09DB
:100B30008E099F09061717072807390708F08ACF7B
:100B4000C0CF81E0C3CF80E0C1CF82E0BFCF83E0E0
:100B5000BDCF0895E091A3058091A205E81730F478
:100B6000F0E0EF5CFA4F808190E008958FEF9FEF07
:100B700008959091A3058091A2052FEF3FEF98175C
:100B800048F4E92FF0E0EF5CFA4F208130E09F5FFE
:100B90009093A305C90108958091A2059091A305A2
:100BA000891B990B0895CF92DF92EF92FF920F93DA
:100BB0001F93CF93DF937C01CB018A0120914006E4
:100BC000222389F0EB016B01C40ED51ECC15DD0587
:100BD00069F06991D701ED91FC910190F081E02DD0
:100BE000C7010995F3CF642F0E945304C801DF9118
:100BF000CF911F910F91FF90EF90DF90CF900895CC
:100C0000CF93DF931F92CDB7DEB769832091400663
:100C10002223F9F020916306203258F021E030E0E1
:100C2000FC013383228390E080E00F90DF91CF912D
:100C3000089580914106E82FF0E0EE5BF94F99812D
:100C400090838F5F809341068093630681E090E0FC
:100C5000ECCF61E0CE0101960E945304F7CF90E003
:100C600080E00895E091A405F091A505EE0FFF1F27
:100C7000E953FE4F818190E09093D2058093D10596
:100C800020812093D305223079F42BE0289FF001B6
:100C9000299FF00D1124E15FFC4F8185928590938F
:100CA000D0058093CF05089525E0289FF001299F66
:100CB000F00D1124EB56FE4F83819481F0CF1092FA
:100CC000CB058091A4059091A50520912805309130
:100CD00029058217930749F480912A0590912B05E5
:100CE0009093A5058093A40508950196F9CF1092DD
:100CF000CB058091A4059091A50520912A053091FE
:100D00002B058217930749F48091280590912905B6
:100D10009093A5058093A40508950197F9CF80913C
:100D2000D305823079F48091D1059091D2052BE0E2
:100D3000289FF001299FF00D1124E15FFC4F828173
:100D400090E00895833069F48091D1059091D205A7
:100D500025E0289FF001299FF00D1124EB56FE4F4E
:100D6000EECF90E080E008952D9A08957F928F92C3
:100D70009F92AF92BF92CF92DF92EF92FF920F932A
:100D80001F93CF93DF9300D000D0CDB7DEB785E7B8
:100D900096E09093F3058093F20580910D0790E023
:100DA0009093F5058093F40580917106853009F0E4
:100DB000C3C280910D078A3108F446C0809177063E
:100DC00090917806859708F43FC0809177069091BE
:100DD000780680349105C0F5A0E7B6E082E090E0A7
:100DE00040E050E0BA01E0910D079C012F5F3F4FBA
:100DF000E217130609F00CF4CBC019962D913C9123
:100E00001A972730310508F4C3C019962D913C91EB
:100E10001A972E30310508F0BBC0FD013B961B969A
:100E20002D913C911C972331310540F01B962D915B
:100E30003C911C972232310508F497C02081318102
:100E40002A30310508F099C0809177069091780694
:100E50008838910548F18091770690917806853E13
:100E6000910510F580910D078430C9F480917906C1
:100E700090917A06809798F08091790690917A0601
:100E8000C79768F480917B0690917C06099738F0AB
:100E900080917B0690917C06429708F404C1809172
:100EA0000D07843408F010C180910D078D3008F4CF
:100EB00075C181E090E09C838B831A82198249E797
:100EC00053E0BE016F5F7F4FCE0103960E9449023F
:100ED000811164C149E753E0BE016F5F7F4FCE01CE
:100EE00003960E944902813009F058C149E753E056
:100EF000BE016F5F7F4FCE0103960E9449028111B0
:100F00004DC110E000E0C12CD12C760120910D07DD
:100F10008B819C812817190609F00CF431C149E72F
:100F200053E0BE016F5F7F4FCE0103960E944902DE
:100F3000A82EB12C49E753E0BE016F5F7F4FCE0171
:100F400003960E94490290E021E0A216B10409F044
:100F50000EC1892B09F022C1CC0CDD1CEE1CFF1C3C
:100F60006894C0F80F5F1F4FD1CF440F551F661F05
:100F7000771F41600296149636CF2081318123314C
:100F8000310508F061CF440F551F661F771FF2CF60
:100F90000197959587959093F1058093F0050C97AF
:100FA0002CF41092F1051092F0054ECF4093EC0511
:100FB0005093ED056093EE057093EF0582E080930A
:100FC000EB052091EB052130A1F58091EC05909186
:100FD000ED05A091EE05B091EF058F3F3FEF930730
:100FE000A307B30709F09AC18091120590911305E8
:100FF000A0911405B09115058F3F9F4FAF4FBF4F84
:1010000041F41092120510921305109214051092DB
:1010100015058091120590911305A0911405B091CA
:1010200015058093EC059093ED05A093EE05B09324
:10103000EF058091EC059091ED05A091EE05B09142
:10104000EF050097A105B10561F0233009F06FC1EC
:1010500097708093EC059093ED05A093EE05B09307
:10106000EF0564E170E080E090E00E9415040E94CA
:1010700038026091EC057091ED058091EE0590913C
:10108000EF050F900F900F900F90DF91CF911F9170
:101090000F91FF90EF90DF90CF90BF90AF909F9017
:1010A0008F907F9008951092F1051092F0058FEFC8
:1010B0009FEFDC018093EC059093ED05A093EE0586
:1010C000B093EF0581E07BCF8091790690917A060D
:1010D0008234910508F4E8CE8091790690917A06E1
:1010E0008037910508F0E0CE30E020E080E090E02D
:1010F000DC01F901E558F94F408151814930510532
:1011000008F4D2CE408151814231510508F0CCCE55
:10111000F901E358F94F408151814631510528F0DA
:10112000408151814732510588F0408151814630DC
:10113000510508F4B9CE408151814D30510508F078
:10114000B3CE880F991FAA1FBB1F05C0880F991F18
:10115000AA1FBB1F81602C5F3F4F2038310549F625
:1011600020E230E03093F1052093F005A3CFAB28C7
:10117000A9F4019799F4CC0CDD1CEE1CFF1CF2CEF7
:101180001093F1050093F005C092EC05D092ED05A7
:10119000E092EE05F092EF0583E011CF8091F40527
:1011A0009091F505181619060CF08EC081E090E0BC
:1011B0009C838B83E091F205F091F305828193810A
:1011C000899708F481C0828193818734910508F062
:1011D0007BC082E090E09C838B83848195810B9718
:1011E00008F472C084819581459708F06DC083E052
:1011F00090E09C838B831A8219824CEB51E0BE01F4
:101200006F5F7F4FCE0103960E94490281115CC03F
:101210004CEB51E0BE016F5F7F4FCE0103960E9401
:101220004902813009F050C010E000E0C12CD12CFF
:1012300076012091F4053091F5058B819C81821710
:1012400093070CF05DC04CEB51E0BE016F5F7F4F28
:10125000CE0103960E944902982EA82EB12C03308D
:10126000110539F14CEB51E0BE016F5F7F4FCE01AC
:1012700003960E944902782E882E912C0330110586
:1012800059F44CEB51E0BE016F5F7F4FCE010396E6
:101290000E944902781218C0A114B10429F1AA943D
:1012A000AB2891F4892881F4CC0CDD1CEE1CFF1CCA
:1012B00024C04CEB51E0BE016F5F7F4FCE0103961F
:1012C0000E944902981671F28FEF8093EB051092FD
:1012D000F1051092F0051092EC051092ED051092B8
:1012E000EE051092EF056DCE8A94892869F7CC0C33
:1012F000DD1CEE1CFF1C6894C0F80F5F1F4F99CFD8
:101300001093F1050093F005C092EC05D092ED0525
:10131000E092EE05F092EF0584E051CE8093120545
:1013200090931305A0931405B093150582CE243035
:1013300009F097CEA1608DCE60E070E0CB01A1CE28
:10134000CF93C42F91E09093400680936206109251
:1013500041061092630684E696E00E9400066C2F18
:1013600084E696E00E94000681E0CF910C94B904D7
:10137000EF92FF921F93CF93DF939EE0E92E97E0C9
:10138000F92EF7011785182B412F6AE083850E94FB
:10139000A009CFE1D0E0CE010197F1F740E8410F7D
:1013A0006AE0F70183850E94A009CE010197F1F759
:1013B000412F6AE0F70183850E94A0092197F1F788
:1013C000DF91CF911F91FF90EF9008951F93CF93DE
:1013D000DF93182F82958F700E94B809CFE1D0E07B
:1013E000CE010197F1F7812F8F700E94B8092197E4
:1013F000F1F710921306DF91CF911F910895CF93CB
:10140000DF93CEE0D7E09F8590619F870E94E60939
:101410008F8590E189278F87DF91CF910895CF93B2
:10142000DF93EC018991882319F00E94FF09FACF1C
:10143000DF91CF9108950E94E6098BE79CE0019728
:10144000F1F70895CF93DF93EC01862F61110E948D
:101450001B0ACE01DF91CF910C940F0ACF92DF923D
:10146000EF92FF920F931F93CF93DF93C82F80E8E3
:10147000860F10EC160FC032A9F40E941B0A84E9F3
:1014800094E00E940F0A812F0E941B0A84E994E0D5
:10149000DF91CF911F910F91FF90EF90DF90CF9050
:1014A0000C940F0AC0539C2F990FC90F0E941B0A5E
:1014B000F12CE12CD0E0CE0185509C4F6C01F6015F
:1014C000EE0DFF1D84910E94FF099FEFE91AF90AB2
:1014D00083E0E816F10499F7812F0E941B0A10E0BF
:1014E00000E0C352DC4FFE01E00FF11F84910E9427
:1014F000FF090F5F1F4F03301105A9F7DF91CF914F
:101500001F910F91FF90EF90DF90CF90089581E0B1
:101510000C941B0ACF93DF93C0911707D0E020975C
:1015200059F08C2F0E94EA0362E070E080E090E0C6
:101530000E9415042197F3CF82E080931507DF9175
:10154000CF910C94870ACF92DF92EF92FF92CF93C4
:10155000DF9380911507811170C00E9447046B01D1
:101560007C0180910E0790910F07A0911007B09118
:101570001107C816D906EA06FB0631F10E94470496
:10158000C0900E07D0900F07E0901007F090110761
:101590006C197D098E099F09683E7340810591058C
:1015A00000F580911207909113070A970CF445C03B
:1015B00080911807813049F5DF91CF91FF90EF902E
:1015C000DF90CF900C948A0A0E944704C61AD70A6B
:1015D000E80AF90A88EEC81683E0D806E104F104A7
:1015E00000F38091120790911307019690931307CF
:1015F000809312070E94470460930E0770930F07B1
:101600008093100790931107CCCF8230B1F4C09132
:101610001707D0E0809116078C171D065CF48C2FFD
:101620000E94EA0362E070E080E090E00E9415040E
:101630002197F0CF81E080931507DF91CF91FF9044
:10164000EF90DF90CF900895E82FF0E0EE0FFF1FAE
:10165000E658FB4F8081860F80680C941B0ACF935D
:10166000813059F480E80E941B0AC0E180E20E94A8
:10167000FF09C150D9F7CF91089580ECF4CFDF92E4
:10168000EF92FF920F931F93CF93DF9380E40E941A
:101690001B0A05EB13E0C8E08C2F8064D8E0D80F5C
:1016A0007801DD24D394D80E0E941B0AF70184919F
:1016B0000E94FF09F5E0EF0EF11C8D2DDD12F1CF38
:1016C000C85F0F5F1F4FC03339F780E8DF91CF91BC
:1016D0001F910F91FF90EF90DF900C941B0A0F93D6
:1016E0001F93CF93DF9380E40E941B0ACDEAD3E0DF
:1016F000FE0184910E94FF092196F3E0C53BDF07BC
:10170000B9F7C5EAD3E0FE0184910E94FF09219652
:10171000F3E0CD3ADF07B9F7CDE9D3E0FE018491DC
:101720000E94FF092196F3E0C53ADF07B9F7C5E942
:10173000D3E0FE0184910E94FF092196F3E0CD39A8
:10174000DF07B9F7CDE8D3E0FE0184910E94FF09DD
:101750002196F3E0C539DF07B9F7C5E8D3E00DE816
:1017600013E0FE0184910E94FF0921960C171D07CA
:10177000C1F7CDE7D3E0FE0184910E94FF092196D5
:10178000F3E0C538DF07B9F7C5E7D3E00DE713E0AD
:10179000FE0184910E94FF0921960C171D07C1F7D5
:1017A00080E8DF91CF911F910F910C941B0ACF938A
:1017B000C82F80E88C0F0E941B0A82E00E94FF095C
:1017C00082E00E94FF0980EC8C0F0E941B0A81E0DE
:1017D0000E94FF0981E0CF910C94FF091F93CF93E2
:1017E000DF93162FD42FC22FEBECF9E33197F1F7EB
:1017F000E82FF0E0EA55FA4F40E060E080810E9477
:10180000A009E12FF0E0EA55FA4F40E060E0808166
:101810000E94A009DF3FA1F0CF3F91F0ED2FF0E053
:10182000EA55FA4F40E060E080810E94A009EC2F69
:10183000F0E0EA55FA4F40E060E080810E94A009A4
:101840008BEC99E30197F1F7DF91CF911F91089508
:10185000CF92DF92EF92FF920F931F93CF93DF937C
:10186000F82ED62EC42FD22F2E2D2150330BC90186
:101870005091300510E0E12C61E070E08F3F980757
:10188000B1F09B01082E01C0220F0A94EAF7402F05
:101890004223E52FE2234E1303C0E1E0CE1203C042
:1018A000442319F0E22A0197E9CF122BFCCFED2D4A
:1018B000F0E0EA55FA4F0081412F60E0802F0E944E
:1018C000A009EF2DF0E0EA55FA4FC08040E060E05B
:1018D0008C2D0E94A009CF3FA1F0DF3F91F0ED2FAA
:1018E000F0E0EA55FA4F412F60E080810E94A009A4
:1018F000EC2FF0E0EA55FA4F40E060E080810E9472
:10190000A0092D2F4C2F6D2D8F2D0E94EE0B4E2DEB
:1019100060E08C2D0E94A00940E060E0802F0E94D2
:10192000A009CF3FA1F0DF3F91F0EC2FF0E0EA55A6
:10193000FA4F4E2D60E080810E94A009ED2FF0E06B
:10194000EA55FA4F40E060E080810E94A0092D2F07
:101950004C2F6D2D8F2DDF91CF911F910F91FF9007
:10196000EF90DF90CF900C94EE0BCF92EF920F930D
:1019700030E020E000E090E047E050E061E070E01F
:10198000FC01022E02C0F595E7950A94E2F7E0FF0C
:101990000AC0FA01E21BF30BDB0102C0AA0FBB1F56
:1019A000EA95E2F70A2B2F5F3F4F2830310541F7C8
:1019B0008091F905813071F4CC24C39498E0E92E2C
:1019C0002FEF4FEF65E084E00E94280C0F91EF901D
:1019D000CF9008958230D1F7CC24C39488E0E82ECC
:1019E00027E046E0EFCF809303016093F8058091F4
:1019F000F9058150823088F48091040127E030E0BD
:101A0000281B310987FD339581E090E001C0880FE4
:101A10002A95EAF7862B0C94B50C0895CF93C82F1E
:101A20000E94B40627E030E02C1B310981E090E0F1
:101A300001C0880F2A95EAF72091F70521110FC000
:101A4000C09303018093F805C093000180931605AD
:101A50006091F80580910301CF910C94F30C2091D3
:101A6000F805322F382329F0809582238093F805DA
:101A7000EFCF822BFBCFCF93DF9380930401909124
:101A8000F90591509230E8F4C82FD091F8058D2FC8
:101A90000E94B50C62E070E080E090E00E941504C6
:101AA00027E030E02C1B3109C7FD339581E090E041
:101AB00001C0880F2A95EAF78D2BDF91CF910C9406
:101AC000B50CDF91CF910895CF92EF920F93CF9302
:101AD0009091EA05913029F190913005891302C067
:101AE000662389F0C62EC82F8091FB05813089F4CA
:101AF000E0902F050C2F2FEF4FEF61E080E00E9468
:101B0000280CC0933005CF910F91EF90CF900C949B
:101B100047048230B1F7E0902F050C2F23E042E01C
:101B2000ECCFCF910F91EF90CF900895CF93DF93AB
:101B3000CDB7DEB729970FB6F894DEBF0FBECDBF85
:101B400048E050E060E270E0CE0101960E94F32987
:101B5000198660ECCE0101960E94220A29960FB6E2
:101B6000F894DEBF0FBECDBFDF91CF910895CF9324
:101B7000DF93EC01862F61110E941B0A40E150E0C7
:101B8000BE0182E096E00E942A291092130682E0AC
:101B900096E0DF91CF910C940F0A90910106282FC7
:101BA000291B330BB9012DE26115710509F420E2FF
:101BB000CB0177FF04C088279927861B970B3091AC
:101BC0000006311145C06AE070E00E945B2930E0F8
:101BD0004091FF05413011F54091FE054130F1F48F
:101BE0009F938F937F936F933F932F9388E994E014
:101BF0009F938F9382E096E09F938F930E94222A77
:101C00008DB79EB70A960FB6F8949EBF0FBE8DBFD4
:101C10006FEC74E082E096E00C94FA299F938F9326
:101C20007F936F933F932F9380EA94E09F938F93DA
:101C300082E096E09F938F930E94222A2DB73EB7B1
:101C4000265F3F4F0FB6F8943EBF0FBE2DBFE0CFCB
:101C5000313009F05CC045E380FF40E395958795FE
:101C600050E03091FF053130C9F53091FE0531303B
:101C7000A9F53091FD053833C8F05F934F939F93DA
:101C80008F931F922F9389EA94E09F938F9382E022
:101C900096E09F938F930E94222A8DB79EB70A9653
:101CA0000FB6F8949EBF0FBE8DBFB2CF5F934F9318
:101CB0009F938F9381EB94E09F938F9382E096E0C4
:101CC0009F938F930E94222A2DB73EB7285F3F4FE4
:101CD0000FB6F8943EBF0FBE2DBF9ACF5F934F93C0
:101CE0009F938F931F922F9387EB94E09F938F93F3
:101CF00082E096E09F938F930E94222A8DB79EB731
:101D00000A960FB6F8949EBF0FBE8DBF81CF3230BA
:101D100009F07ECF3091FE0547E954E0313011F0F3
:101D200045E954E0672BC1F41F921F925F934F93D4
:101D300080EC94E09F938F9382E096E09F938F9343
:101D40000E94222A2DB73EB7285F3F4F0FB6F89466
:101D50003EBF0FBE2DBF5CCF9F938F931F922F93DB
:101D60005F934F9387EC94E09F938F9382E096E08C
:101D70009F938F930E94222A8DB79EB70A960FB623
:101D8000F8949EBF0FBE8DBF43CFCF92DF92EF92EC
:101D9000FF920F931F93CF93DF93D091190781E0A8
:101DA00080934006D093620610924106109263061B
:101DB00069E084E696E00E94000681E00E94B90492
:101DC00081119EC00E94F0036B017C0180913A0654
:101DD000811165C081E080933A06809339069FEFB8
:101DE00090933806109237061092360680931506A7
:101DF00080911506DD0FD82BD0931506809114061F
:101E0000813009F08BC0109214060E94F0036B0120
:101E10007C01809115068093BB0080913C069091D7
:101E20003D06A0913E06B0913F06892B8A2B8B2B55
:101E3000A1F00E94F00300913C0610913D06209114
:101E40003E0630913F066C197D098E099F090617E1
:101E500017072807390708F443C08091BC0083FDA9
:101E6000D8CF85EC8093BC000E94F0036B017C010D
:101E700080913A06813009F453C080913706C1E061
:101E8000811102C0C0913706A6E1B6E0E1E3F5E0BA
:101E900080E08C1751F19D9191938F5FFACF8091E3
:101EA0003C0690913D06A0913E06B0913F06892BDD
:101EB0008A2B8B2B09F48ACF0E94F00300913C06F9
:101EC00010913D0620913E0630913F066C197D0928
:101ED0008E099F09061717072807390708F076CFDC
:101EE00080913B060E949804C0E01092A305C09325
:101EF000A205CC2329F084E696E00E94B905C82FFC
:101F0000C07681E0C03609F480E0DF91CF911F9167
:101F10000F91FF90EF90DF90CF90089585EEA2CFC4
:101F200080913C0690913D06A0913E06B0913F06FF
:101F3000892B8A2B8B2B09F49BCF0E94F0030091F5
:101F40003C0610913D0620913E0630913F066C19EB
:101F50007D098E099F09061717072807390708F01A
:101F600087CFBECFCF92DF92EF92FF920E944704BD
:101F70006B017C010E9447046C157D058E059F0551
:101F800089F00E9447046C197D098E099F09693BFD
:101F90007B4081059105A8F080E0FF90EF90DF90F5
:101FA000CF9008950E944704A7019601261B370B86
:101FB000480B590BDA01C901893B9B40A105B105CA
:101FC00058F70E94C50E813041F364E170E080E073
:101FD00090E00E941504CECF85ED8093BC008091E7
:101FE0003C0690913D06A0913E06B0913F060796B3
:101FF000A11DB11D23E0B695A795979587952A95C4
:10200000D1F72091BC0024FD03C010923A06089538
:1020100040913C0650913D0660913E0670913F060E
:10202000452B462B472B69F30097A105B10541F0DD
:1020300025E32A95F1F700000197A109B109E1CF45
:1020400080913B060C9498040C943929883020F434
:1020500090E0CC960C94241082E008954F925F9209
:102060006F927F928F929F92AF92BF92CF92DF92A8
:10207000EF92FF920F931F93CF93DF93582E4B0154
:10208000E09004010E2C000CFF08EB0110E000E0D2
:1020900087E0C82ED12CAA24A394B12C2DE2722E55
:1020A00039E4432E802F0E9426108130E9F4E01697
:1020B000F106E1F448820F5F1F4F219608301105A9
:1020C00089F7F4011086DF91CF911F910F91FF9056
:1020D000EF90DF90CF90BF90AF909F908F907F90C8
:1020E0006F905F904F900895823011F47882E3CF23
:1020F000C601801B910B950102C0220F331F8A95E8
:10210000E2F7C901852191F381E3800F8883D3CF62
:10211000CF93DF93C091E105D091E20520912C058A
:1021200030912D05C217D30711F4813099F5D09362
:102130002D05C0932C050E94960D80EC0E941B0A71
:102140008091FA058130F1F488E090E00E9424103B
:102150009E01D7FF02C02F5F3F4F35952795C82FAF
:10216000C21B83E50E94FF098C2F6AE00E944F2961
:10217000C92F805D0E94FF0980E38C0FDF91CF9112
:102180000C94FF0983E50E94FF098DE20E94FF097C
:102190008DE2F4CFDF91CF910895FF920F931F93BB
:1021A000CF93DF93F82E8150990BEC0184E0CC0F94
:1021B000DD1F8A95E1F702E016E0CE50D440CE0153
:1021C000800F911F0E942410F80181938F01F6E087
:1021D00002311F07A1F71092120681E060E8F812A1
:1021E00060EC82E096E0DF91CF911F910F91FF901C
:1021F0000C94220A0F931F93CF93DF9324E0880F50
:10220000991F2A95E1F7C2E0D6E08C010E501440E8
:10221000C8018C0F9D1F0E942410899386E0C23153
:10222000D807B1F710921206DF91CF911F910F914D
:1022300008958AE190E00E9424108093E90582309D
:1022400029F481E08093FF050C943F0B813021F449
:102250001092FF050C946F0B83508230C8F381E01D
:102260008093E905F5CFEF92FF921F93CF93DF9311
:102270007C010E942410182FC70101960E9424108F
:10228000D82FC70102960E942410C82FC7010396B9
:102290000E942410682F70E0762F66276C0F711D46
:1022A00090E080E02D2F30E0322F2227210F311DCA
:1022B000CB0177276627620F731F811D911DDF9168
:1022C000CF911F91FF90EF9008950F931F93CF939D
:1022D000DF9302EB15E0C8ECD0E0CE010E94331191
:1022E000F80161937193819391938F012496CC3D72
:1022F000D10599F7DF91CF911F910F910895CF925A
:10230000DF92EF92FF920F931F93CF93DF93C090D2
:10231000C705D090C805E090C905F090CA050CED3E
:1023200010E0C5E0D0E0C8010E943311C616D70600
:10233000E806F90641F021960C5F1F4FC731D10521
:1023400091F7CFEFDFEFCE01DF91CF911F910F918A
:10235000FF90EF90DF90CF900895EF92FF920F9350
:102360001F93CF93DF93EC0183E0CC0FDD1F8A95A1
:10237000E1F790E29093020690930306909304068F
:10238000909305069093060690930706909308068F
:102390009093090610920A068E010A5B1F4F92E085
:1023A000E92E96E0F92EC25BDF4FC8010E9424108F
:1023B000882341F0F70181937F010F5F1F4F0C17B6
:1023C0001D0799F7DF91CF911F910F91FF90EF902B
:1023D00008951F93CF93DF93182FC091D105D0910B
:1023E000D205C830D10518F4CE010E94AD11CE013E
:1023F00008978230910510F40E94FA1085E08C9FB6
:10240000F0018D9FF00D1124EB56FE4FD081D1507D
:10241000C181C1506C2F8D2F0E94240B82E096E069
:102420000E940F0A113061F46091CB056C0F8D2F63
:102430000E94240B8FEFDF91CF911F910C94FF0925
:10244000DF91CF911F9108951F93CF93DF93C82FF2
:10245000D62F8091FB059091FF05913009F065C062
:10246000882309F412C18C2F0E94CD0D8091EA05BA
:10247000813029F50E94870A80E00E94D70B84E012
:102480000E94D70B88E00E94D70B80910006823013
:1024900031F08BEC0E941B0A81EA0E94FF098CE05C
:1024A0000E94D70B8FEC0E941B0A8091FA058130A5
:1024B000D1F580E0DF91CF911F910C94FF098091BD
:1024C0000206D0910306C0910406109105068D32D4
:1024D000E1F480E00E94D70BDD32D9F484E00E9461
:1024E000D70BCD32D9F488E00E94D70B809100063B
:1024F000823031F08BEC0E941B0A81EA0E94FF09B6
:102500006CE0812F0E942E0ACDCF60E00E942E0A3F
:10251000E3CF64E08D2F0E942E0AE3CF68E08C2F7A
:102520000E942E0AE3CF80E2C5CF8823A1F08C2F32
:102530000E94CD0D22E036E0F90101900020E9F77C
:102540009F012350364080ED821B0E941B0A82E0CF
:1025500096E00E940F0AD13059F48091EA0581304B
:10256000D1F40E94960D60EC85E193E00E94B70DD6
:102570008091E905813009F088C08091EA058130B9
:1025800009F483C08091FB05811111C0DF91CF91C7
:102590001F910C94960D8091E905833049F7809145
:1025A000FF05813029F381E00E948810E1CF60911E
:1025B000DB052C2F30E0611121C0F4E6CF9FC00174
:1025C00011246FEF70E00E945B2987E0869FE00195
:1025D000879FD00D1124CE0164E670E00E945B2934
:1025E0009B0190E080E041E082179307C4F4FC0176
:1025F000FF27EE5FF94F40830196F6CF8091FD05EE
:10260000281B310937FF03C031952195310944E674
:10261000429FC001439F900D112470E0D4CFC901A7
:1026200037FF02C090E080E0482F27303105B4F436
:1026300041E0480F9927FC01EE5FF94F55E05C9FA0
:10264000C0015D9F900D112464E670E00E945B293B
:102650008BEF289F600D11246D5F608382E02F5FF8
:102660003F4F273031053CF4E42FF0E0EE5FF94FA7
:1026700080834F5FF4CF1092090660EC82E096E011
:10268000DF91CF911F910C94220ADF91CF911F917E
:1026900008950F931F93CF93DF93CDB7DEB729979C
:1026A0000FB6F894DEBF0FBECDBF8091FF0581301D
:1026B00009F440C081E00E942F0B8091F905882326
:1026C000C9F110910401812F0E942610813061F41C
:1026D000812F110F990B0E94AD1110920A0660E82C
:1026E00082E096E00E94220A85E090E00E94241099
:1026F000182F8093030186E090E00E942410082F99
:102700008093F805812F0E942610811113C08091BB
:10271000F705811131C0812F110F990B0E94AD1166
:1027200010920A0668E080E00E94240B82E096E0A6
:102730000E940F0A61E08091FC050E9424128091A2
:10274000FB05882371F08091FF05813051F48FECF7
:102750000E941B0A8091FA058130D9F480E00E9422
:10276000FF0929960FB6F894DEBF0FBECDBFDF91EB
:10277000CF911F910F91089568E080E00E94240B93
:10278000BE016F5F7F4F802F0E942E10CE010196F9
:10279000CFCF80E2E4CF80911507882361F080914C
:1027A00017070E94EA038091F605813011F40E9418
:1027B00049131092150710921307109212070E94E6
:1027C000470460930E0770930F0780931007909350
:1027D000110708950F931F93CF93DF938C01EB01A3
:1027E0000E94CB130E94870A60E882ED94E00E9469
:1027F000220A68E8C8010E94220A60EC87ED94E092
:102800000E94220A68ECCE01DF91CF911F910F91B7
:102810000C94220A1092F6051092FA051092E20525
:102820001092E10510922D0510922C0560E081E1D7
:102830000E942E0360E080E10E942E038091F90542
:102840008150823048F580E00E94B50C0E94870AD2
:102850000E94CB1363E88EEB91E00E94B70D60E01D
:1028600085E692E00E94B70D60E273E080E090E0C0
:102870000E94150460E087E00E942E030E946F0B07
:102880000E94870A80911807813081F081E00E94C0
:10289000CD1082E00C94CD108091FB0581508330E7
:1028A000A8F661E080E00E94640DD0CF0895CF9338
:1028B000C62F0E94640D6C2F8091FC05CF910C9463
:1028C0002412CF93DF939091FB05992361F09091AF
:1028D000F605992341F09091FC05823039F420915E
:1028E000DC05921738F0DF91CF9108952091FD0516
:1028F0002917C8F7D62FC82F0E94CB139091EA054D
:102900008091FC059130C9F5C230C9F51092EA05F5
:1029100061E00E9424128091FC059091DC05D13089
:1029200071F4891748F4282F30E02F5F3F4F8F5FF5
:102930009217130609F064F49093FC050BC02091E4
:102940002E05692F621B770B86171706ACF7820FCF
:102950008093FC0560E08091FC05DF91CF910C94A1
:10296000571420912E05692F620F7727771F86173E
:10297000170611F30CF3821BEBCFC23061F290917A
:10298000FD05D13071F79817B8F6482F4150550B17
:10299000815094171506E4F2CFCF8091FB05882370
:1029A00031F10E94CB138091EA05811119C0809109
:1029B000DB058823E1F060E081E10E942E0360E006
:1029C00080E10E942E0361E08091FD050E94571472
:1029D00081E08093EA0561E08091FC050C9424126B
:1029E0001092EA0561E08091FC050C94571408955B
:1029F0000C944129CF938AE090E00E9424108093A8
:102A00002F0561E070E001C0660F8A95EAF7CFEF0D
:102A1000C60FC09301068BE090E00E9424108093C3
:102A200000068FE190E00E9424108093FD0580E273
:102A300090E00E942410C81730F18093DC0590913B
:102A4000FD058091DC05891778F41092FD0560E0A2
:102A50008FE190E00E94F814609101066093DC051C
:102A600080E290E00E94F8148091DC059091FD05D1
:102A7000891B990B97FF03C09195819591098093CC
:102A8000DB05CF910895C093DC056C2F80E290E0C8
:102A90000E94F814D4CFEF92FF920F931F93CF931D
:102AA000DF938B01005F1F4FEB017C01E61AF70AF1
:102AB000FE016491C7018C0F9D1F0E94F81421969E
:102AC000C017D107A9F7DF91CF911F910F91FF9008
:102AD000EF900895DF92EF92FF920F931F93CF93A1
:102AE000DF93E82E0091CF051091D005C8010E9418
:102AF0002410F82EC82FD0E0D093B105C093B005B4
:102B0000809117070E94EA030731110571F4F092D2
:102B100016078F2D0E94EA03C8014F97029708F00D
:102B20008AC08F2D0E94CD0D33C00831110519F4D4
:102B3000F0921707F1CF0E31110571F78091000661
:102B4000813029F09091FB05933009F043C080E378
:102B5000F0FC85E31F928F93D595C795DF93CF93B4
:102B600089EB94E09F938F9382E096E09F938F93FD
:102B70000E94222AEDB7FEB738960FB6F894FEBF32
:102B80000FBEEDBF6FEC74E082E096E00E94FA2980
:102B90008091D1059091D2052BE0289F8001299F3B
:102BA000100D1124015F1C4FF801F180DD24DA942F
:102BB000DF0CC081C1506D2D8C2F0E94240BD0E002
:102BC000F8011281D11708F0E2C080E20E94FF09EB
:102BD000DF5FF8CF823099F4DF93FF928CED94E0C1
:102BE0009F938F9382E096E09F938F930E94222A77
:102BF0000F900F900F900F900F900F90C3CFCE01BA
:102C00006AE070E00E945B299F938F937F936F939C
:102C100082EE94E09F938F9382E096E09F938F9350
:102C20000E94222AEDB7FEB738960FB6F894FEBF81
:102C30000FBEEDBFA7CF0B301105A1F466EB72E01C
:102C4000209729F0C130D10539F46FEA72E082E0B3
:102C500096E00E9423299CCF6AEA72E0229709F04D
:102C600097CFF5CF0131110581F4209719F466EA69
:102C700072E0EDCF6FE972E0C130D10541F368E950
:102C800072E0229709F084CFE2CFC801CC97089771
:102C900048F461E972E02097D1F26BE872E0219785
:102CA00031F7D5CF0231110569F4209701F363E8BC
:102CB00072E0C130D10559F26BE772E0229709F05A
:102CC00067CFC5CF065911090830110578F5E7E13E
:102CD000F5E020E135E040E351E38F2D90E0F0FE98
:102CE00023C0568395958795F82E31972E173F0769
:102CF000A1F787E195E010921E059F938F93DF93D4
:102D0000CF938AEE94E09F938F9382E096E09F9317
:102D10008F930E94222AEDB7FEB738960FB6F8942B
:102D2000FEBF0FBEEDBF34CF4683DCCF8091D1050F
:102D30009091D2052BE0289FF001299FF00D1124DE
:102D4000E15FFC4F8281813099F4DF93CF9387EE6E
:102D500094E09F938F9382E096E09F938F930E94DD
:102D6000222A0F900F900F900F900F900F9010CF7E
:102D7000823029F4DF93CF9382EF94E0EACF83305F
:102D800009F006CFDF93CF9387EF94E0E2CF6D2D6C
:102D90008C2F0E94240B82E096E00E940F0AF1E043
:102DA000EF1227C06091CB0561506F0D8C2F0E94F0
:102DB000240B8091D305823091F4C0E002E016E04C
:102DC000F80101900020E9F7CF0183509640C81721
:102DD000190678F48FEF0E94FF09CF5FF1CF8FEFD4
:102DE000DF91CF911F910F91FF90EF90DF900C94A6
:102DF000FF09DF91CF911F910F91FF90EF90DF902E
:102E000008950F931F93CF93C82F8091D105909170
:102E1000D2052BE0289FF001299FF00D1124E15FDE
:102E2000FC4F25813681C217130611F00CF0C22F1A
:102E30002BE0289FF001299FF00D1124E15FFC4F4A
:102E400083819481C81719060CF4C82F0091CF050F
:102E50001091D0050F31110531F48091DC058C17EC
:102E600048F4C82F07C000321105C1F48091FD0558
:102E7000C817B8F36C2FC8010E94F8148091CF05D1
:102E80009091D005479721F0809117070E94EA039F
:102E900080E0CF911F910F910C946A1507311105B5
:102EA00051F480911707C81710F0CFEFC80F8C2F7F
:102EB0000E94EA03DFCF08311105E1F68091160781
:102EC0008C17C0F2C1E0C80FD5CF0F931F93CF93DB
:102ED000DF93C82F0E94870A809117070E94EA0398
:102EE000C093C60526E0C29FF0011124EB57FD4FA9
:102EF000848190E090932B0580932A05858190E052
:102F00009093290580932805828190E09093A505F0
:102F10008093A405C381D0E08091A4059091A5057C
:102F2000C817D9070CF44EC00E9432068091D30511
:102F3000813009F03BC00091D1051091D205000FFE
:102F4000111F000F111F0B5F1E4FD80111966C91BE
:102F5000119761508C9181500E94240BD8011296D8
:102F6000ED91FC91FF27EE0FFF1FE354FD4F85917C
:102F70009491A2E0B6E082509640FC01EA0FFB1F5C
:102F8000E491ED93EE2321F0E6E0A331BE07A9F72B
:102F900082E096E00E940F0A8091A4059091A50519
:102FA00001969093A5058093A405B6CF823021F4B5
:102FB00080E00E946A15F0CF833071F780E00E94B4
:102FC000E911EACF80912A0590912B059093A505F0
:102FD0008093A4050E9432068091D3058230C1F40B
:102FE0001092CB0580E00E946A158091E705813040
:102FF00051F08091E805813031F40E94E402909311
:10300000DF058093DE05DF91CF911F910F91089529
:10301000833059F71092CB0580E00E94E911E5CF8B
:103020009091D305933011F40C94E911923011F47E
:103030000C946A1508950E9447046093D405709318
:10304000D5058093D6059093D7058091D805811139
:1030500007C081E08093D8058091D8050C941018A2
:103060001092D805F9CF0E9447046093D40570935D
:10307000D5058093D6059093D7051092D80580E0AA
:103080000C941018AF92BF92CF92DF92EF92FF9202
:103090000F931F93CF93DF9361E090E080E00E9455
:1030A000F814C1E0C093F6051092040160E084E0DA
:1030B00090E00E94F81487E080930301C093F80524
:1030C00067E085E090E00E94F8146091F80586E0E2
:1030D00090E00E94F8141092F70560E087E090E01D
:1030E0000E94F814C093000661E08BE090E00E941B
:1030F000F81486E080932E0566E08EE190E00E9451
:10310000F81488E080932F0568E08AE090E00E9440
:10311000F81420912F0581E090E001C0880F2A95D6
:10312000EAF78150809301061092FD0560E08FE17F
:1031300090E00E94F814609101066093DC0580E243
:1031400090E00E94F81460E08EE090E00E94F81495
:1031500084E68093160764E687E190E00E94F81405
:103160008FEF809317076FEF88E190E00E94F814CB
:10317000809117070E94EA0383E08093180763E0B9
:1031800089E190E00E94F814C093E70561E08CE0CB
:1031900090E00E94F814C093E80561E08DE090E0B3
:1031A0000E94F814C093FB0561E081E190E00E9469
:1031B000F8148FE38093A6058EE38093A7058DE333
:1031C0008093A8058CE38093A9056FE386E990E0DE
:1031D0000E94F8146091A70587E990E00E94F81416
:1031E0006091A80588E990E00E94F8146091A90513
:1031F00089E990E00E94F814C093F90561E082E14A
:1032000090E00E94F8148BE38093AA058AE38093F0
:10321000AB0589E38093AC0588E38093AD056BE350
:103220008AE990E00E94F8146091AB058BE990E088
:103230000E94F8146091AC058CE990E00E94F814AB
:103240006091AD058DE990E00E94F814C093E90506
:1032500061E08AE190E00E94F81460E083E190E090
:103260000E94F81460E084E190E00E94F8146CE39E
:1032700088E090E00E94F81467E089E090E00E9406
:10328000F814EBEFF2E06591749184EF91E00E9405
:103290004B15EDEFF2E06591749184E092E00E94AD
:1032A0004B1506E410E0C2E3D0E09CEFE92E94E079
:1032B000F92E60E0CE010E94F814CE010A962C2F60
:1032C0002253243008F042C061E00E94F8146BE8F9
:1032D00072E082E096E00E942329CE0101979F933D
:1032E0008F9382E096E09F938F93FF92EF929F934C
:1032F0008F930E94222A82E0C82E86E0D82E5801A1
:1033000088E0A80EB11CEDB7FEB738960FB6F8945A
:10331000FEBF0FBEEDBFF60161916F01C8010E94B3
:10332000F8140F5F1F4F0A151B05A9F72196CA3322
:10333000D10509F0BECFDF91CF911F910F91FF9082
:10334000EF90DF90CF90BF90AF90089560E00E9423
:10335000F81461E972E0BDCFCF92DF92EF92FF9255
:103360000F931F93CF93DF930E94870A8FEF0E94E2
:10337000EA03C4E0D0E060E882E492E00E94B70D86
:10338000219779F06CE271E080E090E00E941504F2
:103390000E94870A66E470E080E090E00E941504D5
:1033A000EACF68EE73E080E090E00E9415040E948E
:1033B000870A60E881E392E00E94B70D0E94B20F95
:1033C000813009F08BC082E00E942F0B60EC80E21C
:1033D00092E00E94B70D0E94421868EE73E080E010
:1033E00090E00E9415040E94870A60E88CE092E059
:1033F0000E94B70D8FE30E94FF090E94B20F813037
:1034000009F075C00E9438020E94870A60E88CE0CB
:1034100092E00E94B70D8AE30E94FF0960ED77E019
:1034200080E090E00E94150404EC11E0C8ECD0E0CC
:1034300082E00E942F0BF8018591949161EC0E942B
:10344000B70DEE24E394F12C0E94B6066093C705F5
:103450007093C8058093C9059093CA05672B682BA4
:10346000692B09F09CC00E94380281E0E8126BC011
:1034700082E00E942F0B66E970E080E090E00E94FD
:103480001504E12C0E94C50E813009F06CC082E069
:103490000E942F0B61EC8FEF91E00E94B70D64EF5B
:1034A00071E080E090E00E941504109212051092E5
:1034B0001305109214051092150568EE73E080E074
:1034C00090E00E9415040E9438020E5F1F4F249660
:1034D000C43281E0D80709F0ABCF17C082E00E9468
:1034E0002F0B60EC85E192E00E94B70D76CF82E071
:1034F0000E942F0B60EC85E192E00E94B70D68EE10
:1035000073E080E090E00E94150481E08093FE0566
:103510000E9465110E94870A0E94CB1360E884EF25
:1035200091E00E94B70D64EF71E080E090E00E94AE
:103530001504DF91CF911F910F91FF90EF90DF90D5
:10354000CF900C94870AF394F8018591949161ECE3
:103550000E94B70D6CE271E080E090E00E941504DB
:10356000EE24E3948FCF87E28F1508F06DCF81E0D2
:103570008093FE050E94870A60EC84EF91E00E9430
:10358000B70D68EE73E080E090E0DF91CF911F917E
:103590000F91FF90EF90DF90CF900C94150460ECAA
:1035A00082E095E00E94220AF8018591949161ECF5
:1035B0000E94B70DC090C705D090C805E090C9051E
:1035C000F090CA056C2DCE010E94F81499278F2D1A
:1035D0007E2D6D2DCE0101960E94F814B70188272B
:1035E0009927CE0102960E94F8146F2D772788271D
:1035F0009927CE0103960E94F81457CF81E090E0FE
:103600000E94FA104CE050E064E075E082E096E041
:103610000E94052A892BA9F480910E06803389F433
:1036200080910F068E3269F48091100680538A30A3
:1036300040F4EDEFF2E06591749184E092E00E9435
:103640004B150E94FA148EE190E00E9424108093A2
:103650002E0589E090E00E9424108F3128F06EE161
:1036600089E090E00E94F81484E090E00E94241029
:1036700088300CF07FC0809304011092FC0580918B
:10368000FD0581118093FC05109203011092F8054D
:103690001092F705109200011092160581E190E05A
:1036A0000E942410833008F068C08093FB0582E1FB
:1036B00090E00E942410833008F068C08093F905E0
:1036C0008CE090E00E9424108093E7058DE090E06C
:1036D0000E9424108093E80581E08093E00560E07B
:1036E00081E10E942E0360E080E10E942E0386E9C2
:1036F00090E00E9424108093A60587E990E00E9444
:1037000024108093A70588E990E00E9424108093FC
:10371000A80589E990E00E9424108093A9058AE910
:1037200090E00E9424108093AA058BE990E00E940B
:1037300024108093AB058CE990E00E9424108093C4
:10374000AC058DE990E00E9424108093AD0587E1DF
:1037500090E00E9424108093160788E190E00E9478
:1037600024108093170789E190E00E942410809331
:10377000180708951092040180CF81E08093FB0523
:1037800061E081E190E00E94F81491CF81E08093A4
:10379000F90561E082E190E00E94F81491CF8091F8
:1037A000CF059091D0056091B0058A30910551F414
:1037B00060932F058AE090E00E94F8140E94FA14AA
:1037C0000C94FE1A8B309105B9F7609300068BE0DC
:1037D00090E0F2CF0E9465110E94FE1A1092FA0545
:1037E0001092E2051092E10510922D0510922C0521
:1037F00081E08093FE058091E805813031F40E94DC
:10380000E4029093DF058093DE050895DF92EF9246
:10381000FF920F931F93CF93DF93D82E0E94870AB6
:103820006091170770E080911C070E948D030E9431
:10383000870A0E9449130E94CB1360E087E00E9430
:103840002E038091F9058150823008F073C080E02A
:103850000E94B50C61E087E00E942E030E94870A57
:103860000E94CB1363E88EEB91E00E94B70D60E0FD
:103870008BE692E00E94B70D60E273E080E090E09A
:103880000E9415040E94870A63E884EB91E00E947D
:10389000B70D89E090E00E942410C82FD0E002EF1D
:1038A00014E082E0E82E86E0F82E2097E1F0DF9326
:1038B000CF931F930F93FF92EF920E94222A67ECFF
:1038C00082E096E00E94220A0E94C50E21970F9086
:1038D0000F900F900F900F900F908130B1F50E94D4
:1038E000AC190E94EA1B8091E705813051F080916C
:1038F000E805813031F40E94E4029093DF05809363
:10390000DE05DD2009F444C00E94870AC091160735
:10391000D0E0809117078C171D06F1F0ECF08C2F8A
:103920000E94EA0362E070E080E090E00E941504EB
:103930002196EFCF8091FB058150833008F08ACF2C
:1039400061E080E00E94640D85CF68EE73E080E066
:1039500090E00E941504A9CF10921507109213074A
:10396000109212070E94470460930E0770930F078E
:10397000809310079093110781E00E94CD1082E0A0
:103980000E94CD100E94B20F813011F40E94AC1938
:103990000E94EA1B0E94870A1092FC058091FB0599
:1039A0008150833020F461E080E00E94640D8091BA
:1039B000E705813031F58FEF9FEF9093DF0580931E
:1039C000DE0564E670E080E090E00E94150482E08D
:1039D0008093E0056AEF70E080E090E00E941504BB
:1039E0008091DD058093FC0561E00E94640D1092DA
:1039F0000401DF91CF911F910F91FF90EF90DF9025
:103A000008958111F4CF8FEF9FEF9093DF0580939E
:103A1000DE0584E6E7CFEF92FF920F931F93CF93DB
:103A2000DF93CDB7DEB762970FB6F894DEBF0FBE57
:103A3000CDBF9091F605992309F462C0182F0E941A
:103A4000CB138091F905882309F45AC048E050E06F
:103A500060E270E0CE0101960E94F329198648E0E9
:103A600050E060E270E0CE010A960E94F3291A8AC3
:103A7000812F0E942610811168C08091F705811165
:103A80004CC080910301082E000C990BE12EF12C03
:103A90008E159F05A9F10091FF05013051F40E9498
:103AA000AD1148E050E062E076E0CE0101960E9460
:103AB000132A812F0E940E0D0130D1F4C7010E94FC
:103AC000AD1148E050E062E076E0CE010A960E9437
:103AD000132ABE01665F7F4FCE0101960E94EA1352
:103AE00068EE73E080E090E00E9415040E94870A6F
:103AF0000E94491360E971E080E090E00E941504A3
:103B000062960FB6F894DEBF0FBECDBFDF91CF91A6
:103B10001F910F91FF90EF9008950091FF050130E4
:103B200039F4BE016F5F7F4F8091F8050E942E101F
:103B3000812F0E940E0D0130D9F6BE01665F7F4FC6
:103B40008091F8050E942E10C4CF813099F68091A3
:103B50000401082E000C990BE12EF12C8E159F0507
:103B600079F22091FF052130E1F40E94AD1148E087
:103B700050E062E076E0CE0101960E94132AC70170
:103B80000E94AD1148E050E062E076E0CE010A9676
:103B90000E94132ABE01665F7F4FCE0101960E94EC
:103BA000EA130E94B406812F0E943B0D8091FF050D
:103BB000813009F09DCF94CFCF92DF92EF92FF92A8
:103BC000CF93DF93C091F605C130E1F40E94C50E9A
:103BD0008823B9F1C4E1D0E00E94C50E882309F41E
:103BE00072C264E670E080E090E00E9415042197C4
:103BF00099F70E940A1468EE73E080E090E00E945A
:103C0000150417C00E94C50E8823D9F066E970E03C
:103C100080E090E00E94150481E08093F6050E9408
:103C2000061C809104010E943B0D0E9419110E9404
:103C30004913DF91CF91FF90EF90DF90CF900C94DC
:103C400038020E94B6066B017C01C092C705D09273
:103C5000C805E092C905F092CA05C114D104E10477
:103C6000F10409F439C28091BA059091BB05A09185
:103C7000BC05B091BD05C816D906EA06FB0629F0B9
:103C80000E947F118530910541F4CC2309F424C2B0
:103C90000E94B40661E082E02BC04091BE055091C5
:103CA000BF056091C0057091C105C416D506E60632
:103CB000F706B9F086309105A1F04091B205509118
:103CC000B3056091B4057091B505C416D506E60636
:103CD000F706C1F4CC2309F4FFC10E94B40662E0E8
:103CE000DACFCC2309F4F8C10E94B40661E081E088
:103CF0000E94611464E170E080E090E00E9415048D
:103D00002D9897CF4091B6055091B7056091B805B1
:103D10007091B905C416D506E606F70639F4CC232A
:103D200009F4DAC10E94B40662E0E1CF4091C20515
:103D30005091C3056091C4057091C505C416D506A0
:103D4000E606F70671F4CC2309F4C6C10E94CB1332
:103D50000E94B4060E94CD1460E971E080E090E01A
:103D6000CDCF8C30910521F480E00E940B1DC8CF8F
:103D70008D30910511F481E0F8CF8E30910511F46A
:103D800082E0F3CF8F30910511F483E0EECF8031E4
:103D9000910511F484E0E9CF8131910511F485E0BA
:103DA000E4CF8231910511F486E0DFCF83319105B4
:103DB00011F487E0DACF8830910589F5CC2309F436
:103DC0008BC10E94B4060E94CB1382E08093FE0553
:103DD00060E081E10E942E0360E080E10E942E03FA
:103DE0006EEE72E080E090E00E94150464E670E000
:103DF00080E090E00E9415040E9438028091E8055E
:103E0000813031F40E94E4029093DF058093DE0557
:103E10000E94870A8091C6050E94651771CF87307E
:103E20009105E1F40E94CB130E94B4068091F6053F
:103E300081110FC081E08093F60580E00E94061C8E
:103E4000809104010E943B0D0E9419110E944913A8
:103E500083CF1092F6050E940A147ECF8631910519
:103E6000E1F5CC2309F438C10E94CB130E94B406BB
:103E70008FE492E00E9499228091F705811117C08A
:103E800081E08093F70560E08BE692E00E94B70D39
:103E900068EE73E080E090E00E9415046091F80500
:103EA000809103010E94F30C0E94870A47C0109280
:103EB000F70560E085E692E00E94B70D68EE73E0DA
:103EC00080E090E00E94150480910001809303013E
:103ED000609116056093F805E5CF8930910509F0EA
:103EE0004BC0CC2309F4F8C00E94CB130E94B40647
:103EF00089E592E00E9499228091FA05813009F5C6
:103F00001092FA051092E2051092E1051092E30575
:103F10001092E4051092E5051092E60560E085E652
:103F200092E00E94B70D68EE73E080E090E00E949E
:103F300015048091FF05813009F4B6CF0E94491322
:103F4000DFCE81E08093FA051092E2051092E10540
:103F50008FEF9FEF90932D0580932C050E944704CF
:103F60006093E3057093E4058093E5059093E6057F
:103F700060E08BE692E0D5CF8B30910509F04AC026
:103F8000CC2309F4A9C00E94CB130E94B406C091AF
:103F9000E905C13029F58091FB05882389F082E08D
:103FA0008093E90562E08AE190E00E94F814C093F2
:103FB000FF050E94870A0E943F0B0E94870A46CF96
:103FC00083E08093E90563E08AE190E00E94F814C1
:103FD0001092FF0561E08091FC050E942412BCCE86
:103FE000C23079F483E08093E90563E08AE190E0F0
:103FF0000E94F8141092FF050E94870A0E946F0B1E
:10400000DCCFC350C23008F0A7CE81E08093E90531
:1040100061E0DACF0A9709F073CE0E94CB130E94B9
:10402000B406809118078130F9F483E08093180773
:1040300081E792E00E94992260E08BE692E00E9484
:10404000B70D6CEB72E080E090E00E941504809167
:10405000F60581116ECF0E94870A81E00E94CD1083
:1040600082E00E94CD104CCE8230F9F481E0809342
:10407000180781E792E00E94992260E085E692E0CD
:104080000E94B70D6CEB72E080E090E00E94150496
:104090000E94870A8091F605813021F40E9419114F
:1040A0000E9449130E948A0A2BCE833009F028CE41
:1040B00082E08093180781E792E00E94992260E0F5
:1040C0008FE592E0BCCF0E94CB130E94CD146AEF23
:1040D00070E080E090E093CDDF91CF91FF90EF9082
:1040E000DF90CF9008951F920F920FB60F92112478
:1040F0002F933F938F939F93AF93BF938091960598
:1041000090919705A0919805B091990530919505EA
:1041100023E0230F2D3758F50196A11DB11D2093E3
:1041200095058093960590939705A0939805B09375
:10413000990580919A0590919B05A0919C05B0915D
:104140009D050196A11DB11D80939A0590939B0535
:10415000A0939C05B0939D05BF91AF919F918F91C6
:104160003F912F910F900FBE0F901F90189526E84A
:10417000230F0296A11DB11DD2CF1F920F920FB631
:104180000F9211242F933F934F935F936F937F93DD
:104190008F939F93AF93BF93EF93FF938091B90059
:1041A000887F803609F44AC0F0F5883209F4A7C048
:1041B00018F5803109F49BC0B8F4882309F4F9C0DC
:1041C000883009F494C0FF91EF91BF91AF919F9116
:1041D0008F917F916F915F914F913F912F910F90B0
:1041E0000FBE0F901F901895883109F488C0803257
:1041F00051F78093380614C0803409F49DC040F410
:104200008033B9F38833F9F68093380685ECB0C073
:10421000803509F485C0883509F496C0883499F64C
:104220000E94EC0FD0CF883909F48CC038F588375C
:1042300029F050F4883611F0803729F683E0809316
:104240003A061092940557C0883809F47BC080392B
:1042500019F0803809F0B7CF80919405803208F0CA
:1042600071C0E091940581E08E0F80939405809158
:10427000BB00F0E0EC58FA4F80833DC0803B39F042
:10428000E0F4803A09F479C0883A09F09CCF84E0E0
:1042900080933A061092730510927205E091A00582
:1042A000F091A10509958091720581110FC081E0FF
:1042B000809372051092520509C0803C09F4A6CF84
:1042C000883C09F4A3CF883B09F07DCFE0917305CA
:1042D00081E08E0F80937305F0E0EE5AFA4F8081F3
:1042E0008093BB00909173058091720529C08091E5
:1042F00015068093BB0085EC8093BC0064CF909141
:10430000370680913606981758F5E091370681E018
:104310008E0F80933706F0E0EA5EF94F8081E9CF97
:10432000E091370681E08E0F809337068091BB00C5
:10433000F0E0EA5EF94F808390913706809136066F
:104340009817C8F285E8D8CFE091370681E08E0F44
:10435000809337068091BB00F0E0EA5EF94F8083DE
:104360008091390681115CCF81E08093140684EA44
:104370008093BC0010923A0626CF85EC8093BC0057
:1043800010923A0680919405803230F4E0919405C1
:10439000F0E0EC58FA4F10826091940570E0E091E3
:1043A0009E05F0919F0584E795E00995109294058C
:1043B0000ACF1092380634CF1F920F920FB60F9289
:1043C00011242F933F934F935F936F937F938F931A
:1043D0009F93AF93BF93CF93DF93EF93FF9380911E
:1043E000130681113DC081EA8093B20020917006CE
:1043F00030E0F901EA5AFC4F8491F901EE5BFC4F81
:10440000D491F901E25DFC4FC491CC2379F0811184
:104410000E940503EC2FF0E0EE0FFF1FE655FE4F64
:10442000A591B491EC91ED2381E009F480E0209115
:104430007306309174062F5F3F4F309374062093BC
:10444000730690910D079C3418F095E090937106D7
:1044500090917106933009F445C0A8F49230D9F0D8
:10446000FF91EF91DF91CF91BF91AF919F918F918C
:104470007F916F915F914F913F912F910F900FBE60
:104480000F901F901895943009F447C0953041F76C
:10449000882351F0E5CF8111E3CF8091730690918D
:1044A00074068436910528F41092740610927306EF
:1044B000D7CF10920D07E0910D0781E08E0F80930A
:1044C0000D07F0E08091730690917406EE0FFF1FC8
:1044D000E059F94F96838583109274061092730603
:1044E00083E018C0813009F0BBCFE0910D078E0F3B
:1044F00080930D07F0E08091730690917406EE0FA3
:10450000FF1FE059F94F968385831092740610922D
:10451000730684E080937106A3CF882361F28091B3
:104520007306909174068536910508F499CF85E05D
:10453000F1CFCF93DF93EC010E94870A60E8CE01B0
:10454000DF91CF910C94B70DE4E6F6E0138212826E
:1045500088EE93E0A0E0B0E084839583A683B783E0
:1045600086E894E091838083E0E7F6E088E080834A
:104570001282EEE0F7E082E0848790E1958797E28F
:10458000938799E096878287178210821182128220
:10459000138215821482168261E089E00C945C0318
:1045A000789484B5826084BD84B5816084BD85B50E
:1045B000826085BD85B5816085BD80916E0081601A
:1045C00080936E00109281008091810082608093C0
:1045D00081008091810081608093810080918000C2
:1045E0008160809380008091B10084608093B100ED
:1045F0008091B00081608093B00080917A008460E7
:1046000080937A0080917A00826080937A00809112
:104610007A00816080937A0080917A00806880932C
:104620007A001092C1001092A3051092A205109278
:104630004106109263060E947A0483E093E090930F
:10464000A1058093A00584E093E090939F0580935B
:104650009E058091FB05833008F066C08091F905C6
:10466000823008F061C0CFE3D1E0D0934006C09320
:104670006206109241061092630660E084E696E0BE
:104680000E94000681E00E94B904C150C73369F757
:10469000C7E2D1E0D0934006C09362061092410673
:1046A0001092630660E084E696E00E94000681E0D6
:1046B0000E94B904C150CF3169F7E090AA0540E0EB
:1046C00060E08E2D0E94A009F090AB054FEF60E0F6
:1046D0008F2D0E94A0090091AC0540E060E0802F82
:1046E0000E94A0091091AD054FEF60E0812F0E945C
:1046F000A009CBECD9E3CE010197F1F740E060E0EF
:104700008E2D0E94A00940E060E08F2D0E94A0093C
:1047100040E060E0802F0E94A00940E060E0812F2F
:104720000E94A0092197F1F761E087E00E945C03F5
:1047300060E087E00E942E0381E090E00E94241058
:10474000823F39F00E94421862EF81E090E00E94BF
:10475000F81460E081E00E945C0361E080E10E9467
:104760005C0361E081E10E945C0360E080E10E9403
:104770002E0360E081E10E942E0360E08DE00E9444
:104780002E030E94EA1B0E94870A80E680931E0780
:1047900010921D074CE065E0809119070E94A00966
:1047A00062E370E080E090E00E94150440911E07F3
:1047B00060E0809119070E94A00962E370E080E048
:1047C00090E00E94150440911E0766E08091190751
:1047D0000E94A00962E370E080E090E00E9415046E
:1047E00083E00E94B80965E070E080E090E00E94FC
:1047F000150483E00E94B8098BE891E00197F1F776
:1048000083E00E94B80965E070E080E090E00E94DB
:10481000150482E00E94B80988E20E94E6098CE053
:104820000E94E6098BEE90E00197F1F781E00E948B
:104830001B0A109213060E946F0B89E190E00E9400
:1048400024108093180787E190E00E942410809341
:10485000160788E190E00E9424108093170783E1F7
:1048600090E00E9424108093C60584E190E00E94AD
:10487000241090E09093A5058093A4051092CB0599
:1048800080911306811124C01092B0008091B10074
:104890008B7F8093B1008091B10082608093B100E2
:1048A0008091B1008E7F8093B10080917000816013
:1048B0008093700081EA8093B200789482E08093C4
:1048C000710610920D078091700660E00E945C03F3
:1048D0008091F6058130E9F40E94061C8091040164
:1048E0000E943B0D0E9419110E944913812C44E043
:1048F000942EA12CB12C12E066246A94762C0BE045
:104900008091F60581111BC00E94DC1D0E94A30A44
:10491000EBC00E94870A80911807813039F36091BB
:10492000170770E080911C070E948D0381E00E94B0
:10493000CD1082E00E94CD100E94CB13D7CF809182
:10494000FE05823009F003C30E9432068091D8052B
:104950008111E1C00E9447046B017C012090D405C5
:104960003090D5054090D6055090D705C214D30499
:10497000E404F50409F4C0C00E94470462197309F5
:10498000840995096C3271408105910510F00E94EF
:104990001B188091E805813009F070C00E94E40284
:1049A000DC018091DE059091DF05FD01E81BF90B2C
:1049B000CF01F7FF03C091958195910904970CF4FD
:1049C0005DC07092020160920101B093DF05A09377
:1049D000DE058091D305823009F0CCC08091D105ED
:1049E0009091D205089FF001099FF00D1124E15F1D
:1049F000FC4FC380D4808091CF059091D0054F9714
:104A00004091010650E0029710F0458156810D2C2F
:104A1000000CEE08FF08052E000C660B770B9A01C0
:104A2000AB012C193D094E095F092F5F3F4F4F4FD6
:104A30005F4F0E949529A50194010E946F29C20E23
:104A4000D31EE41EF51ED092CE05C092CD058091F6
:104A5000CD059091CE05019689F00E943318809182
:104A6000D305823009F0AAC08091CD050E940117BC
:104A700062E370E080E090E00E9415040E94B606B8
:104A80006B017C01C092C705D092C805E092C905B0
:104A9000F092CA05C114D104E104F10429F10E9485
:104AA0007F118630910509F098C08091D30582303E
:104AB00011F40E94CF1B0E943318E091C60526E036
:104AC0002E9FF0011124EB57FD4F81818093C60585
:104AD0000E9465170E941B1860E570E080E090E07E
:104AE0000E9415040E943802E0E0F0E0EF2B09F488
:104AF00007CF0E94000003CF0E944704C61AD70ABE
:104B0000E80AF90A3CE2C31631E0D306E104F104F5
:104B100008F03DCF3ECF813009F03BCF0E944704E3
:104B20006B017C012090D4053090D5054090D605CE
:104B30005090D705C214D304E404F50469F00E9430
:104B400047046219730984099509683C7105810558
:104B5000910508F01CCF1DCF0E944704C61AD70A42
:104B6000E80AF90A88ECC816D104E104F10408F057
:104B70000ECF0FCF833009F06ACFC091CC052AE168
:104B800030E00E948E29A50194010E946F29C11175
:104B900009C02F593F4F4F4F5F4F3093CE052093A1
:104BA000CD0555CFC13029F42F5B3F4F4F4F5F4F9D
:104BB000F4CF205E3F4F4F4F5F4FEFCF833009F070
:104BC00057CFE091CB05F0E0EE5FF94F8091CD0536
:104BD000808380E00E94E9114BCF8530910591F4EC
:104BE0008091D305823011F40E94CF1B0E943318AC
:104BF000E091C60536E03E9FF0011124EB57FD4FD2
:104C0000808164CF8631910589F58091D305833009
:104C100009F068CF8091CC0581111BC081E08093A1
:104C2000CC0561E48091CB0590E0FC01EE5FF94F8B
:104C300060832091CF053091D005820F931F0E9491
:104C4000F81480E00E94E91168EC70E080E090E0E8
:104C500047CF813021F41093CC0561E2E3CF60E2CD
:104C6000823001F71092CC0561E6DCCF4091C2059D
:104C70005091C3056091C4057091C505C416D50651
:104C8000E606F70609F040C08091D305823029F589
:104C90008091CF059091D005809781F48091010695
:104CA00090E09093B1058093B0058091B0050E948B
:104CB000011766E970E080E090E012CF2091D10505
:104CC0003091D205029FC001039F900D1124815F96
:104CD0009C4FFC0187819085E4CF833051F7809110
:104CE000CB0590E0FC01EE5FF94F20E2208320919C
:104CF000CF053091D00560E2820F931F0E94F81417
:104D000080E00E94E911D5CF4091BE055091BF05CA
:104D10006091C0057091C105C416D506E606F70678
:104D200099F50E9433188091D305823089F40E944E
:104D3000CF1B0E9477060E9432068091D3058230F5
:104D4000B9F41092CB058091D8050E946A1509C06C
:104D5000833039F48091CB05882359F381508093B7
:104D6000CB050E941B1868E770E080E090E0B8CEA9
:104D70008330B9F70E948F0681508093CB058091D4
:104D8000D8050E94E911EDCF4091BA055091BB05BD
:104D90006091BC057091BD05C416D506E606F70600
:104DA00021F50E9433188091D305823081F40E944E
:104DB000CF1B0E945F060E9432068091D30582308D
:104DC00009F4BFCF833069F61092CB05D8CF83307A
:104DD00041F6C091CB050E948F060197C8171906AE
:104DE00044F7CF5FC093CB05BCCF4091B60550913F
:104DF000B7056091B8057091B905C416D506E606E9
:104E0000F70609F047C00E9433188091D30582301D
:104E1000F9F48091B0059091B1054091D105509180
:104E2000D205049F9001059F300D1124215F3C4F56
:104E3000F90123813481281739072CF401979093C5
:104E4000B1058093B0058091B0050E9401171BC089
:104E50008330C9F48091CB0590E0FC01EE5FF94FFF
:104E600060816150603208F440C06E3788F460831E
:104E70002091CF053091D005820F931F0E94F81426
:104E800080E00E94E91168E270E080E090E028CEC6
:104E900060E2EDCF4091B2055091B3056091B40549
:104EA0007091B505C416D506E606F70601F50E9411
:104EB00033188091D305823051F48091B0059091E0
:104EC000B10501969093B1058093B005BECF8330B4
:104ED000D1F68091CB0590E0FC01EE5FF94F608147
:104EE0006F5F6E37A8F6603210F66DE7C0CF089797
:104EF00009F0F8CD8091D305823011F40E94CF1BC8
:104F000081E08093FE058091E705813039F4F3E07C
:104F1000F093E0057092DF056092DE050E94870A3B
:104F2000809117070E94EA038091FF05813061F4A8
:104F30000E943F0B60E08091FC050E94571464EFD3
:104F400071E080E090E0CCCD0E944913F8CF8091D1
:104F5000FA05813009F04BC00E944704C090E30578
:104F6000D090E405E090E505F090E6056C157D0530
:104F70008E059F05E1F06C197D098E099F0961334B
:104F800075478105910598F08091E1059091E205C2
:104F900001969093E2058093E1050E944704609397
:104FA000E3057093E4058093E5059093E60588E0BA
:104FB00090E00E94241090E0880F991F2091E10555
:104FC0003091E2052817390794F00E94870A60E8BB
:104FD0008AE693E00E94B70D68EB7BE080E090E00A
:104FE0000E9415040E940A1481E08093FE058091BE
:104FF000EA05813059F08091E905833039F48091D8
:10500000FF05813019F080E00E9488108091E8054A
:10501000813009F056C08091F605813009F051C009
:105020008091E0058150823008F04BC00E94E4027C
:10503000EC018091DE059091DF05FE01E81BF90B84
:10504000CF01F7FF03C09195819591090497CCF1A9
:105050005090FC05C090FD05D12CF12CE12C209145
:10506000DC0530E050E040E02C193D094E095F09B5
:105070002F5F3F4F4F4F5F4FDE010E949529A501E3
:1050800094010E946F29C20ED31EE41EF51E5C140B
:10509000C1F00E94CB13C092FC055C1480F5809196
:1050A000EA05813061F51092EA0561E08C2D0E94DD
:1050B00057148091FC058093DD05D093DF05C093E4
:1050C000DE058091E705813009F01ECC8091F60560
:1050D000882309F419CC8091DB05882309F414CCCA
:1050E0008091E0058230C1F160F4813009F00CCC90
:1050F0001093E0058091FC058093DD0505CC60E010
:10510000D5CF8330D9F1843009F0FECB0E94CB1388
:1051100064E170E080E090E00E9415040E94E402E7
:105120002091DE053091DF058217930709F086C0D4
:105130002091D9053091DA052F5F3F4F3093DA0582
:105140002093D9052530310514F01093E005909394
:10515000DF058093DE05D8CBC091FC058091DD058D
:10516000C81749F0F3E0F093E0050E94E402909341
:10517000DF058093DE05C093DD05C6CB0E94CB130F
:105180001092DA051092D905C090FD05D12CF12CB2
:10519000E12C6091FC0570E090E080E06C197D09E5
:1051A0008E099F092AE0660F771F881F991F2A958D
:1051B000D1F72091DC0530E050E040E02C193D09AA
:1051C0004E095F092F5F3F4F4F4F5F4F0E946F297E
:1051D0006901E9010E94E402C81AD90A28E0C20E56
:1051E000D11C31E1C316D10490F460E081E10E944A
:1051F0002E0360E080E10E942E0384E08093E005AE
:1052000065E070E080E090E00E9415047DCB8C1793
:105210009D074CF460E081E10E942E0361E080E193
:105220000E942E0371CBC817D9070CF06DCB60E03C
:1052300080E10E942E0361E081E1F2CF1092DA0555
:105240001092D90584CFFB01DC0105900D9200205E
:10525000E1F70895FB01DC014150504048F0059012
:105260000D920020C9F701C01D9241505040E0F757
:105270000895F999FECF92BD81BDF89A992780B51E
:105280000895262FF999FECF1FBA92BD81BD20BD8A
:105290000FB6F894FA9AF99A0FBE01960895991BE1
:1052A00079E004C0991F961708F0961B881F7A951D
:1052B000C9F78095089597FB072E16F4009407D040
:1052C00077FD09D00E949D2907FC05D03EF49095FA
:1052D00081959F4F0895709561957F4F0895052E94
:1052E00097FB1EF400940E94862957FD07D00E9468
:1052F000B12907FC03D04EF40C94862950954095B3
:10530000309521953F4F4F4F5F4F08959095809571
:10531000709561957F4F8F4F9F4F08950E94D929B7
:10532000B7FF0895821B930B0895B7FF0C94E829EB
:105330000E94E829821B930B0895AA1BBB1B51E115
:1053400007C0AA1FBB1FA617B70710F0A61BB70BF5
:10535000881F991F5A95A9F780959095BC01CD019A
:105360000895A1E21A2EAA1BBB1BFD010DC0AA1FA6
:10537000BB1FEE1FFF1FA217B307E407F50720F0BE
:10538000A21BB30BE40BF50B661F771F881F991F39
:105390001A9469F760957095809590959B01AC0182
:1053A000BD01CF010895EE0FFF1F0590F491E02D90
:1053B0000994A29FB001B39FC001A39F700D811DEE
:1053C0001124911DB29F700D811D1124911D08950E
:1053D0000E94D929A59F900DB49F900DA49F800D88
:1053E000911D11240895DC0101C06D93415050407E
:1053F000E0F70895FB01DC010D900020E9F711971B
:1054000001900D920020E1F70895FB01DC0141506D
:10541000504030F08D910190801919F40020B9F7B7
:10542000881B990B0895FB01DC014150504048F066
:1054300001900D920020C9F701C01D9241505040CB
:10544000E0F70895AEE0B0E0E8E2FAE20C94D12C87
:105450000D891E8986E08C831A8309838FEF9FE76D
:105460009E838D83AE01475E5F4F6F89788DCE013D
:1054700001960E94452A2F813885020F131FF801DB
:1054800010822E96E4E00C94ED2CABE0B0E0EBE45F
:10549000FAE20C94C32C7C013B018A01FC011782C7
:1054A0001682838181FFC8C1CE0101965C01F7019C
:1054B0009381F30193FD859193FF81913F018823AF
:1054C00009F453C1853239F493FD859193FF81919D
:1054D0003F01853229F4B70190E00E94352CE7CFD7
:1054E000912C212C312CFFE1F31538F08B3211F186
:1054F00090F4803209F1833229F137FC3CC020ED71
:10550000280F2A3050F536FE20C08AE0989E200DE4
:105510001124922E06C08D3291F0803371F7689479
:1055200030F8F30193FD859193FF81913F01811143
:10553000DACF21C0689431F8689432F8F2CF6894D9
:1055400033F8EFCF689434F8ECCFEAE02E9E200DCC
:105550001124222E689435F8E4CF8E3229F436FCDB
:1055600004C1689436F8DDCF8C3619F4689437F8A6
:10557000D8CF8836B1F2982F9F7D95549330E0F0C4
:105580008336A1F18337C1F1833509F063C0280167
:10559000F2E04F0E511CF801C080D180692D70E0FF
:1055A00036FC02C06FEF7FEFC6010E941F2C4C013A
:1055B000689437F882010AC00C5F1F4FFFE3F9833C
:1055C00088248394912C6501E89437F833FE2DC02C
:1055D000522C8114910471F5552009F468CFB7015C
:1055E00080E290E00E94352C5A94F6CFF801808139
:1055F00089830E5F1F4FE4CF2801F2E04F0E511C4C
:10560000F801C080D180692D70E036FC02C06FEFD8
:105610007FEFC6010E942A2C4C018201D5CFB70131
:1056200080E290E00E94352C2A942814190409F095
:10563000B0F7CECFF60137FC859137FE81916F012F
:10564000B70190E00E94352C51105A94F1E08F1A66
:105650009108BFCF843619F0893609F077C0F80178
:1056600037FE6BC060817181828193810C5F1F4F17
:10567000F32DFF763F2E97FF09C09095809570958A
:1056800061957F4F8F4F9F4F689437F82AE030E045
:10569000A5010E94652CC82ECA188C2C432C36FEFE
:1056A0000CC0E89440F8C91440F434FE05C032FC44
:1056B00003C0F32DFE7E4F2E892C44FE95C0FE01C3
:1056C000EC0DF11D8081803309F087C0242D297EE7
:1056D000422E842D8870582E43FC95C040FE8FC00A
:1056E0009C2C821418F42C0C922C981844FE91C017
:1056F000B70180E390E00E94352C42FE09C088E7A4
:1057000090E041FE02C088E590E0B7010E94352C90
:10571000C91408F48AC0CA94D12C9FEFC91AD90AB7
:10572000CA0CDB1CF60182916F01B70190E00E9468
:10573000352CAC14BD04B1F74FCF60817181072EB9
:10574000000C880B990B0E5F1F4F92CFD32CE8945F
:10575000D4F82AE030E0853739F1232D297FD22E85
:105760008F3601F148F48835A9F0F70186819781D9
:105770002B96E2E10C94DF2C803749F08837A9F7AB
:10578000D4FE02C06894D2F820E130E00DC06894E5
:10579000D4F8F6CF34FE03C0822F8660D82E20E1E5
:1057A00032E002C028E030E0F801D7FE0FC060818F
:1057B0007181828193810C5F1F4FA5010E94652C2E
:1057C000C82ECA183D2CE89437F867CF60817181E4
:1057D00090E080E00E5F1F4FF0CF42FC02C0839448
:1057E00078CF8394839475CF842D867809F471CF14
:1057F000F6CFB70180E290E00E94352C83948214AA
:10580000C0F3512C73CF522C5818821408F46ECF69
:10581000F8CF842D867809F47BCF8BE241FE80E2BD
:1058200047FC8DE2B70190E071CFB70180E390E0D3
:105830000E94352C9A946CCF8FEF9FEF99CFFC018B
:105840000590615070400110D8F7809590958E0FAB
:105850009F1F0895FC016150704001900110D8F71E
:10586000809590958E0F9F1F08950F931F93CF9350
:10587000DF93182F092FEB018B8181FD09C01FEFEA
:105880000FEF812F902FDF91CF911F910F910895EE
:1058900082FF14C02E813F818C819D81281739079A
:1058A0003CF4E881F981CF010196998388831083C4
:1058B0008E819F8101969F838E83E3CFE885F98552
:1058C000812F0995892BA1F3DACFFA01AA27283075
:1058D00051F1203181F1E8946F936E7F6E5F7F4FBD
:1058E0008F4F9F4FAF4FB1E03ED0B4E03CD0670F39
:1058F000781F891F9A1FA11D680F791F8A1F911D8C
:10590000A11D6A0F711D811D911DA11D20D009F4DB
:1059100068943F912AE0269F11243019305D31931D
:10592000DEF6CF010895462F4770405D4193B3E006
:105930000FD0C9F7F6CF462F4F70405D4A3318F0AD
:10594000495D31FD4052419302D0A9F7EACFB4E05E
:10595000A6959795879577956795BA95C9F7009716
:105960006105710508959B01AC010A2E06945795B7
:10597000479537952795BA95C9F7620F731F841F0E
:10598000951FA01D08952F923F924F925F926F92A4
:105990007F928F929F92AF92BF92CF92DF92EF92BF
:1059A000FF920F931F93CF93DF93CDB7DEB7CA1B40
:1059B000DB0B0FB6F894DEBF0FBECDBF09942A886B
:1059C000398848885F846E847D848C849B84AA8413
:1059D000B984C884DF80EE80FD800C811B81AA81A0
:1059E000B981CE0FD11D0FB6F894DEBF0FBECDBF6B
:0859F000ED010895F894FFCFCA
:1059F800FFFFFFFFFF010100000201020001010398
:105A08000002010400020A05000101170002011842
:105A18000001011A0002011B0001011C0002020D15
:105A280000020A0E0001010A0002020C0001011D19
:105A38000002011E00010121000101220001010FE5
:105A48000001011000010111000101120001011300
:105A580000010114000101150001011600010105F2
:105A68000002052300020823000101240002012886
:105A78000002022900010125000101260001012779
:105A88000002012A0002090846000209084E000225
:105A9800090856000209085E0002090866000209A2
:105AA800086E0002090876000209087E000201104B
:105AB800F4010201100402010001010200020101C7
:105AC80002010301040202020302040105010602A5
