:100000000C9462000C948A000C948A000C948A0070
:100010000C948A000C948A000C948A000C948A0038
:100020000C94E8050C948A000C948A000C948A00C5
:100030000C948A000C948A000C948A000C948A0018
:100040000C9446050C948A000C94B6050C9490050B
:100050000C948A000C948A000C948A000C948A00F8
:100060000C948A000C948A000000000024002700F1
:100070002A0000000000250028002B0000000008D6
:10008000000201000003040700000000000000005F
:1000900000000000230026002900040404040404D6
:1000A0000404020202020202030303030303010227
:1000B00004081020408001020408102001020408F6
:1000C0001020D10611241FBECFEFD8E0DEBFCDBF78
:1000D00023E0A4EEB1E001C01D92A53AB207E1F71A
:1000E00011E0A0E0B1E0E2E2F0E202C005900D9282
:1000F000A43EB107D9F710E0C2E6D0E004C02197D2
:10010000FE010E940910C136D107C9F70E940B07F2
:100110000C940F100C940000A1E9B2E011968C939E
:10012000119790E0FC01E255FF4FE4911496EC9397
:100130001497FC01E656FF4FE491F0E0EE0FFF1F2D
:10014000E057FF4F8591949113969C938E9312974D
:100150000895E0919803F09199039C0136952795B5
:1001600036952795820F931F44E1489F9001499F40
:10017000300D1124818592858217930728F4809190
:100180008B03816080938B0308950F931F93CF930C
:10019000DF93E0919803F09199034091F3018085FA
:1001A00010E0481708F064C0142F11700091F2019C
:1001B00001114FC0842F90E0880F991FE80FF91F9D
:1001C0000184F285E02D2CEE3FEF112311F024E1A4
:1001D00030E0C091F001D091F1012C0F3D1FC90119
:1001E00063E470E00E94DC0FE617F70760F0C901D6
:1001F00068E270E00E94DC0F6F5F7F4F81E090E06B
:100200006E177F0710F52C0F3D1FC90163E470E0E6
:100210000E94DC0FE617F70750F0C90168E270E0B2
:100220000E94DC0F6F5F7F4F6E177F0760F42C0F0B
:100230003D1FC90163E470E00E94DC0FE617F70779
:10024000E8F41FEF15C082E090E09093EF018093F7
:10025000EE010F5F0093F2018091EE019091EF01AA
:100260000817190628F01092F2014F5F4093F3012E
:10027000812FDF91CF911F910F910895C90168E2FD
:1002800070E00E94DC0F6F5F7F4F6E177F07C8F230
:1002900083E090E0DACFFC01538D448D252F30E0D0
:1002A000842F90E0821B930B541710F0CF96089583
:1002B00001970895FC01918D828D981761F0A28DB0
:1002C000AE0FBF2FB11D5D968C91928D9F5F9F7376
:1002D000928F90E008958FEF9FEF0895FC01918D2C
:1002E000828D981731F0828DE80FF11D858D90E099
:1002F00008958FEF9FEF0895FC01918D228D892F36
:1003000090E0805C9F4F821B91098F73992708951D
:10031000FC01A48DA80FB92FB11DA35ABF4F2C917A
:10032000848D90E001968F739927848FA689B78971
:100330002C93A089B1898C91837080648C93938D68
:10034000848D981306C00288F389E02D80818F7D0B
:1003500080830895EF92FF920F931F93CF93DF93C3
:10036000EC0181E0888F9B8D8C8D98131AC0E889F1
:10037000F989808185FF15C09FB7F894EE89FF89C0
:100380006083E889F98980818370806480839FBF5E
:1003900081E090E0DF91CF911F910F91FF90EF905E
:1003A0000895F62E0B8D10E00F5F1F4F0F7311276E
:1003B000E02E8C8D8E110CC00FB607FCFACFE889A9
:1003C000F989808185FFF5CFCE010E948801F1CFA8
:1003D000EB8DEC0FFD2FF11DE35AFF4FF0829FB71D
:1003E000F8940B8FEA89FB8980818062CFCFCF930D
:1003F000DF93EC01888D8823B9F0AA89BB89E8894D
:10040000F9898C9185FD03C0808186FD0DC00FB6F2
:1004100007FCF7CF8C9185FFF2CF808185FFEDCF70
:10042000CE010E948801E9CFDF91CF91089584EF3A
:1004300091E00E947C0121E0892B09F420E0822FC9
:10044000089580E090E0892B29F00E941702811125
:100450000C940000089590E0FC01E458FF4F2491B3
:10046000FC01E255FF4F3491FC01E656FF4FE49149
:10047000EE23C9F0222339F0233001F1A8F4213012
:1004800019F1223029F1F0E0EE0FFF1FEE58FF4F77
:10049000A591B4918FB7F894EC91611126C0309575
:1004A0003E233C938FBF08952730A9F02830C9F030
:1004B000243049F7809180008F7D03C080918000B7
:1004C0008F7780938000DFCF84B58F7784BDDBCFBB
:1004D00084B58F7DFBCF8091B0008F778093B00083
:1004E000D2CF8091B0008F7DF9CF3E2BDACFCF9362
:1004F000DF9390E0FC01E255FF4F249186569F4F19
:10050000FC0184918823D1F090E0880F991FFC01B1
:10051000E859FF4FA591B491FC01EE58FF4FC591EA
:10052000D49161110EC09FB7F8948C91E22FE095A1
:100530008E238C932881E223E8839FBFDF91CF91A4
:1005400008958FB7F894EC91E22BEC938FBFF6CF20
:100550003FB7F8948091EA019091EB01A091EC01F2
:10056000B091ED0126B5A89B05C02F3F19F001966B
:10057000A11DB11D3FBFBA2FA92F982F8827BC01FD
:10058000CD01620F711D811D911D42E0660F771F25
:10059000881F991F4A95D1F708958F929F92AF9225
:1005A000BF92CF92DF92EF92FF926B017C010E948B
:1005B000A8024B015C01C114D104E104F104B9F0BB
:1005C0000E94A802681979098A099B09683E73404C
:1005D0008105910580F321E0C21AD108E108F108F4
:1005E00088EE880E83E0981EA11CB11CE4CFFF901A
:1005F000EF90DF90CF90BF90AF909F908F90089535
:10060000FC019B0124513109C90163E470E00E949F
:10061000DC0FE617F70758F0C90168E270E00E94A6
:10062000DC0F6F5F7F4F81E06E177F0708F480E07B
:1006300008952F923F924F925F926F927F928F9286
:100640009F92AF92BF92CF92DF92EF92FF920F9361
:100650001F93CF93DF9300D000D000D0CDB7DEB78B
:10066000382E3C832B8348012E2C262F30E0220F7E
:10067000331F275F3F4F6091980370919903260FB6
:10068000371F3E832D839A012C5E3F4FC90163E4DF
:1006900070E00E94DC0F5B01C90168E270E00E941B
:1006A000DC0FCB0101969A838983C12CD12C760172
:1006B000C394412C512C3201332009F453C0ED81F5
:1006C000FE81808191818A159B0508F455C029819E
:1006D0003A812817390708F44FC0222021F0440C32
:1006E000551C661C771CED81FE81028113816B8194
:1006F0007C81C8010E9400038823A9F0222071F0A8
:10070000689440F82D813E812C5F3F4F3E832D83BE
:10071000CC0CDD1CEE1CFF1C3A94CECF4C285D287F
:100720006E287F28EFCFB401C8010E940003811119
:10073000E9CF26960FB6F894DEBF0FBECDBFDF918E
:10074000CF911F910F91FF90EF90DF90CF90BF90CE
:10075000AF909F908F907F906F905F904F903F9061
:100760002F90089540928C0350928D0360928E03D7
:1007700070928F0381E0DDCF80E0DBCFEF920F93AB
:100780001F93FC01862F642F0585168521853285F0
:1007900047815085E7840E9419031F910F91EF90C4
:1007A00008950F931F93CF93DF93EC01E09198038B
:1007B000F0919903038514852B813C812C5E3F4F7A
:1007C000C90163E470E00E94DC0F06171707A0F070
:1007D000C90168E270E00E94DC0F6F5F7F4F601715
:1007E000710750F06D817E8185859685DF91CF916F
:1007F0001F910F910C94000380E0DF91CF911F9126
:100800000F910895AF92BF92CF92DF92EF92FF9235
:100810000F931F93CF93DF936C017B018B01040F28
:10082000151FEB015E01AE18BF08C017D10759F0C4
:100830006991D601ED91FC910190F081E02DC60106
:100840000995892B79F7C501DF91CF911F910F9100
:10085000FF90EF90DF90CF90BF90AF9008958F9270
:100860009F92AF92BF92CF92DF92EF92FF924B0195
:100870005C010E94A8026B017C0124E0C21AD1082D
:10088000E108F1080E94A8026C197D098E099F09F0
:10089000681579058A059B05A8F3FF90EF90DF9016
:1008A000CF90BF90AF909F908F900895ECE7F3E0CA
:1008B0008AE190E09283818385E090E09483838352
:1008C00061E080810C94770280917A03882319F08B
:1008D00060E00C942B022D980895882349F08091B4
:1008E0007A03882319F061E00C942B022D9A089565
:1008F0000C9464044F925F926F927F928F929F92BA
:10090000AF92BF92CF92DF92EF92FF92CF93DF939D
:10091000CDB7DEB72D970FB6F894DEBF0FBECDBFB3
:100920007C010E94A80269837A838B839C834B019C
:100930005C011D86B0E0A0E09701AD0125523109B0
:10094000410951092D833E834F8358879701AD019B
:10095000275031094109510929873A874B875C871C
:10096000F89461E080917C030E942B0280917F03C8
:10097000909180038230910538F0880F991F880F7D
:10098000991F05970197F1F760E080917C030E9421
:100990002B0278943D85311107C080917B03823012
:1009A00019F481E00E946D0480917D0390917E0393
:1009B000880E991EA11CB11C0E94A8022B013C01AB
:1009C0006B0149815A81C41AD50AF12CE12C8D8121
:1009D0009E81AF81B885C816D906EA06FB0634F0B9
:1009E00080917B03823011F40E94640429853A854A
:1009F0004B855C85C216D306E406F50644F431E067
:100A00003D87481459046A047B04B0F2A9CF2D969F
:100A10000FB6F894DEBF0FBECDBFDF91CF91FF9030
:100A2000EF90DF90CF90BF90AF909F908F907F908E
:100A30006F905F904F9008950E94560480E891E176
:100A40000E947A0460E871E180E090E00E942F0447
:100A500080E392E00E947A0460E372E080E090E03C
:100A60000E942F0480E392E00C947A040E945604C2
:100A700080E093E20E947A0460EC78E080E090E00D
:100A80000E942F0480E392E00C947A041F920F924C
:100A90000FB60F9211242F933F938F939F93AF9391
:100AA000BF938091E6019091E701A091E801B09198
:100AB000E9013091E50123E0230F2D3758F5019628
:100AC000A11DB11D2093E5018093E6019093E701FC
:100AD000A093E801B093E9018091EA019091EB01C4
:100AE000A091EC01B091ED010196A11DB11D809383
:100AF000EA019093EB01A093EC01B093ED01BF915B
:100B0000AF919F918F913F912F910F900FBE0F90BA
:100B10001F90189526E8230F0296A11DB11DD2CF74
:100B20001F920F920FB60F9211242F933F934F9362
:100B30005F936F937F938F939F93AF93BF93EF9345
:100B4000FF9384EF91E00E948801FF91EF91BF91A4
:100B5000AF919F918F917F916F915F914F913F9155
:100B60002F910F900FBE0F901F9018951F920F920C
:100B70000FB60F9211242F938F939F93EF93FF93B0
:100B8000E0910402F09105028081E0910A02F09167
:100B90000B0282FD1BC0908180910D028F5F8F73CD
:100BA00020910E02821741F0E0910D02F0E0EC502E
:100BB000FE4F958F80930D02FF91EF919F918F9142
:100BC0002F910F900FBE0F901F9018958081F4CF3A
:100BD0001F920F920FB60F9211242F933F934F93B2
:100BE0005F936F937F938F939F93AF93BF93EF9395
:100BF000FF93E0919302F09194029081809195028D
:100C0000982320919602309197022F3F320731F0BE
:100C10002F5F3F4F3093970220939602809191026D
:100C2000811131C0911116C0209196023091970226
:100C30002536310558F01092980230939B0220938C
:100C40009A0281E080939902809391021092970218
:100C50001092960280917B03813021F4911180E003
:100C60000E946D04FF91EF91BF91AF919F918F9181
:100C70007F916F915F914F913F912F910F900FBE98
:100C80000F901F901895809191028130A1F49923C3
:100C900009F3E09199028E0F80939902F0E0EE0F34
:100CA000FF1FEF56FD4F2091960230919702328739
:100CB000218782E0C9CF80919102823039F591116C
:100CC00019C0E091990281E0E03720F0809398020A
:100CD00083E0BACF8E0F80939902F0E0EE0FFF1FF2
:100CE000EF56FD4F2091960230919702328721876F
:100CF00081E0AACF209196023091970225363105E6
:100D000008F4A8CF83E080939102A4CF8091910250
:100D1000833009F09FCF992309F498CF9BCFEF92AE
:100D2000FF920F931F93CF93DF93EC01F62F8A016D
:100D3000790190E080E030E0E0E0DE01AE0FB11D2F
:100D40002C91222341F0320F2E9F800D911D1124F2
:100D50001C92FE1315C0332399F0532F5695850F1F
:100D6000911D632F70E00E94DC0FDE01A60FB11D04
:100D70003C93D8013C9131110EC06C9390E080E01F
:100D8000EF5FFE17D0F681E0DF91CF911F910F91B9
:100D9000FF90EF900895D7013C91332371F380E0E9
:100DA000F3CFE4EFF1E01382128288EE93E0A0E04B
:100DB000B0E084839583A683B78386ED91E0918329
:100DC000808385EC90E09587848784EC90E097871A
:100DD000868780EC90E0918B808B81EC90E0938B08
:100DE000828B82EC90E0958B848B86EC90E0978BE5
:100DF000868B118E128E138E148E81E992E0909361
:100E000099038093980380E00E948C0010927A03EB
:100E100010927C030895CF93DF93CDB7DEB7E697AA
:100E20000FB6F894DEBF0FBECDBF789484B5826054
:100E300084BD84B5816084BD85B5826085BD85B57E
:100E4000816085BD80916E00816080936E001092FC
:100E50008100809181008260809381008091810077
:100E60008160809381008091800081608093800008
:100E70008091B10084608093B1008091B000816066
:100E80008093B00080917A00846080937A00809192
:100E90007A00826080937A0080917A0081608093EA
:100EA0007A0080917A00806880937A001092C10065
:100EB00061E08DE00E94770260E08DE00E942B02ED
:100EC00061E088E00E94770260E088E00E942B02E7
:100ED00061E087E00E94770260E087E00E942B02D9
:100EE00061E086E00E94770260E086E00E942B02CB
:100EF0006AEF70E080E090E00E94CD0282E00E9404
:100F00008C0010927A0360E0809192020E94770236
:100F100082E08093B0008093B10084E68093B300B8
:100F20008093B4001092B20080919102833011F44A
:100F30001092910284E08093700064EF71E080E091
:100F400090E00E94CD029E012F5F3F4F6901B0E209
:100F5000AB2EB12C80919102833009F0B9C48091FD
:100F60009802882309F45CC01092980210929902AA
:100F700080E480938B03109282031092810310927D
:100F800086031092850310928403109283031092BB
:100F90008C0310928D0310928E0310928F03109287
:100FA0008A031092890380918B0386FD81C4E091AE
:100FB0009803F09199032085822F8F7B843009F06C
:100FC000C0C083859485865891098C35910508F0B9
:100FD000B8C085859685243009F049C08197489727
:100FE00008F0AFC0878590890897089708F0A9C0D6
:100FF00081E080938B0380919C0390919D0390935B
:101000008403809383038091A0039091A103909324
:1010100086038093850380919A0390919B0395C1E9
:1010200010928B03809181039091820390939B0394
:1010300080939A038091850390918603B0E0A0E0AD
:101040008093A0039093A103A093A203B093A30362
:101050008091830390918403B0E0A0E080939C038F
:1010600090939D03A0939E03B0939F0384CF8254DB
:1010700091098F9708F065C043E060E28DEB91E045
:101080000E94BE03882309F45CC020918C039091D8
:101090008D0360918E0380918F03462F50E0509313
:1010A000860340938503422F592F4E3E37E853075E
:1010B00029F522E030E0309382032093810390E011
:1010C0009093840380938303B0928A03A092890350
:1010D000E0919803F091990381859285823B944039
:1010E00008F089C388E090E09093820380938103A5
:1010F00080918B03816080938B037DC3909529132E
:1011000010C030E03093840320938303982F909590
:1011100069130CC087E090E0909382038093810371
:10112000D3CF5093840340938303F0CF29E030E082
:101130003093820320938103609385038093860319
:10114000C3CFE0919803F09199038085843609F02C
:101150008FC088EA91E00E94D103882309F488C0F7
:1011600043E060E188EA91E00E94BE03882309F42D
:101170007FC090908C03092D10918D03FAE0EF2E23
:10118000F12C0230B0E21B07F9F0EDE0EE2EF12C6D
:101190000A3AEAE51E07C1F07CE0E72EF12C04359F
:1011A000F2E31F0789F06EE0E62EF12C033021E018
:1011B000120751F0AFE0EA2EF12C03323BEC13079B
:1011C00019F05BE0E52EF12C43E260E288EA91E061
:1011D0000E94BE03882309F44BC0912680918C03A2
:1011E00090918D03A0918E03B0918F039C0144E0F8
:1011F000369527954A95E1F730938403209383032E
:101200002A2F30E03093860320938503382F3A2726
:101210003927292D22952F7029252F70482F4F709F
:10122000241719F024E020938B03EBE0EE16F10471
:1012300049F420918B03206120938B031093880342
:10124000009387033B1729F080918B038460809380
:101250008B0380E390E090938A0380938903F0925C
:101260008203E09281038AE490E00E94A900C3C255
:10127000E0919803F09199038085803209F070C065
:1012800041E06FE083E991E00E94BE03882309F406
:1012900067C0E0919803F0919903DF01A95BBF4F0C
:1012A0008D919C910497059708F05AC080E880932F
:1012B0008B0340908C0350908D0360908E03709050
:1012C0008F03B301A201A2E07695679557954795E4
:1012D000AA95D1F750938303109284039A01332780
:1012E00030938603209385038185928585369440CB
:1012F00088F59091A4039F5F9093A40340FE11C0D2
:1013000082E880938B033091A003E091A103409584
:10131000431719F086E880938B0330938503E0939D
:101320008603923028F090918B03916090938B0309
:101330008FE090E090938A0380938903842D8370DB
:101340008150823050F484E190E090938203809346
:10135000810351C21092A403EBCF83E090E0F5CF5C
:101360008EE791E00E94D103882309F44AC0A0913E
:101370009803B091990318962C9118972A3121F06F
:101380002A3211F02032E9F530E0C901019797FDCA
:10139000C90195958795182FFD013F96220F331FA0
:1013A000275F3F4F2A0F3B1F412C512C32014394A2
:1013B00040E050E0BA01112309F453C0A081B1818B
:1013C000A231B105C8F09097E0F444295529662967
:1013D0007729DF011296A217B30738F4A281B381EF
:1013E0001897189770F4DF011496440C551C661C6E
:1013F000771C1150FD01DFCFA930B10510F05197D6
:1014000040F381E08093F30129E733E03093F10169
:101410002093F0011092F2010E94C500813009F082
:101420008BC0412C512C320110E0E0919803F091D7
:10143000990390858091F301891708F043C00E94B9
:10144000C500082F0E94C500011132C0813009F08B
:1014500073C0440C551C661C771C689440F81F5FD1
:10146000E4CF40938C0350938D0360938E0370936D
:101470008F039A012F7733273093860320938503B8
:1014800027E076956795579547952A95D1F750931C
:101490008403409383038093890390938A0385E1B7
:1014A00090E0909382038093810388E190E0DDCE09
:1014B000013009F041C081113FC0440C551C661C2D
:1014C000771CCDCF812F90E090938A03809389037E
:1014D00040928C0350928D0360928E0370928F0322
:1014E000842D8F7390E090938603809385039201FF
:1014F000B6E036952795BA95E1F72F7133273093EB
:10150000840320938303920122273071232B31F42B
:10151000805C9F4F909386038093850380E853FC03
:1015200088E880938B0380E190E09093820380931E
:10153000810384E690E099CEE0919803F0919903BD
:101540008385948588974D9708F046C08585968554
:101550000C970B9708F040C083E08093F3018CEB6D
:1015600091E09093F1018093F0011092F2010E94BA
:10157000C500813089F50E94C50081112DC0412C24
:10158000512C320110E0E0919803F091990390857D
:101590008091F301891708F071C00E94C500F82EF0
:1015A0001330B1F00E94C500082F133021F40E94BF
:1015B000C500081311C031E0F31256C001110CC070
:1015C000440C551C661C771C689440F81F5FDBCFE9
:1015D0000E94C500F81631F3E0919803F091990349
:1015E00020852C3311F0243051F48385948586387E
:1015F000910508F488C0833E910508F4A0C0E091ED
:101600009803F09199038085843209F46EC1823287
:1016100009F095C1818592858C3E9C4508F0EBC010
:10162000838594850897079708F0E5C0E55BFF4F31
:10163000808191810897079708F0DDC081E0809351
:101640008B0380919C0390919D03909384038093DE
:1016500083038091A0039091A103909386038093CC
:10166000850384E090E071CEF110B6CF013009F02F
:10167000B3CF440C551C661C771CA8CF812F90E07B
:1016800090938A038093890340928C0350928D0338
:1016900060928E0370928F03242D30E0852D1432DA
:1016A000F8F480E880938B033093860320938503BE
:1016B000852D90E0909384038093830360FE03C0A4
:1016C00088E880938B038185928583379A4028F43C
:1016D00080918B03816080938B0381E190E035CE14
:1016E00090E890938B0357FE03C098E890938B0388
:1016F00030938603209385038F7790E09093840343
:1017000080938303E0CF8D32910508F478CF6CE1AC
:1017100075E206E010E08D34910508F070CF858504
:101720009685243089F44D97469708F068CF8785D1
:1017300090890797089708F062CF81E85ACC68E64D
:1017400070E105E010E0EBCF0E940003882309F46C
:1017500056CF43E06CE180E091E00E94BE03882315
:1017600009F44DCF80E880938B0340918C03509116
:101770008D0360918E0370918F03DB01CA0124E019
:10178000B695A795979587952A95D1F79C01909343
:10179000860380938503DB01CA01E4E1B695A79532
:1017A00097958795EA95D1F7909384038093830367
:1017B00084E090E0E0E0F22FFF70EF0FF4E0369568
:1017C0002795FA95E1F70197B1F74E274F70552706
:1017D00066277727452B462B472B19F084E8809303
:1017E0008B0310938203009381038CE190E090932C
:1017F0008A038093890380918303909184030497E3
:1018000009F056C061E08DE00E942B0280918503B3
:10181000909186030A9759F48091E401882309F492
:1018200099C360E088E00E942B021092E40180914D
:10183000850390918603419739F461E088E00E9426
:101840002B0281E08093E4018091850390918603CF
:10185000429731F460E088E00E942B021092E4018C
:101860008091850390918603029771F461E087E08F
:101870000E942B0268EC70E080E090E00E94CD02B4
:1018800060E087E00E942B0280918503909186039F
:10189000039771F461E086E00E942B0268EC70E02F
:1018A00080E090E00E94CD0260E086E00E942B0282
:1018B0006BE470E080E090E00E94CD0280919102A4
:1018C000833011F41092910260E08DE00E942B02AF
:1018D00080E090E0892B09F43DCB0E941702882319
:1018E00009F435CB0E94000032CB85E191E00E94E3
:1018F000D103882321F143E060E185E191E00E947A
:10190000BE038823E1F080918C0390918D03A09118
:101910008E03B0918F03492F5A2F6B2F7727509347
:1019200086034093850399279093840380938303D0
:1019300080E190E090938A038093890392CEE091B6
:101940009803F09199031085812F8F7D843419F0CD
:10195000163009F07AC08AE291E00E94D103882310
:1019600009F473C01630B1F481E080938B03809149
:101970009C0390919D0390938403809383038091B3
:10198000A0039091A103909386038093850383E144
:1019900090E0DBCC43E060E28AE291E00E94BE038B
:1019A000882309F452C010918E0300918F03909107
:1019B0008C0380918D039093830380938403E09143
:1019C0009803F09199038085843651F543E260E1F4
:1019D0008AE291E00E94BE038823B9F190918C03C2
:1019E00080918D031095011731F09095891719F0AA
:1019F00094E090938B03982F802F9093860380938D
:101A0000850380E390E090938A038093890382E1C9
:101A100090E0909382038093810387E390E025CC4C
:101A2000802F809518130BC0812F90E09093860330
:101A300080938503B0928A03A0928903E8CFC801FE
:101A40009093850380938603F5CFE0919803F091FE
:101A5000990380858434C1F48FE391E00E94D1031F
:101A6000882391F043E060E28FE391E00E94BE039F
:101A7000882351F080E880938B03B0928A03A09270
:101A8000890389E190E061CC84E591E00E94D10373
:101A9000E0919803F09199039085882309F455C04B
:101AA000943209F052C043E060E184E591E00E9485
:101AB000BE03882309F449C0E0919803F09199038B
:101AC000DF01A15BBF4F8D919C9102970497E8F5D0
:101AD00080E880938B0330918C0320918D03832FBA
:101AE000922F422F42954F702F7004E09695879564
:101AF0000A95E1F78F703F709FE09427922798270F
:101B0000391719F094E890938B0361857285683FCB
:101B1000714128F490918B03926090938B034093D2
:101B2000830310928403F0E12F9F90011124282B4E
:101B3000309386032093850380E190E090938A039D
:101B40008093890387E190E000CC89E691E00E94D0
:101B5000D103E0919803F09199039085882381F156
:101B6000943271F543E060E189E691E00E94BE03A2
:101B7000882331F1E0919803F0919903E15BFF4FE5
:101B80008081918108970797D8F480918C03909178
:101B90008D0398279F3FA1F490E090938603809354
:101BA000850380E190E090938A038093890386E126
:101BB00090E0909382038093810382E390E055CB81
:101BC000A0919803B091990318968C91189780373B
:101BD00009F077C07D0120E030E040E050E060E0B7
:101BE00070E080E090E0412CF70183849484F42D30
:101BF000FF0F13E0512E5F0EF70105851685F7E301
:101C00004F1641F0080D191D015111090E30110533
:101C100008F05AC001E00E94F00FF32F142F052F97
:101C2000762E672EE8E08E1A9108E8E08E16910471
:101C300008F421604394E4E0EE0EF11CE8E34E1258
:101C4000D3CF88E190E090938203809381035694F0
:101C5000852D90E090938A038093890380E8809398
:101C60008B03812F902FA72DB62D412F2F0F210FE2
:101C7000200F270D260D19F024E820938B032F2F1A
:101C800030E0309386032093850340FF05C03395F1
:101C90003093860320938503B695A79597958795EE
:101CA00080938C0390938D03A0938E03B0938F0346
:101CB0009093840380938303B0938803A093870356
:101CC0009ACD843108F4DBC082E3F60111928A9543
:101CD000E9F718962C9118972250330B60E043E0F7
:101CE000842F90E0821793079CF4880F991FFD01C1
:101CF000E80FF91F8185823348F4F601E80FF11DE2
:101D000090819F5F9083681708F4682F4E5FE8CF3B
:101D10001EAA1DAA9E012B5C3F4FAE014A5C5F4F7D
:101D2000C6010E948F0682E3D6011D928A95E9F7CB
:101D3000A0919803B091990318962C91189722506E
:101D4000330B60E044E0842F90E0821793079CF40B
:101D5000880F991FFD01E80FF91F8185823348F430
:101D6000F601E80FF11D90819F5F9083681708F4DA
:101D7000682F4E5FE8CF1CAA1BAA9E012D5C3F4F27
:101D8000AE014C5C5F4FC6010E948F06882309F4A8
:101D900076C0E0919803F0919903F084F6942F2D8A
:101DA00030E0C901029790938A03809389033384BA
:101DB000212C858596858229932990938803809389
:101DC00087038EA990E0982F88274BA9BC01642B2C
:101DD00070938403609383035CA9852B909386039F
:101DE00080938503C901039755E0969587955A9589
:101DF000E1F7982E442309F43FC081E090E09093EE
:101E0000820380938103FA94FA9483E0782E812CE4
:101E100092E3692E0CA9069D800111242BA9269D11
:101E2000900111244EA9469DA00111248F2DB0E2EE
:101E3000BF1508F480E2E12C672D0E941903882366
:101E4000F1F024E0829EF0011124EF57FC4F8091C5
:101E50008C0390918D03A0918E03B0918F0387879F
:101E6000908BA18BB28B30E4730E839480EEF80ECE
:101E7000981480F680E13FC98DA98111FBCF0091B4
:101E8000980310919903D8011896EC91E63008F464
:101E9000B2CCFF24F39425EC3DE94CE151E8F0E0AD
:101EA0008F2D90E0BC016E5F7F4F6E177F070CF0A7
:101EB00040C0660F771FD801A60FB71F19966D9106
:101EC0007C91880F991FD801A80FB91F19968D9181
:101ED0009C91BAE0B69F4001B79F900C1124DC01A1
:101EE000AA0FBB1FAA0FBB1FAA0FBB1FE12C8A168C
:101EF0009B06A0F0AAE0EA2EE89ED001E99EB00D74
:101F00001124CB0163E0880F991F6A95E1F7EE2455
:101F1000E394A817B90710F482E0E82E63E971E0B2
:101F200080E091E00E94B20F9B01AC012E25F3945A
:101F3000B7CF20938C0330938D0340938E0350933F
:101F40008F03B0928A03A0928903109282031092A9
:101F5000810351CC61E088E00E942B0281E08093F4
:101F6000E40165CCDB018F939F930E94C20FBF9168
:101F7000AF91A29F800D911DA39F900DB29F900DD8
:101F8000112408950E94CD0FA59F900DB49F900D30
:101F9000A49F800D911D11240895A29FB001B39FAD
:101FA000C001A39F700D811D1124911DB29F700D62
:101FB000811D1124911D0895AA1BBB1B51E107C06F
:101FC000AA1FBB1FA617B70710F0A61BB70B881FC9
:101FD000991F5A95A9F780959095BC01CD01089558
:101FE000002E083090F0982F872F762F652F542FD2
:101FF000432F322F22270850F4CF220F331F441FC4
:10200000551F661F771F881F991F0A95B2F7002D6D
:102010000895EE0FFF1F0590F491E02D0994F894B8
:02202000FFCFF0
:1020220005002628236810F4012C06F4012602017B
:10203200016E003605040026E02070100E022A060A
:102042000E020E02000141000000120026801180E3
:1020520011300290063002300200016E001C051998
:102062000026220B220BEE026608EE02EE020101AE
:102072006E0000001700269E0002049E0029029EA8
:1020820000070100016E000000160026F603BC05E1
:102092000802BC050802D40100014B000000150033
:1020A2002860095802B00458025802580200002D54
:1020B20000000003002604010C0304011C070401B4
:1020C2000C0301016E0000000B0025800DC006B05C
:1020D200011005B001B001000182000000070026D6
:1020E20000238011300290063002300200016E009F
:1020F200360500000000AA0102044B01F7017C0131
:042102005A016E010F
:00000001FF
