:100000000C940C020C9434020C9434020C943402C0
:100010000C9434020C9434020C9434020C94340288
:100020000C9434020C9481220C9434020C9434020B
:100030000C9434020C9434020C9434020C94340268
:100040000C9418210C9434020C9434020C94340255
:100050000C9434020C9434020C9434020C94340248
:100060000C9462210C9434023000390038003700BF
:1000700036003500340033003200310044697370BB
:100080006C6179004D656E7500446F776E20416C30
:1000900069617300557020416C696173004D75741E
:1000A00065004C656674204172726F770052696713
:1000B0006874204172726F7700446F776E204172CE
:1000C000726F77005570204172726F7700002000C8
:1000D0002000200064322D320064322D3100643162
:1000E0002D320064312D31003A0042616E6E65722E
:1000F00020320042616E6E65722031004175646984
:100100006F43505520312E30320050726F4465736A
:1001100069676E73004D6178566F6C004D696E565D
:100120006F6C00492F4F2073656C00566F6C756DB6
:100130006500506F72742D3800506F72742D370047
:10014000506F72742D3600506F72742D3500506FE1
:1001500072742D3400506F72742D3300506F7274AE
:100160002D3200506F72742D31004D6178004D6951
:100170006E00436F6172736500566F6C756D65201C
:100180005374657000436C6F636B00506F74004D67
:100190006F746F720064422F537465700064312075
:1001A00052656C617973000000000023002600296D
:1001B00000416D702044656C617900506F77657205
:1001C00000C400B900AD00A2009D0094008900BBEE
:1001D00001840056026E027C007A0078007600747A
:1001E00000720070006E006C006A0068004C02CD66
:1001F00000436F6D706C657465642E004B657920EB
:10020000536B69707065642E004C6561726E204995
:100210005200556E6368616E6765642E00496E69B1
:100220007420454550524F4D206E6F772E00526519
:1002300073746F72652044656661756C743F00432A
:100240006F6E666967204D6F646521004D756C7433
:10025000692D4F757400536C65657000204175748D
:100260006F00204F66662000204F6E202000426104
:10027000636B6C6967687400322064322020200050
:100280003120643220202000496E707574004F7553
:100290007470757400322064312020003120643184
:1002A0002020006E2F61003120644200302E352066
:1002B000644200302E31206442009D01000095010F
:1002C0008F018B0185010000000000000000790112
:1002D000000072016E016A0163015C0155014E016B
:1002E00047014001390132012B0123010000B10116
:1002F00056026E021C0115010A01FC00F300EA001F
:10030000E800E300DE00D900D400D200D000CE0027
:10031000CD004D5554450000000000240027002A60
:100320000000000000250028002B00040404040441
:100330000404040202020202020303030303030192
:100340000204081020408001020408102001020469
:10035000081020000000080002010000030407004C
:1003600000000000000000476F6F64206E6967683E
:10037000740080809F9F9F9F808080809E9F9F9E13
:10038000808080809C9D9D9C80808080989D9D9891
:1003900080808080909595908080808080959580E9
:1003A000808080809F9F9F9F80808E959597919160
:1003B0008E801F001F1F001F001F1F000000001F56
:1003C000000000001F000000001F000000001F0EC2
:1003D000001F1F1F0E001F1F1F0E04020402040235
:1003E0000402020202042020040202040402042087
:1003F0002004040204020204040104010420030393
:1004000004010304040204040303040303010104BC
:10041000040304040304492311241FBECFEFD8E0D2
:10042000DEBFCDBF15E0A0E0B1E0ECECFBE502C023
:1004300005900D92A231B107D9F727E0A2E1B5E00E
:1004400001C01D92A532B207E1F712E0CCE0D2E084
:1004500004C02197FE010E94BD2ACB30D107C9F705
:100460000E9475230C94E42D0C94000080911906D1
:1004700081110CC081EA8093B20082E080937706FC
:100480001092130710927A06109279060895AF928F
:10049000BF92CF92DF92EF92FF920F931F93CF9371
:1004A000DF937C016B018A01FC01C081D1818091C5
:1004B000FA059091FB05C817D9070CF081C0E091AF
:1004C000F805F091F905CE01880F991FE80FF91F83
:1004D000A080B18024E630E0C0FD02C02CE93FEFEF
:1004E000200F311FC901880F991F820F931F68ECDD
:1004F00070E00E94452AA616B70654F0C90168E2CA
:1005000070E00E94452A6F5F7F4F6A157B05A4F556
:10051000200F311FC901880F991F820F931F68ECAC
:1005200070E00E94452AA616B70654F0C90168E299
:1005300070E00E94452A6F5F7F4F6A157B05B4F516
:10054000200F311FC901880F991F820F931F68EC7C
:1005500070E00E94452AA616B70664F0C90168E259
:1005600070E00E94452A6F5F7F4F23E030E06A15FC
:100570007B0524F48FEF0FC021E030E0F60180818D
:100580009181019682179307A4F491838083CE0111
:10059000809590958170DF91CF911F910F91FF9081
:1005A000EF90DF90CF90BF90AF90089522E030E0C1
:1005B000E5CF11821082F701808191810196E5CF0C
:1005C00081E0E9CF2AE090E080E061E460937C0084
:1005D00030917A00306430937A0030917A0036FDA1
:1005E000FCCF3091780040917900542F432F840F35
:1005F000951F215059F76AE070E00E94452ACB010F
:10060000089508950895833081F028F4813099F099
:100610008230A9F008958730A9F08830C9F084307D
:10062000B1F4809180008F7D03C0809180008F772E
:1006300080938000089584B58F7784BD089584B534
:100640008F7DFBCF8091B0008F778093B0000895AD
:100650008091B0008F7DF9CF1F93CF93DF93282F28
:1006600030E0F901ED5AFC4F8491F901E15CFC4F57
:10067000D491F901E55DFC4FC491CC23A9F0162F6C
:1006800081110E940303EC2FF0E0EE0FFF1FEF5DDE
:10069000FC4FA591B4918FB7F894EC91111108C05B
:1006A000D095DE23DC938FBFDF91CF911F9108950A
:1006B000DE2BF8CFCF93DF9390E0FC01E15CFC4FA1
:1006C0002491855D9C4FFC0184918823D1F090E0BA
:1006D000880F991FFC01E95EFC4FA591B491FC01C4
:1006E000EF5DFC4FC591D49161110EC09FB7F89496
:1006F0008C91E22FE0958E238C932881E223E8836E
:100700009FBFDF91CF9108958FB7F894EC91E22BC2
:10071000EC938FBFF6CF1F93CF93DF93182FEB018E
:1007200061E00E945A03209739F460E0812FDF9145
:10073000CF911F910C942C03CF3FD10511F461E0B0
:10074000F5CFE12FF0E0ED5AFC4FE491E33031F1C9
:1007500040F4E130B1F0E230E1F0C038D1057CF78F
:10076000E4CFE73029F1E83059F1E430B1F7809176
:100770008000806280938000D0938B00C0938A00B9
:1007800004C084B5806884BDC7BDDF91CF911F913F
:10079000089584B5806284BDC8BDF7CF8091800084
:1007A000806880938000D0938900C0938800EDCF4B
:1007B0008091B00080688093B000C093B300E5CF13
:1007C0008091B00080628093B000C093B400DDCF10
:1007D000682F70E0809122070C948B033FB7F89448
:1007E00080919A0590919B05A0919C05B0919D05E3
:1007F00026B5A89B05C02F3F19F00196A11DB11D7C
:100800003FBFBA2FA92F982F8827BC01CD01620FB7
:10081000711D811D911D42E0660F771F881F991F72
:100820004A95D1F708958F929F92AF92BF92CF923F
:10083000DF92EF92FF924B015C010E94EE036B018D
:100840007C010E94EE036C197D098E099F09683EA8
:10085000734081059105A8F321E0821A9108A1084F
:10086000B10888EEC80E83E0D81EE11CF11C81148B
:100870009104A104B10429F7FF90EF90DF90CF908D
:10088000BF90AF909F908F9008952FB7F89460918C
:1008900096057091970580919805909199052FBFC5
:1008A000089520917205260F3327331F2132310519
:1008B000ECF420914006FC0190E080E0243069F0E7
:1008C00082E00895A09172052191AC014E5A5A4FD1
:1008D000A40FB52FB11D2C930196861798F3809124
:1008E0007205680F6093720580E0089581E00895B5
:1008F0001092400681E080933F0610921A0661E054
:1009000082E10E942C0361E083E10E942C03E9EB69
:10091000F0E080818E7F808380818D7F808388E47A
:100920008093B80085E48093BC000895CF93DF9353
:1009300091E0909351058823B9F0C091B800D0910F
:10094000BA008091BC008A7B8093BC0060E082E1A9
:100950000E942C0360E083E10E942C030E94780433
:10096000D093BA00C093B800DF91CF9108958F92D1
:100970009F92AF92BF92CF92DF92EF92FF920F932E
:100980001F93CF93DF93D0916906D13208F0D7C07F
:10099000182FC09168060E94EE036B017C018091C4
:1009A000400681116BC082E08093400610933F06A1
:1009B0008FEF80933E0610923D06D0933C06A8E44C
:1009C000B6E0ECE1F6E080E0D81391C010921B068F
:1009D00080911B06CC0FC82BC0931B0680911A0672
:1009E000813009F088C010921A060E94EE036B0154
:1009F0007C0180911B068093BB0080914206909100
:100A00004306A0914406B0914506892B8A2B8B2B77
:100A1000A1F00E94EE03009142061091430620913E
:100A20004406309145066C197D098E099F09061709
:100A300017072807390708F442C08091BC0083FDDE
:100A4000D8CF85EC8093BC000E94EE036B017C0143
:100A500080914006823009F450C080913E068F3F5D
:100A600009F46FC080913E06803209F46CC0809119
:100A70003E06803309F469C084E026C080914206B6
:100A800090914306A0914406B0914506892B8A2B8C
:100A90008B2B09F484CF0E94EE0380904206909045
:100AA0004306A0904406B09045066C197D098E0956
:100AB0009F0986169706A806B90608F070CF8091A0
:100AC00041060E94960485E010924706109269063E
:100AD00010924606DF91CF911F910F91FF90EF90FA
:100AE000DF90CF90BF90AF909F908F9008959D9191
:100AF00091938F5F69CF85EEA5CF8091420690914B
:100B00004306A0914406B0914506892B8A2B8B2B76
:100B100009F49ECF0E94EE03009142061091430615
:100B200020914406309145066C197D098E099F0974
:100B3000061717072807390708F08ACFC0CF81E0CA
:100B4000C3CF80E0C1CF82E0BFCF83E0BDCF0895A7
:100B5000E091A3058091A205E81730F4F0E0EF5C86
:100B6000FA4F808190E008958FEF9FEF0895909164
:100B7000A3058091A2052FEF3FEF981748F4E92FC6
:100B8000F0E0EF5CFA4F208130E09F5F9093A30587
:100B9000C90108958091A2059091A305891B990B25
:100BA0000895CF92DF92EF92FF920F931F93CF930E
:100BB000DF937C01CB018A0120914606222389F034
:100BC000EB016B01C40ED51ECC15DD0569F06991F2
:100BD000D701ED91FC910190F081E02DC7010995BD
:100BE000F3CF642F0E945104C801DF91CF911F9170
:100BF0000F91FF90EF90DF90CF900895CF93DF9308
:100C00001F92CDB7DEB76983209146062223F9F003
:100C100020916906203258F021E030E0FC01338356
:100C2000228390E080E00F90DF91CF910895809132
:100C30004706E82FF0E0E85BF94F998190838F5FDA
:100C4000809347068093690681E090E0ECCF61E0F5
:100C5000CE0101960E945104F7CF90E080E0089504
:100C6000E091AE05F091AF05EE0FFF1FE953FE4F87
:100C7000818190E09093D2058093D10520812093CB
:100C8000D305223079F42BE0289FF001299FF00D45
:100C90001124E15FFC4F818592859093D00580936C
:100CA000CF05089525E0289FF001299FF00D11241C
:100CB000EB56FE4F83819481F0CF1092CB0580914B
:100CC000AE059091AF052091280530912905821736
:100CD000930749F480912A0590912B059093AF05D5
:100CE0008093AE0508950196F9CF1092CB058091BF
:100CF000AE059091AF0520912A0530912B05821702
:100D0000930749F480912805909129059093AF05A8
:100D10008093AE0508950197F9CF8091D305823075
:100D200079F48091D1059091D2052BE0289FF001B4
:100D3000299FF00D1124E15FFC4F828190E008951E
:100D4000833069F48091D1059091D20525E0289FE8
:100D5000F001299FF00D1124EB56FE4FEECF90E0ED
:100D600080E008952D9A08957F928F929F92AF927E
:100D7000BF92CF92DF92EF92FF920F931F93CF9388
:100D8000DF9300D000D0CDB7DEB78BE796E090932D
:100D9000F9058093F8058091130790E09093FB0587
:100DA0008093FA0580917706853009F0C3C280915F
:100DB00013078A3108F446C080917D0690917E0623
:100DC000859708F43FC080917D0690917E0680341F
:100DD0009105C0F5A6E7B6E082E090E040E050E083
:100DE000BA01E09113079C012F5F3F4FE2171306F2
:100DF00009F00CF4CBC019962D913C911A9727302D
:100E0000310508F4C3C019962D913C911A972E30E4
:100E1000310508F0BBC0FD013B961B962D913C911E
:100E20001C972331310540F01B962D913C911C9766
:100E30002232310508F497C0208131812A303105F2
:100E400008F099C080917D0690917E0688389105C2
:100E500048F180917D0690917E06853E910510F5C2
:100E6000809113078430C9F480917F0690918006A9
:100E7000809798F080917F0690918006C79768F4DC
:100E80008091810690918206099738F080918106C1
:100E900090918206429708F404C18091130784342C
:100EA00008F010C1809113078D3008F475C181E0FE
:100EB00090E09C838B831A82198249E753E0BE013C
:100EC0006F5F7F4FCE0103960E944702811164C17C
:100ED00049E753E0BE016F5F7F4FCE0103960E944A
:100EE0004702813009F058C149E753E0BE016F5F06
:100EF0007F4FCE0103960E94470281114DC110E041
:100F000000E0C12CD12C7601209113078B819C81AC
:100F10002817190609F00CF431C149E753E0BE0166
:100F20006F5F7F4FCE0103960E944702A82EB12C1F
:100F300049E753E0BE016F5F7F4FCE0103960E94E9
:100F4000470290E021E0A216B10409F00EC1892BFE
:100F500009F022C1CC0CDD1CEE1CFF1C6894C0F80B
:100F60000F5F1F4FD1CF440F551F661F771F416082
:100F70000296149636CF208131812331310508F055
:100F800061CF440F551F661F771FF2CF01979595CC
:100F900087959093F7058093F6050C972CF41092A3
:100FA000F7051092F6054ECF4093F2055093F305E6
:100FB0006093F4057093F50582E08093F10520912C
:100FC000F1052130A1F58091F2059091F305A091F2
:100FD000F405B091F5058F3F3FEF9307A307B307E3
:100FE00009F09AC18091120590911305A091140502
:100FF000B09115058F3F9F4FAF4FBF4F41F41092F7
:101000001205109213051092140510921505809187
:10101000120590911305A0911405B09115058093C8
:10102000F2059093F305A093F405B093F505809134
:10103000F2059091F305A091F405B091F5050097A4
:10104000A105B10561F0233009F06FC1977080935D
:10105000F2059093F305A093F405B093F50564E1D0
:1010600070E080E090E00E9413040E9436026091DC
:10107000F2057091F3058091F4059091F5050F90BC
:101080000F900F900F90DF91CF911F910F91FF90D4
:10109000EF90DF90CF90BF90AF909F908F907F9018
:1010A00008951092F7051092F6058FEF9FEFDC017F
:1010B0008093F2059093F305A093F405B093F505A2
:1010C00081E07BCF80917F069091800682349105EC
:1010D00008F4E8CE80917F069091800680379105D4
:1010E00008F0E0CE30E020E080E090E0DC01F901A3
:1010F000EF57F94F408151814930510508F4D2CE64
:10110000408151814231510508F0CCCEF901ED57B3
:10111000F94F408151814631510528F0408151817C
:101120004732510588F0408151814630510508F41D
:10113000B9CE408151814D30510508F0B3CE880FB2
:10114000991FAA1FBB1F05C0880F991FAA1FBB1F8D
:1011500081602C5F3F4F2038310549F620E230E0B6
:101160003093F7052093F605A3CFAB28A9F4019798
:1011700099F4CC0CDD1CEE1CFF1CF2CE1093F7058D
:101180000093F605C092F205D092F305E092F405C3
:10119000F092F50583E011CF8091FA059091FB055F
:1011A000181619060CF08EC081E090E09C838B83AA
:1011B000E091F805F091F90582819381899708F40F
:1011C00081C0828193818734910508F07BC082E0E1
:1011D00090E09C838B83848195810B9708F472C087
:1011E00084819581459708F06DC083E090E09C83F1
:1011F0008B831A8219824CEB51E0BE016F5F7F4FE7
:10120000CE0103960E94470281115CC04CEB51E075
:10121000BE016F5F7F4FCE0103960E94470281306F
:1012200009F050C010E000E0C12CD12C76012091D3
:10123000FA053091FB058B819C81821793070CF096
:101240005DC04CEB51E0BE016F5F7F4FCE01039656
:101250000E944702982EA82EB12C0330110539F1B7
:101260004CEB51E0BE016F5F7F4FCE0103960E94B1
:101270004702782E882E912C0330110559F44CEB3F
:1012800051E0BE016F5F7F4FCE0103960E9447027F
:10129000781218C0A114B10429F1AA94AB2891F4D2
:1012A000892881F4CC0CDD1CEE1CFF1C24C04CEB07
:1012B00051E0BE016F5F7F4FCE0103960E9447024F
:1012C000981671F28FEF8093F1051092F705109246
:1012D000F6051092F2051092F3051092F4051092A3
:1012E000F5056DCE8A94892869F7CC0CDD1CEE1CBF
:1012F000FF1C6894C0F80F5F1F4F99CF1093F7053C
:101300000093F605C092F205D092F305E092F40541
:10131000F092F50584E051CE809312059093130569
:10132000A0931405B093150582CE243009F097CE12
:10133000A1608DCE60E070E0CB01A1CECF93C42F31
:1013400091E09093460680936806109247061092AB
:1013500069068AE696E00E94FE056C2F8AE696E012
:101360000E94FE0581E0CF910C94B704EF92FF92AA
:101370001F93CF93DF9394E1E92E97E0F92EF701C5
:101380001785182B412F6AE083850E949E09CFE1C3
:10139000D0E0CE010197F1F740E8410F6AE0F70194
:1013A00083850E949E09CE010197F1F7412F6AE0E3
:1013B000F70183850E949E092197F1F7DF91CF9174
:1013C0001F91FF90EF9008951F93CF93DF93182FF5
:1013D00082958F700E94B609CFE1D0E0CE010197CF
:1013E000F1F7812F8F700E94B6092197F1F71092C3
:1013F0001906DF91CF911F910895CF93DF93C4E138
:10140000D7E09F8590619F870E94E4098F8590E1D6
:1014100089278F87DF91CF910895CF93DF93EC01D8
:101420008991882319F00E94FD09FACFDF91CF91AD
:1014300008950E94E4098BE79CE00197F1F7089575
:10144000CF93DF93EC01862F61110E94190ACE0120
:10145000DF91CF910C940D0ACF92DF92EF92FF9221
:101460000F931F93CF93DF93C82F80E8860F10EC64
:10147000160FC032A9F40E94190A84E994E00E9470
:101480000D0A812F0E94190A84E994E0DF91CF911F
:101490001F910F91FF90EF90DF90CF900C940D0A69
:1014A000C0539C2F990FC90F0E94190AF12CE12CEF
:1014B000D0E0CE0188509C4F6C01F601EE0DFF1D6F
:1014C00084910E94FD099FEFE91AF90A83E0E8166A
:1014D000F10499F7812F0E94190A10E000E0C6522A
:1014E000DC4FFE01E00FF11F84910E94FD090F5FA8
:1014F0001F4F03301105A9F7DF91CF911F910F9175
:10150000FF90EF90DF90CF90089581E00C94190A3E
:10151000CF93DF93C0911D07D0E0209759F08C2F17
:101520000E94E80362E070E080E090E00E94130413
:101530002197F3CF82E080931B07DF91CF910C942A
:10154000850ACF92DF92EF92FF92CF93DF93809143
:101550001B07811170C00E9445046B017C018091C2
:10156000140790911507A0911607B0911707C81698
:10157000D906EA06FB0631F10E944504C090140723
:10158000D0901507E0901607F09017076C197D09A9
:101590008E099F09683E73408105910500F5809191
:1015A0001807909119070A970CF445C080911E07FF
:1015B000813049F5DF91CF91FF90EF90DF90CF9090
:1015C0000C94880A0E944504C61AD70AE80AF90A48
:1015D00088EEC81683E0D806E104F10400F3809198
:1015E000180790911907019690931907809318078F
:1015F0000E944504609314077093150780931607A3
:1016000090931707CCCF8230B1F4C0911D07D0E082
:1016100080911C078C171D065CF48C2F0E94E80338
:1016200062E070E080E090E00E9413042197F0CF28
:1016300081E080931B07DF91CF91FF90EF90DF90C7
:10164000CF900895E82FF0E0EE0FFF1FE658FB4F14
:101650008081860F80680C94190ACF93813059F4E9
:1016600080E80E94190AC0E180E20E94FD09C15091
:10167000D9F7CF91089580ECF4CFDF92EF92FF92EB
:101680000F931F93CF93DF9380E40E94190A02EB1C
:1016900013E0C8E08C2F8064D8E0D80F7801DD24F7
:1016A000D394D80E0E94190AF70184910E94FD0973
:1016B000F5E0EF0EF11C8D2DDD12F1CFC85F0F5F4D
:1016C0001F4FC03339F780E8DF91CF911F910F9101
:1016D000FF90EF90DF900C94190A0F931F93CF9314
:1016E000DF9380E40E94190ACAEAD3E0FE018491E4
:1016F0000E94FD092196F3E0C23BDF07B9F7C2EA79
:10170000D3E0FE0184910E94FD092196F3E0CA3ADC
:10171000DF07B9F7CAE9D3E0FE0184910E94FD0911
:101720002196F3E0C23ADF07B9F7C2E9D3E0FE0140
:1017300084910E94FD092196F3E0CA39DF07B9F7C9
:10174000CAE8D3E0FE0184910E94FD092196F3E0EE
:10175000C239DF07B9F7C2E8D3E00AE813E0FE01B7
:1017600084910E94FD0921960C171D07C1F7CAE755
:10177000D3E0FE0184910E94FD092196F3E0C23876
:10178000DF07B9F7C2E7D3E00AE713E0FE0184916F
:101790000E94FD0921960C171D07C1F780E8DF9113
:1017A000CF911F910F910C94190ACF93C82F80E805
:1017B0008C0F0E94190A82E00E94FD0982E00E94BB
:1017C000FD0980EC8C0F0E94190A81E00E94FD093E
:1017D00081E0CF910C94FD091F93CF93DF93162FD7
:1017E000D42FC22FEBECF9E33197F1F7E82FF0E0BB
:1017F000EC55FA4F40E060E080810E949E09E12FA5
:10180000F0E0EC55FA4F40E060E080810E949E09D4
:10181000DF3FA1F0CF3F91F0ED2FF0E0EC55FA4F14
:1018200040E060E080810E949E09EC2FF0E0EC55E2
:10183000FA4F40E060E080810E949E098BEC99E3C2
:101840000197F1F7DF91CF911F910895CF92DF9229
:10185000EF92FF920F931F93CF93DF93F82ED62E24
:10186000C42FD22F2E2D2150330BC901509130059A
:1018700010E0E12C61E070E08F3F9807B1F09B0130
:10188000082E01C0220F0A94EAF7402F4223E52FC9
:10189000E2234E1303C0E1E0CE1203C0442319F04B
:1018A000E22A0197E9CF122BFCCFED2DF0E0EC55A9
:1018B000FA4F0081412F60E0802F0E949E09EF2D9A
:1018C000F0E0EC55FA4FC08040E060E08C2D0E94C3
:1018D0009E09CF3FA1F0DF3F91F0ED2FF0E0EC55F6
:1018E000FA4F412F60E080810E949E09EC2FF0E0CA
:1018F000EC55FA4F40E060E080810E949E092D2F58
:101900004C2F6D2D8F2D0E94EC0B4E2D60E08C2DF9
:101910000E949E0940E060E0802F0E949E09CF3F18
:10192000A1F0DF3F91F0EC2FF0E0EC55FA4F4E2D97
:1019300060E080810E949E09ED2FF0E0EC55FA4FA7
:1019400040E060E080810E949E092D2F4C2F6D2D7C
:101950008F2DDF91CF911F910F91FF90EF90DF902E
:10196000CF900C94EC0BCF92EF920F9330E020E0ED
:1019700000E090E047E050E061E070E0FC01022E02
:1019800002C0F595E7950A94E2F7E0FF0AC0FA0174
:10199000E21BF30BDB0102C0AA0FBB1FEA95E2F7C3
:1019A0000A2B2F5F3F4F2830310541F78091FF050B
:1019B000813071F4CC24C39498E0E92E2FEF4FEFDF
:1019C00065E084E00E94260C0F91EF90CF9008957F
:1019D0008230D1F7CC24C39488E0E82E27E046E09B
:1019E000EFCF809303016093FE058091FF05815046
:1019F000823088F48091040127E030E0281B31090F
:101A000087FD339581E090E001C0880F2A95EAF7C1
:101A1000862B0C94B30C0895CF93C82F0E94B20666
:101A200027E030E02C1B310981E090E001C0880FF5
:101A30002A95EAF72091FD0521110FC0C0930301FB
:101A40008093FE05C0930001809316056091FE050A
:101A500080910301CF910C94F10C2091FE05322F5F
:101A6000382329F0809582238093FE05EFCF822BC7
:101A7000FBCFCF92EF920F93CF939091F0059130DF
:101A800031F1C62EC82F80913005C81302C06623DD
:101A900079F0809101068130F9F4E0902F050C2F48
:101AA0002FEF4FEF61E080E00E94260CC0933005DD
:101AB00081E08093E6050E9445046093E2057093FF
:101AC000E3058093E4059093E505C093E105CF918C
:101AD0000F91EF90CF900895823041F7E0902F055D
:101AE0000C2F23E042E0DECFCF93DF93CDB7DEB7FC
:101AF00029970FB6F894DEBF0FBECDBF48E050E087
:101B000060E270E0CE0101960E94DD2A198660EC49
:101B1000CE0101960E94200A29960FB6F894DEBFE6
:101B20000FBECDBFDF91CF910895CF93DF93EC012E
:101B3000862F61110E94190A40E150E0BE0188E041
:101B400096E00E94142A1092190688E096E0DF9130
:101B5000CF910C940D0A90910706282F291B330B67
:101B6000B9012DE26115710509F420E2CB0177FF7F
:101B700004C088279927861B970B309106063111E0
:101B800045C06AE070E00E94452A30E040910506B9
:101B9000413011F5409104064130F1F49F938F9349
:101BA0007F936F933F932F9388E994E09F938F9354
:101BB00088E096E09F938F930E940C2B8DB79EB781
:101BC0000A960FB6F8949EBF0FBE8DBF6FEC74E0FF
:101BD00088E096E00C94E42A9F938F937F936F9311
:101BE0003F932F9380EA94E09F938F9388E096E051
:101BF0009F938F930E940C2B2DB73EB7265F3F4FCC
:101C00000FB6F8943EBF0FBE2DBFE0CF313009F0C4
:101C10005CC045E380FF40E39595879550E03091A7
:101C200005063130C9F5309104063130A9F53091FF
:101C300003063833C8F05F934F939F938F931F929F
:101C40002F9389EA94E09F938F9388E096E09F9387
:101C50008F930E940C2B8DB79EB70A960FB6F894FF
:101C60009EBF0FBE8DBFB2CF5F934F939F938F9355
:101C700081EB94E09F938F9388E096E09F938F93FE
:101C80000E940C2B2DB73EB7285F3F4F0FB6F8943C
:101C90003EBF0FBE2DBF9ACF5F934F939F938F93FD
:101CA0001F922F9387EB94E09F938F9388E096E0A9
:101CB0009F938F930E940C2B8DB79EB70A960FB6F9
:101CC000F8949EBF0FBE8DBF81CF323009F07ECF1A
:101CD0003091040647E954E0313011F045E954E011
:101CE000672BC1F41F921F925F934F9380EC94E097
:101CF0009F938F9388E096E09F938F930E940C2B85
:101D00002DB73EB7285F3F4F0FB6F8943EBF0FBECA
:101D10002DBF5CCF9F938F931F922F935F934F9311
:101D200087EC94E09F938F9388E096E09F938F9346
:101D30000E940C2B8DB79EB70A960FB6F8949EBFE3
:101D40000FBE8DBF43CFCF92DF92EF92FF920F93E2
:101D50001F93CF93DF93D0911F0781E080934606B6
:101D6000D0936806109247061092690669E08AE6E9
:101D700096E00E94FE0581E00E94B70481119EC09A
:101D80000E94EE036B017C0180914006811165C0C9
:101D900081E08093400680933F069FEF90933E063C
:101DA00010923D0610923C0680931B0680911B0604
:101DB000DD0FD82BD0931B0680911A06813009F0D5
:101DC0008BC010921A060E94EE036B017C01809179
:101DD0001B068093BB008091420690914306A09120
:101DE0004406B0914506892B8A2B8B2BA1F00E94CB
:101DF000EE03009142061091430620914406309173
:101E000045066C197D098E099F09061717072807D3
:101E1000390708F443C08091BC0083FDD8CF85EC1E
:101E20008093BC000E94EE036B017C018091400610
:101E3000813009F453C080913D06C1E0811102C098
:101E4000C0913D06ACE1B6E0E1E3F5E080E08C173F
:101E500051F19D9191938F5FFACF809142069091BD
:101E60004306A0914406B0914506892B8A2B8B2B03
:101E700009F48ACF0E94EE030091420610914306B6
:101E800020914406309145066C197D098E099F0901
:101E9000061717072807390708F076CF8091410603
:101EA0000E949604C0E01092A305C093A205CC2323
:101EB00029F08AE696E00E94B705C82FC07681E037
:101EC000C03609F480E0DF91CF911F910F91FF9010
:101ED000EF90DF90CF90089585EEA2CF80914206DB
:101EE00090914306A0914406B0914506892B8A2B18
:101EF0008B2B09F49BCF0E94EE03009142061091B8
:101F0000430620914406309145066C197D098E09DF
:101F10009F09061717072807390708F087CFBECF94
:101F2000CF92DF92EF92FF920E9445046B017C01F9
:101F30000E9445046C157D058E059F0589F00E9461
:101F400045046C197D098E099F09693B7B40810519
:101F50009105A8F080E0FF90EF90DF90CF9008957A
:101F60000E944504A7019601261B370B480B590B0D
:101F7000DA01C901893B9B40A105B10558F70E94D0
:101F8000A30E813041F364E170E080E090E00E94B4
:101F90001304CECF85ED8093BC00809142069091D2
:101FA0004306A0914406B09145060796A11DB11DB8
:101FB00023E0B695A795979587952A95D1F7209117
:101FC000BC0024FD03C010924006089540914206D3
:101FD000509143066091440670914506452B462B6F
:101FE000472B69F30097A105B10541F025E32A9538
:101FF000F1F700000197A109B109E1CF80914106F5
:102000000C9496040C942B2A6091040184E090E0D7
:102010000E94021080910401082E000C990B60911F
:10202000E105C2960E9402101092E6051092E205A8
:102030001092E3051092E4051092E5050895EF92E1
:10204000FF920F931F93CF93DF938B01005F1F4F7E
:10205000EB017C01E61AF70AFE016491C7018C0FBF
:102060009D1F0E9402102196C017D107A9F7DF918A
:10207000CF911F910F91FF90EF9008950C94232A18
:10208000CF93DF93C82F809102068093E1050E94D1
:102090000410C09304016C2F84E090E00E940210B1
:1020A00080910106882391F1D091F005D13051F053
:1020B00060E080E00E94390D62E070E080E090E036
:1020C0000E94130480910401082E000C990BC29603
:1020D0000E943E10809302069091DC05981710F440
:1020E000909302068091030690910206981710F4CF
:1020F00080930206C0910206D13021F061E08C2F5E
:102100000E94390DC093E1050E9404108091FF05E3
:1021100081508230F0F4C091FE058C2F0E94B30CE8
:1021200062E070E080E090E00E941304809104017E
:1021300027E030E0281B310987FD339581E090E0EE
:1021400001C0880F2A95EAF78C2BDF91CF910C9470
:10215000B30CDF91CF910895883020F490E0CC96B5
:102160000C943E1082E008954F925F926F927F929E
:102170008F929F92AF92BF92CF92DF92EF92FF9297
:102180000F931F93CF93DF93582E4B01E0900401E0
:102190000E2C000CFF08EB0110E000E087E0C82ED9
:1021A000D12CAA24A394B12C2DE2722E39E4432E13
:1021B000802F0E94AC108130E9F4E016F106E1F4C2
:1021C00048820F5F1F4F21960830110589F7F401EF
:1021D0001086DF91CF911F910F91FF90EF90DF90CC
:1021E000CF90BF90AF909F908F907F906F905F90B7
:1021F0004F900895823011F47882E3CFC601801B9E
:10220000910B950102C0220F331F8A95E2F7C90195
:10221000852191F381E3800F8883D3CFCF93DF9320
:10222000C091E705D091E80520912C0530912D054E
:10223000C217D30711F4813059F5D0932D05C093FF
:102240002C050E94740D80EC0E94190A80910006F2
:102250008130F1F488E090E00E943E109E01D7FFAB
:1022600002C02F5F3F4F35952795C82FC21B83E5CE
:102270000E94FD098C2F6AE00E94392AC92F805DD7
:102280000E94FD0980E38C0FDF91CF910C94FD0932
:10229000DF91CF910895FF920F931F93CF93DF9318
:1022A000F82E8150990BEC0184E0CC0FDD1F8A954C
:1022B000E1F708E016E0C451D440CE01800F911F31
:1022C0000E943E10F80181938F01F6E008311F074C
:1022D000A1F71092180681E060E8F81260EC88E03F
:1022E00096E0DF91CF911F910F91FF900C94200AFF
:1022F000CF938AE090E00E943E1080932F0561E02A
:1023000070E001C0660F8A95EAF7CFEFC60FC09361
:1023100007068BE090E00E943E10809306068FE156
:1023200090E00E943E108093030680E290E00E94BD
:102330003E10C81730F18093DC0590910306809120
:10234000DC05891778F41092030660E08FE190E0D5
:102350000E940210609107066093DC0580E290E025
:102360000E9402108091DC0590910306891B990B55
:1023700097FF03C09195819591098093DB05CF91DB
:102380000895C093DC056C2F80E290E00E9402105B
:10239000D4CF0F931F93CF93DF9324E0880F991F1F
:1023A0002A95E1F7C8E0D6E08C0104511440C80139
:1023B0008C0F9D1F0E943E10899386E0C831D8077C
:1023C000B1F710921806DF91CF911F910F910895E8
:1023D0008AE190E00E943E108093EF05823029F45C
:1023E00081E0809305060C943D0B813021F410921E
:1023F00005060C946D0B83508230C8F381E0809306
:10240000EF05F5CFEF92FF921F93CF93DF937C01FF
:102410000E943E10182FC70101960E943E10D82F2F
:10242000C70102960E943E10C82FC70103960E9462
:102430003E10682F70E0762F66276C0F711D90E0BC
:1024400080E02D2F30E0322F2227210F311DCB01CC
:1024500077276627620F731F811D911DDF91CF9132
:102460001F91FF90EF9008950F931F93CF93DF93E9
:1024700002EB15E0C8ECD0E0CE010E940212F80198
:1024800061937193819391938F012496CC3DD105F3
:1024900099F7DF91CF911F910F910895CF92DF921D
:1024A000EF92FF920F931F93CF93DF93C090C705D6
:1024B000D090C805E090C905F090CA050CED10E079
:1024C000C5E0D0E0C8010E940212C616D706E80691
:1024D000F90641F021960C5F1F4FC731D10591F7E6
:1024E000CFEFDFEFCE01DF91CF911F910F91FF90E2
:1024F000EF90DF90CF900895EF92FF920F931F938C
:10250000CF93DF93EC0183E0CC0FDD1F8A95E1F7D9
:1025100090E2909308069093090690930A06909390
:102520000B0690930C0690930D0690930E069093D5
:102530000F06109210068E010A5B1F4F98E0E92EDD
:1025400096E0F92EC25BDF4FC8010E943E1088233F
:1025500041F0F70181937F010F5F1F4F0C171D079B
:1025600099F7DF91CF911F910F91FF90EF90089510
:102570001F93CF93DF93182FC091D105D091D2052F
:10258000C830D10518F4CE010E947C12CE01089704
:102590008230910510F40E94C91185E08C9FF001F2
:1025A0008D9FF00D1124EB56FE4FD081D150C1818B
:1025B000C1506C2F8D2F0E94220B88E096E00E9464
:1025C0000D0A113061F46091CB056C0F8D2F0E94C4
:1025D000220B8FEFDF91CF911F910C94FD09DF91BA
:1025E000CF911F9108951F93CF93DF93C82FD62FBC
:1025F0008091010690910506913009F065C088230D
:1026000009F412C18C2F0E94AB0D8091F00581302E
:1026100029F50E94850A80E00E94D50B84E00E9483
:10262000D50B88E00E94D50B80910606823031F0F0
:102630008BEC0E94190A81EA0E94FD098CE00E943D
:10264000D50B8FEC0E94190A809100068130D1F5DC
:1026500080E0DF91CF911F910C94FD0980910806D5
:10266000D0910906C0910A0610910B068D32E1F453
:1026700080E00E94D50BDD32D9F484E00E94D50BB6
:10268000CD32D9F488E00E94D50B809106068230C5
:1026900031F08BEC0E94190A81EA0E94FD096CE07E
:1026A000812F0E942C0ACDCF60E00E942C0AE3CF3C
:1026B00064E08D2F0E942C0AE3CF68E08C2F0E94EB
:1026C0002C0AE3CF80E2C5CF8823A1F08C2F0E9493
:1026D000AB0D28E036E0F90101900020E9F79F01F9
:1026E0002950364080ED821B0E94190A88E096E04E
:1026F0000E940D0AD13059F48091F0058130D1F457
:102700000E94740D60EC82E193E00E94950D80912F
:10271000EF05813009F088C08091F005813009F41F
:1027200083C080910106811111C0DF91CF911F916B
:102730000C94740D8091EF05833049F78091050664
:10274000813029F381E00E940E11E1CF6091DB0519
:102750002C2F30E0611121C0F4E6CF9FC00111247D
:102760006FEF70E00E94452A87E0869FE001879F17
:10277000D00D1124CE0164E670E00E94452A9B0131
:1027800090E080E041E082179307C4F4FC01FF274A
:10279000E85FF94F40830196F6CF80910306281B2E
:1027A000310937FF03C031952195310944E6429F35
:1027B000C001439F900D112470E0D4CFC90137FFB1
:1027C00002C090E080E0482F27303105B4F441E0AA
:1027D000480F9927FC01E85FF94F55E05C9FC00165
:1027E0005D9F900D112464E670E00E94452A8BEFF6
:1027F000289F600D11246D5F608382E02F5F3F4F43
:10280000273031053CF4E42FF0E0E85FF94F808396
:102810004F5FF4CF10920F0660EC88E096E0DF91F6
:10282000CF911F910C94200ADF91CF911F910895B1
:102830000F931F93CF93DF93CDB7DEB729970FB6D2
:10284000F894DEBF0FBECDBF80910506813009F43C
:1028500040C081E00E942D0B8091FF058823C9F1C3
:1028600010910401812F0E94AC10813061F4812FFE
:10287000110F990B0E947C121092100660E888E0FC
:1028800096E00E94200A85E090E00E943E10182FFA
:102890008093030186E090E00E943E10082F809311
:1028A000FE05812F0E94AC10811113C08091FD059F
:1028B000811131C0812F110F990B0E947C1210924F
:1028C000100668E080E00E94220B88E096E00E94FB
:1028D0000D0A61E0809102060E94F31280910106C8
:1028E000882371F080910506813051F48FEC0E94AD
:1028F000190A809100068130D9F480E00E94FD0918
:1029000029960FB6F894DEBF0FBECDBFDF91CF91F1
:102910001F910F91089568E080E00E94220BBE0194
:102920006F5F7F4F802F0E94B410CE010196CFCFF2
:1029300080E2E4CF80911B07882361F080911D071E
:102940000E94E8038091FC05813011F40E94181464
:1029500010921B0710921907109218070E94450445
:1029600060931407709315078093160790931707C9
:1029700008950F931F93CF93DF938C01EB010E9477
:102980009A140E94850A60E882ED94E00E94200A71
:1029900068E8C8010E94200A60EC87ED94E00E947C
:1029A000200A68ECCE01DF91CF911F910F910C941A
:1029B000200A1092FC05109200061092E805109271
:1029C000E70510922D0510922C0560E081E10E9430
:1029D0002C0360E080E10E942C038091020680932A
:1029E000E1050E9404108091FF058150823048F576
:1029F00080E00E94B30C0E94850A0E949A1463E84A
:102A00008BEB91E00E94950D60E082E692E00E94DF
:102A1000950D60E273E080E090E00E94130460E0B6
:102A200087E00E942C030E946D0B0E94850A809112
:102A30001E07813081F081E00E944B1182E00C94EE
:102A40004B118091010681508330A8F661E080E04F
:102A50000E94390DD0CF0895CF93C62F0E94390D13
:102A60006C2F80910206CF910C94F312CF93DF93D9
:102A700090910106992361F09091FC05992341F012
:102A800090910206823039F42091DC05921738F0DB
:102A9000DF91CF910895209103062917C8F7D62F0B
:102AA000C82F0E949A149091F005809102069130EF
:102AB000C9F5C230C9F51092F00561E00E94F31229
:102AC000809102069091DC05D13071F4891748F4A9
:102AD000282F30E02F5F3F4F8F5F9217130609F0CA
:102AE00064F4909302060BC020912E05692F621B9F
:102AF000770B86171706ACF7820F8093020660E00B
:102B000080910206DF91CF910C942C1520912E0517
:102B1000692F620F7727771F8617170611F30CF3BB
:102B2000821BEBCFC23061F290910306D13071F776
:102B30009817B8F6482F4150550B81509417150639
:102B4000E4F2CFCF80910106882331F10E949A14DC
:102B50008091F005811119C08091DB058823E1F097
:102B600060E081E10E942C0360E080E10E942C0380
:102B700061E0809103060E942C1581E08093F005AE
:102B800061E0809102060C94F3121092F00561E06E
:102B9000809102060C942C150895DF92EF92FF921B
:102BA0000F931F93CF93DF93E82E0091CF051091E1
:102BB000D005C8010E943E10F82EC82FD0E0D09357
:102BC000B105C093B00580911D070E94E80307314D
:102BD000110571F4F0921C078F2D0E94E803C801C3
:102BE0004F97029708F08AC08F2D0E94AB0D33C01B
:102BF0000831110519F4F0921D07F1CF0E311105BE
:102C000071F780910606813029F09091010693308A
:102C100009F043C080E3F0FC85E31F928F93D595C4
:102C2000C795DF93CF9389EB94E09F938F9388E0D0
:102C300096E09F938F930E940C2BEDB7FEB73896CA
:102C40000FB6F894FEBF0FBEEDBF6FEC74E088E0E6
:102C500096E00E94E42A8091D1059091D2052BE064
:102C6000289F8001299F100D1124015F1C4FF8013E
:102C7000F180DD24DA94DF0CC081C1506D2D8C2FE2
:102C80000E94220BD0E0F8011281D11708F0E2C0B7
:102C900080E20E94FD09DF5FF8CF823099F4DF9374
:102CA000FF928CED94E09F938F9388E096E09F9342
:102CB0008F930E940C2B0F900F900F900F900F90FE
:102CC0000F90C3CFCE016AE070E00E94452A9F9327
:102CD0008F937F936F9382EE94E09F938F9388E01E
:102CE00096E09F938F930E940C2BEDB7FEB738961A
:102CF0000FB6F894FEBF0FBEEDBFA7CF0B30110586
:102D0000A1F463EB72E0209729F0C130D10539F4CA
:102D10006CEA72E088E096E00E940D2A9CCF67EA98
:102D200072E0229709F097CFF5CF0131110581F4B8
:102D3000209719F463EA72E0EDCF6CE972E0C130DC
:102D4000D10541F365E972E0229709F084CFE2CF23
:102D5000C801CC97089748F46EE872E02097D1F24A
:102D600068E872E0219731F7D5CF0231110569F497
:102D7000209701F360E872E0C130D10559F268E7AD
:102D800072E0229709F067CFC5CF065911090830C4
:102D9000110578F5E7E1F5E020E135E040E351E3A6
:102DA0008F2D90E0F0FE23C0568395958795F82EE1
:102DB00031972E173F07A1F787E195E010921E0586
:102DC0009F938F93DF93CF938AEE94E09F938F939B
:102DD00088E096E09F938F930E940C2BEDB7FEB78F
:102DE00038960FB6F894FEBF0FBEEDBF34CF4683C2
:102DF000DCCF8091D1059091D2052BE0289FF00186
:102E0000299FF00D1124E15FFC4F8281813099F4FC
:102E1000DF93CF9387EE94E09F938F9388E096E0C3
:102E20009F938F930E940C2B0F900F900F900F90F9
:102E30000F900F9010CF823029F4DF93CF9382EF61
:102E400094E0EACF833009F006CFDF93CF9387EF8A
:102E500094E0E2CF6D2D8C2F0E94220B88E096E04B
:102E60000E940D0AF1E0EF1227C06091CB0561507E
:102E70006F0D8C2F0E94220B8091D305823091F42C
:102E8000C0E008E016E0F80101900020E9F7CF016A
:102E900089509640C817190678F48FEF0E94FD09F3
:102EA000CF5FF1CF8FEFDF91CF911F910F91FF9007
:102EB000EF90DF900C94FD09DF91CF911F910F915E
:102EC000FF90EF90DF9008950F931F93CF93C82F3B
:102ED0008091D1059091D2052BE0289FF001299F88
:102EE000F00D1124E15FFC4F25813681C2171306D6
:102EF00011F00CF0C22F2BE0289FF001299FF00D5C
:102F00001124E15FFC4F83819481C81719060CF4EA
:102F1000C82F0091CF051091D0050F31110531F464
:102F20008091DC058C1748F4C82F07C000321105CA
:102F3000C1F480910306C817B8F36C2FC8010E9432
:102F400002108091CF059091D005479721F0809194
:102F50001D070E94E80380E0CF911F910F910C9410
:102F6000CD150731110551F480911D07C81710F0D8
:102F7000CFEFC80F8C2F0E94E803DFCF0831110577
:102F8000E1F680911C078C17C0F2C1E0C80FD5CFC5
:102F90000F931F93CF93DF93C82F0E94850A8091D0
:102FA0001D070E94E803C093C60526E0C29FF001FA
:102FB0001124EB57FD4F848190E090932B05809373
:102FC0002A05858190E090932905809328058281C8
:102FD00090E09093AF058093AE05C381D0E08091DF
:102FE000AE059091AF05C817D9070CF44EC00E94EA
:102FF00030068091D305813009F03BC00091D105A6
:103000001091D205000F111F000F111F0B5F1E4FF3
:10301000D80111966C91119761508C9181500E944A
:10302000220BD8011296ED91FC91FF27EE0FFF1FA6
:10303000E654FD4F85919491A8E0B6E08850964003
:10304000FC01EA0FFB1FE491ED93EE2321F0E6E093
:10305000A931BE07A9F788E096E00E940D0A809189
:10306000AE059091AF0501969093AF058093AE05A4
:10307000B6CF823021F480E00E94CD15F0CF8330AE
:1030800071F780E00E94B812EACF80912A059091F2
:103090002B059093AF058093AE050E94300680917A
:1030A000D3058230C1F41092CB0580E00E94CD158B
:1030B0008091ED05813051F08091EE05813031F441
:1030C0000E94E2029093DF058093DE05DF91CF91AD
:1030D0001F910F910895833059F71092CB0580E02E
:1030E0000E94B812E5CF9091D305933011F40C945F
:1030F000B812923011F40C94CD1508950E94450435
:103100006093D4057093D5058093D6059093D70529
:103110008091D805811107C081E08093D805809106
:10312000D8050C9473181092D805F9CF0E94450465
:103130006093D4057093D5058093D6059093D705F9
:103140001092D80580E00C947318AF92BF92CF9282
:10315000DF92EF92FF920F931F93CF93DF9361E083
:1031600090E080E00E940210C1E0C093FC05109244
:10317000040160E084E090E00E94021087E0809308
:103180000301C093FE0567E085E090E00E94021015
:103190006091FE0586E090E00E9402101092FD050D
:1031A00060E087E090E00E940210C093060661E0B4
:1031B0008BE090E00E9402108CE080932E056CE082
:1031C0008EE190E00E94021088E080932F0568E075
:1031D0008AE090E00E94021020912F0581E090E0AB
:1031E00001C0880F2A95EAF7815080930706109254
:1031F000030660E08FE190E00E94021060910706F4
:103200006093DC0580E290E00E94021060E08EE0B6
:1032100090E00E94021084E680931C0764E687E138
:1032200090E00E9402108FEF80931D076FEF88E1FE
:1032300090E00E94021080911D070E94E80383E045
:1032400080931E0763E089E190E00E940210C09322
:10325000ED0561E08CE090E00E940210C093EE0565
:1032600061E08DE090E00E940210C093010661E0F1
:1032700081E190E00E9402108FE38093A4058EE329
:103280008093A5058DE38093A6058CE38093A70525
:103290006FE386E990E00E9402106091A50587E93E
:1032A00090E00E9402106091A60588E990E00E94DB
:1032B00002106091A70589E990E00E940210C09376
:1032C000FF0561E082E190E00E9402108BE38093B1
:1032D000A8058AE38093A90589E38093AA0588E37A
:1032E0008093AB056BE38AE990E00E940210609145
:1032F000A9058BE990E00E9402106091AA058CE973
:1033000090E00E9402106091AB058DE990E00E9470
:103310000210C093EF0561E08AE190E00E94021084
:1033200060E083E190E00E94021060E084E190E0C0
:103330000E9402106CE388E090E00E9402106AE0B4
:1033400089E090E00E940210E8EFF2E0659174914C
:1033500084EF91E00E941F10EAEFF2E06591749112
:1033600084E092E00E941F1006E410E0C2E3D0E087
:103370009CEFE92E94E0F92E60E0CE010E9402104D
:10338000CE010A962C2F2253243008F042C061E06F
:103390000E94021068E872E088E096E00E940D2A20
:1033A000CE0101979F938F9388E096E09F938F9330
:1033B000FF92EF929F938F930E940C2B88E0C82E70
:1033C00086E0D82E580188E0A80EB11CEDB7FEB7F4
:1033D00038960FB6F894FEBF0FBEEDBFF6016191AF
:1033E0006F01C8010E9402100F5F1F4F0A151B05D5
:1033F000A9F72196CA33D10509F0BECFDF91CF914D
:103400001F910F91FF90EF90DF90CF90BF90AF9002
:10341000089560E00E9402106EE872E0BDCFCF9286
:10342000DF92EF92FF920F931F93CF93DF930E944F
:10343000850A8FEF0E94E803C4E0D0E060E88FE3E4
:1034400092E00E94950D219779F06CE271E080E0A6
:1034500090E00E9413040E94850A66E470E080E018
:1034600090E00E941304EACF68EE73E080E090E001
:103470000E9413040E94850A60E88EE292E00E9496
:10348000950D0E94900F813009F08BC082E00E9460
:103490002D0B60EC8DE192E00E94950D0E94A51825
:1034A00068EE73E080E090E00E9413040E94850AB9
:1034B00060E889E092E00E94950D8FE30E94FD098B
:1034C0000E94900F813009F075C00E9436020E9460
:1034D000850A60E889E092E00E94950D8AE30E94E7
:1034E000FD0960ED77E080E090E00E94130401ECBC
:1034F00011E0C8ECD0E082E00E942D0BF80185912C
:10350000949161EC0E94950DEE24E394F12C0E94BD
:10351000B4066093C7057093C8058093C90590935E
:10352000CA05672B682B692B09F09CC00E943602E4
:1035300081E0E8126BC082E00E942D0B66E970E02A
:1035400080E090E00E941304E12C0E94A30E8130E1
:1035500009F06CC082E00E942D0B61EC8CEF91E0D1
:103560000E94950D64EF71E080E090E00E941304EA
:103570001092120510921305109214051092150561
:1035800068EE73E080E090E00E9413040E9436022F
:103590000E5F1F4F2496C43281E0D80709F0ABCFED
:1035A00017C082E00E942D0B60EC82E192E00E9445
:1035B000950D76CF82E00E942D0B60EC82E192E0C7
:1035C0000E94950D68EE73E080E090E00E94130485
:1035D00081E0809304060E9434120E94850A0E94B2
:1035E0009A1460E881EF91E00E94950D64EF71E01C
:1035F00080E090E00E941304DF91CF911F910F9122
:10360000FF90EF90DF90CF900C94850AF394F8012F
:103610008591949161EC0E94950D6CE271E080E0DF
:1036200090E00E941304EE24E3948FCF87E28F157D
:1036300008F06DCF81E0809304060E94850A60EC5B
:1036400081EF91E00E94950D68EE73E080E090E0DC
:10365000DF91CF911F910F91FF90EF90DF90CF906E
:103660000C94130460EC82E095E00E94200AF801BB
:103670008591949161EC0E94950DC090C705D09002
:10368000C805E090C905F090CA056C2DCE010E94D6
:10369000021099278F2D7E2D6D2DCE0101960E944F
:1036A0000210B70188279927CE0102960E940210C6
:1036B0006F2D772788279927CE0103960E94021045
:1036C00057CFCF93DF9381E090E00E94C9114CE087
:1036D00050E064E075E088E096E00E94EF2A892BD4
:1036E000A9F480911406803389F4809115068E32F6
:1036F00069F48091160680538A3040F4EAEFF2E0D4
:103700006591749184E092E00E941F100E947811EC
:103710008EE190E00E943E1080932E0589E090E0BB
:103720000E943E108F3128F06EE189E090E00E9407
:10373000021084E090E00E943E1088300CF0B1C08E
:1037400080930401C09104010C2E000CDD0BE29665
:10375000CE010E943E10809302069091DC059817DE
:1037600010F4909302068091030690910206981738
:1037700010F48093020660910206CE010E940210AE
:1037800085E090E00E943E10C82F8093030186E000
:1037900090E00E943E108093FE0587E090E00E943A
:1037A0003E108093FD05C83034F087E0809303011C
:1037B00081E08093FE058091030180930001809158
:1037C000FE058093160581E190E00E943E10833053
:1037D00008F06AC08093010682E190E00E943E10EA
:1037E000833008F06AC08093FF058CE090E00E946F
:1037F0003E108093ED058DE090E00E943E10809396
:10380000EE0581E08093E00560E081E10E942C03F9
:1038100060E080E10E942C0386E990E00E943E1067
:103820008093A40587E990E00E943E108093A5054F
:1038300088E990E00E943E108093A60589E990E017
:103840000E943E108093A7058AE990E00E943E10F6
:103850008093A8058BE990E00E943E108093A90513
:103860008CE990E00E943E108093AA058DE990E0DB
:103870000E943E108093AB0587E190E00E943E10CD
:1038800080931C0788E190E00E943E1080931D0702
:1038900089E190E00E943E1080931E07DF91CF9156
:1038A0000895109204014ECF81E08093010661E0FB
:1038B00081E190E00E9402108FCF81E08093FF05AC
:1038C00061E082E190E00E9402108FCF8091CF05ED
:1038D0009091D0056091B0058A30910551F46093C4
:1038E0002F058AE090E00E9402100E9478110C944B
:1038F000611B8B309105B9F7609306068BE090E071
:10390000F2CF0E9434120E94611B109200061092A6
:10391000E8051092E70510922D0510922C0581E024
:10392000809304061092E6051092E2051092E305DA
:103930001092E4051092E5058091EE05813031F496
:103940000E94E2029093DF058093DE050895DF92E6
:10395000EF92FF920F931F93CF93DF93D82E0E9485
:10396000850A60911D0770E0809122070E948B03F9
:103970000E94850A0E9418140E949A1460E087E051
:103980000E942C038091FF058150823008F073C0A3
:1039900080E00E94B30C61E087E00E942C030E944B
:1039A000850A0E949A1463E88BEB91E00E94950DC2
:1039B00060E088E692E00E94950D60E273E080E0AE
:1039C00090E00E9413040E94850A63E881EB91E075
:1039D0000E94950D89E090E00E943E10C82FD0E033
:1039E00002EF14E088E0E82E86E0F82E2097E1F060
:1039F000DF93CF931F930F93FF92EF920E940C2BB4
:103A000067EC88E096E00E94200A0E94A30E2197AE
:103A10000F900F900F900F900F900F908130B1F595
:103A20000E940F1A0E94811C8091ED05813051F097
:103A30008091EE05813031F40E94E2029093DF051F
:103A40008093DE05DD2009F444C00E94850AC09100
:103A50001C07D0E080911D078C171D06F1F0ECF0DB
:103A60008C2F0E94E80362E070E080E090E00E940A
:103A700013042196EFCF809101068150833008F026
:103A80008ACF61E080E00E94390D85CF68EE73E057
:103A900080E090E00E941304A9CF10921B071092BF
:103AA0001907109218070E94450460931407709339
:103AB0001507809316079093170781E00E944B111A
:103AC00082E00E944B110E94900F813011F40E94FD
:103AD0000F1A0E94811C0E94850A84E090E00E94D7
:103AE0003E1080930401082E000C990BC2960E9490
:103AF0003E10809302068091ED05813049F483E009
:103B00008093E0058FEF9FEF9093DF058093DE05B4
:103B1000DF91CF911F910F91FF90EF90DF9008956B
:103B2000EF92FF920F931F93CF93DF93CDB7DEB742
:103B300062970FB6F894DEBF0FBECDBF9091FC0523
:103B4000992309F462C0182F0E949A148091FF05EE
:103B5000882309F45AC048E050E060E270E0CE01EA
:103B600001960E94DD2A198648E050E060E270E08C
:103B7000CE010A960E94DD2A1A8A812F0E94AC107B
:103B8000811168C08091FD0581114CC080910301B5
:103B9000082E000C990BE12EF12C8E159F05A9F132
:103BA00000910506013051F40E947C1248E050E07B
:103BB00068E076E0CE0101960E94FD2A812F0E94E6
:103BC0000C0D0130D1F4C7010E947C1248E050E096
:103BD00068E076E0CE010A960E94FD2ABE01665F8B
:103BE0007F4FCE0101960E94B91468EE73E080E029
:103BF00090E00E9413040E94850A0E94181460E954
:103C000071E080E090E00E94130462960FB6F89491
:103C1000DEBF0FBECDBFDF91CF911F910F91FF90FF
:103C2000EF90089500910506013039F4BE016F5FF1
:103C30007F4F8091FE050E94B410812F0E940C0DD1
:103C40000130D9F6BE01665F7F4F8091FE050E946C
:103C5000B410C4CF813099F680910401082E000C75
:103C6000990BE12EF12C8E159F0579F22091050616
:103C70002130E1F40E947C1248E050E068E076E0F8
:103C8000CE0101960E94FD2AC7010E947C1248E0E5
:103C900050E068E076E0CE010A960E94FD2ABE015F
:103CA000665F7F4FCE0101960E94B9140E94B20652
:103CB000812F0E94401080910506813009F09DCF30
:103CC00094CFCF92DF92EF92FF92CF93DF93C09188
:103CD000FC05C130E1F40E94A30E8823B9F1C4E1D0
:103CE000D0E00E94A30E882309F492C264E670E03B
:103CF00080E090E00E941304219799F70E94D91464
:103D000068EE73E080E090E00E94130417C00E9408
:103D1000A30E8823D9F066E970E080E090E00E946D
:103D2000130481E08093FC050E94A71C809104018C
:103D30000E9440100E94E8110E941814DF91CF9158
:103D4000FF90EF90DF90CF900C9436020E94B40663
:103D50006B017C01C092C705D092C805E092C905ED
:103D6000F092CA05C114D104E104F10409F459C266
:103D70008091BA059091BB05A091BC05B091BD059D
:103D8000C816D906EA06FB0629F00E944E128530B5
:103D9000910541F4CC2309F444C20E94B20661E0CB
:103DA00082E02BC04091BE055091BF056091C005D7
:103DB0007091C105C416D506E606F706B9F086303F
:103DC0009105A1F04091B2055091B3056091B40501
:103DD0007091B505C416D506E606F706C1F4CC23E6
:103DE00009F41FC20E94B20662E0DACFCC2309F4C4
:103DF00018C20E94B20661E081E00E94361564E1BB
:103E000070E080E090E00E9413042D9897CF4091DD
:103E1000B6055091B7056091B8057091B905C41603
:103E2000D506E606F70639F4CC2309F4FAC10E9458
:103E3000B20662E0E1CF4091C2055091C3056091A6
:103E4000C4057091C505C416D506E606F70671F4DB
:103E5000CC2309F4E6C10E949A140E94B2060E9483
:103E6000A21560E971E080E090E0CDCF8C30910543
:103E700021F480E00E94901DC8CF8D30910511F48F
:103E800081E0F8CF8E30910511F482E0F3CF8F30CE
:103E9000910511F483E0EECF8031910511F484E0B7
:103EA000E9CF8131910511F485E0E4CF82319105AC
:103EB00011F486E0DFCF8331910511F487E0DACF8A
:103EC00088309105B9F5CC2309F4ABC10E94B20644
:103ED0000E949A1482E08093040660E081E10E94CF
:103EE0002C0360E080E10E942C036EEE72E080E023
:103EF00090E00E941304809102068093E1050E94E5
:103F0000041064E670E080E090E00E9413040E94D8
:103F100036028091EE05813031F40E94E2029093E6
:103F2000DF058093DE050E94850A8091C6050E9408
:103F3000C8176BCF87309105E1F40E949A140E9454
:103F4000B2068091FC0581110FC081E08093FC05D1
:103F500080E00E94A71C809104010E9440100E94F2
:103F6000E8110E9418147DCF1092FC050E94D9140C
:103F700078CF8631910509F046C0CC2309F451C1B0
:103F80000E949A140E94B2068CE492E00E943E23A2
:103F90008091FD0581111CC081E08093FD0561E0E9
:103FA00087E090E00E94021060E088E692E00E94C4
:103FB000950D68EE73E080E090E00E94130460913C
:103FC000FE05809103010E94F10C0E94850A4CC0FD
:103FD0001092FD0560E087E090E00E94021060E032
:103FE00082E692E00E94950D68EE73E080E090E03A
:103FF0000E941304809100018093030160911605D3
:104000006093FE05E0CF8930910509F04BC0CC23C9
:1040100009F407C10E949A140E94B20686E592E054
:104020000E943E2380910006813009F5109200061F
:104030001092E8051092E7051092E9051092EA0542
:104040001092EB051092EC0560E082E692E00E948F
:10405000950D68EE73E080E090E00E94130480917B
:104060000506813009F4B1CF0E941814CECE81E04C
:10407000809300061092E8051092E7058FEF9FEFFE
:1040800090932D0580932C050E9445046093E905CB
:104090007093EA058093EB059093EC0560E088E669
:1040A00092E0D5CF8B30910509F04AC0CC2309F4BA
:1040B000B8C00E949A140E94B206C091EF05C130A8
:1040C00029F580910106882389F082E08093EF052D
:1040D00062E08AE190E00E940210C09305060E940F
:1040E000850A0E943D0B0E94850A3BCF83E08093A6
:1040F000EF0563E08AE190E00E940210109205064D
:1041000061E0809102060E94F312ABCEC23079F4D6
:1041100083E08093EF0563E08AE190E00E94021063
:10412000109205060E94850A0E946D0BDCCFC350D9
:10413000C23008F096CE81E08093EF0561E0DACFDF
:104140000A9709F062CE0E949A140E94B2068091EA
:104150001E07813021F583E080931E0763E089E12B
:1041600090E00E9402108EE692E00E943E2360E002
:1041700088E692E00E94950D6CEB72E080E090E0A2
:104180000E9413048091FC05811169CF0E94850A69
:1041900081E00E944B1182E00E944B1136CE8230AA
:1041A00021F581E080931E0761E089E190E00E94A3
:1041B00002108EE692E00E943E2360E082E692E0EA
:1041C0000E94950D6CEB72E080E090E00E94130479
:1041D0000E94850A8091FC05813021F40E94E8113B
:1041E0000E9418140E94880A10CE833009F00DCE68
:1041F00082E080931E0762E089E190E00E94021055
:104200008EE692E00E943E2360E08CE592E0B2CF21
:104210000E949A140E94A2156AEF70E080E090E07C
:1042200073CDDF91CF91FF90EF90DF90CF90089505
:104230001F920F920FB60F9211242F933F938F93DB
:104240009F93AF93BF938091960590919705A0910E
:104250009805B09199053091950523E0230F2D37EE
:1042600058F50196A11DB11D2093950580939605E3
:1042700090939705A0939805B093990580919A051E
:1042800090919B05A0919C05B0919D050196A11D63
:10429000B11D80939A0590939B05A0939C05B093C4
:1042A0009D05BF91AF919F918F913F912F910F905D
:1042B0000FBE0F901F90189526E8230F0296A11DA0
:1042C000B11DD2CF1F920F920FB60F9211242F93D0
:1042D0003F934F935F936F937F938F939F93AF938E
:1042E000BF93EF93FF938091B900887F803609F4E4
:1042F0004AC0F0F5883209F4A7C018F5803109F4F6
:104300009BC0B8F4882309F4F9C0883009F494C03C
:10431000FF91EF91BF91AF919F918F917F916F919D
:104320005F914F913F912F910F900FBE0F901F9073
:104330001895883109F488C0803251F780933E0681
:1043400014C0803409F49DC040F48033B9F388333D
:10435000F9F680933E0685ECB0C0803509F485C03F
:10436000883509F496C0883499F60E94CA0FD0CFD8
:10437000883909F48CC038F5883729F050F488362C
:1043800011F0803729F683E080934006109294055F
:1043900057C0883809F47BC0803919F0803809F09B
:1043A000B7CF80919405803208F071C0E0919405F8
:1043B00081E08E0F809394058091BB00F0E0EC5873
:1043C000FA4F80833DC0803B39F0E0F4803A09F435
:1043D00079C0883A09F09CCF84E08093400610921F
:1043E000730510927205E091A005F091A105099561
:1043F0008091720581110FC081E080937205109247
:10440000520509C0803C09F4A6CF883C09F4A3CF2B
:10441000883B09F07DCFE091730581E08E0F80939A
:104420007305F0E0EE5AFA4F80818093BB009091C3
:1044300073058091720529C080911B068093BB0093
:1044400085EC8093BC0064CF90913D0680913C0642
:10445000981758F5E0913D0681E08E0F80933D0658
:10446000F0E0E45EF94F8081E9CFE0913D0681E024
:104470008E0F80933D068091BB00F0E0E45EF94F23
:10448000808390913D0680913C069817C8F285E89C
:10449000D8CFE0913D0681E08E0F80933D0680915C
:1044A000BB00F0E0E45EF94F808380913F0681110C
:1044B0005CCF81E080931A0684EA8093BC0010925E
:1044C000400626CF85EC8093BC0010924006809178
:1044D0009405803230F4E0919405F0E0EC58FA4F06
:1044E00010826091940570E0E0919E05F0919F0527
:1044F00084E795E00995109294050ACF10923E0644
:1045000034CF1F920F920FB60F9211242F933F9327
:104510004F935F936F937F938F939F93AF93BF93CB
:10452000CF93DF93EF93FF938091190681113DC0E4
:1045300081EA8093B2002091760630E0F901ED5ACD
:10454000FC4F8491F901E15CFC4FD491F901E55DE8
:10455000FC4FC491CC2379F081110E940303EC2F0E
:10456000F0E0EE0FFF1FE955FE4FA591B491EC91DD
:10457000ED2381E009F480E02091790630917A06FC
:104580002F5F3F4F30937A0620937906909113075F
:104590009C3418F095E090937706909177069330CD
:1045A00009F445C0A8F49230D9F0FF91EF91DF9162
:1045B000CF91BF91AF919F918F917F916F915F91BB
:1045C0004F913F912F910F900FBE0F901F90189514
:1045D000943009F447C0953041F7882351F0E5CF76
:1045E0008111E3CF8091790690917A068436910506
:1045F00028F410927A0610927906D7CF10921307FA
:10460000E091130781E08E0F80931307F0E0809113
:10461000790690917A06EE0FFF1FEA58F94F9683BC
:10462000858310927A061092790683E018C0813053
:1046300009F0BBCFE09113078E0F80931307F0E0D2
:104640008091790690917A06EE0FFF1FEA58F94F94
:104650009683858310927A061092790684E080937F
:104660007706A3CF882361F28091790690917A062C
:104670008536910508F499CF85E0F1CFCF93DF938C
:10468000EC010E94850A60E8CE01DF91CF910C9485
:10469000950DEAE6F6E01382128288EE93E0A0E040
:1046A000B0E084839583A683B78386E894E0918302
:1046B0008083E6E7F6E088E080831282E4E1F7E0B9
:1046C00082E0848790E1958797E2938799E09687C7
:1046D00082871782108211821282138215821482BD
:1046E000168261E089E00C945A03789484B5826064
:1046F00084BD84B5816084BD85B5826085BD85B586
:10470000816085BD80916E00816080936E00109203
:10471000810080918100826080938100809181007E
:10472000816080938100809180008160809380000F
:104730008091B10084608093B1008091B00081606D
:104740008093B00080917A00846080937A00809199
:104750007A00826080937A0080917A0081608093F1
:104760007A0080917A00806880937A001092C1006C
:104770001092A3051092A2051092470610926906A6
:104780000E94780481E093E09093A1058093A005B6
:1047900082E093E090939F0580939E0580910106AF
:1047A000833008F066C08091FF05823008F061C058
:1047B000CFE3D1E0D0934606C09368061092470637
:1047C0001092690660E08AE696E00E94FE0581E0AC
:1047D0000E94B704C150C73369F7C7E2D1E0D09354
:1047E0004606C0936806109247061092690660E07C
:1047F0008AE696E00E94FE0581E00E94B704C1505F
:10480000CF3169F7E090A80540E060E08E2D0E946E
:104810009E09F090A9054FEF60E08F2D0E949E0940
:104820000091AA0540E060E0802F0E949E0910914F
:10483000AB054FEF60E0812F0E949E09CBECD9E3DE
:10484000CE010197F1F740E060E08E2D0E949E09B5
:1048500040E060E08F2D0E949E0940E060E0802FE4
:104860000E949E0940E060E0812F0E949E092197EE
:10487000F1F761E087E00E945A0360E087E00E9460
:104880002C0381E090E00E943E10823F39F00E94AC
:10489000A51862EF81E090E00E94021060E081E0E4
:1048A0000E945A0361E080E10E945A0361E081E1C5
:1048B0000E945A0360E080E10E942C0360E081E1E5
:1048C0000E942C0360E08DE00E942C030E94811C5A
:1048D0000E94850A80E680932407109223074CE00B
:1048E00065E080911F070E949E0962E370E080E00E
:1048F00090E00E9413044091240760E080911F071C
:104900000E949E0962E370E080E090E00E94130440
:104910004091240766E080911F070E949E0962E390
:1049200070E080E090E00E94130483E00E94B609EA
:1049300065E070E080E090E00E94130483E00E9454
:10494000B6098BE891E00197F1F783E00E94B60980
:1049500065E070E080E090E00E94130482E00E9435
:10496000B60988E20E94E4098CE00E94E4098BEE1B
:1049700090E00197F1F781E00E94190A1092190660
:104980000E946D0B89E190E00E943E1080931E070B
:1049900087E190E00E943E1080931C0788E190E040
:1049A0000E943E1080931D0783E190E00E943E101C
:1049B0008093C60584E190E00E943E1090E09093C1
:1049C000AF058093AE051092CB0580911906811139
:1049D00024C01092B0008091B1008B7F8093B10011
:1049E0008091B10082608093B1008091B1008E7F90
:1049F0008093B1008091700081608093700081EAA3
:104A00008093B200789482E0809377061092130727
:104A10008091760660E00E945A038091FC05813007
:104A2000E9F40E94A71C809104010E9440100E949A
:104A3000E8110E941814812C44E0942EA12CB12C72
:104A400012E066246A94762C0BE08091FC058111BB
:104A50001BC00E94611E0E94A10AEBC00E94850A31
:104A600080911E07813039F360911D0770E08091BD
:104A700022070E948B0381E00E944B1182E00E947A
:104A80004B110E949A14D7CF80910406823009F00E
:104A900018C30E9430068091D8058111E1C00E94A0
:104AA00045046B017C012090D4053090D5054090E1
:104AB000D6055090D705C214D304E404F50409F4D4
:104AC000C0C00E94450462197309840995096C32BB
:104AD00071408105910510F00E947E188091EE05CD
:104AE000813009F070C00E94E202DC018091DE0595
:104AF0009091DF05FD01E81BF90BCF01F7FF03C023
:104B000091958195910904970CF45DC07092020112
:104B100060920101B093DF05A093DE058091D3057B
:104B2000823009F0CCC08091D1059091D205089FC8
:104B3000F001099FF00D1124E15FFC4FC380D48088
:104B40008091CF059091D0054F974091070650E096
:104B5000029710F0458156810D2C000CEE08FF08DD
:104B6000052E000C660B770B9A01AB012C193D0941
:104B70004E095F092F5F3F4F4F4F5F4F0E947F2AC3
:104B8000A50194010E94592AC20ED31EE41EF51EEF
:104B9000D092CE05C092CD058091CD059091CE05E5
:104BA000019689F00E9496188091D305823009F011
:104BB000AAC08091CD050E94641762E370E080E096
:104BC00090E00E9413040E94B4066B017C01C09225
:104BD000C705D092C805E092C905F092CA05C11474
:104BE000D104E104F10429F10E944E1286309105AE
:104BF00009F0A1C08091D305823011F40E94661C97
:104C00000E949618E091C60526E02E9FF00111241F
:104C1000EB57FD4F81818093C6050E94C8170E9403
:104C20007E1860E570E080E090E00E9413040E942E
:104C30003602E0E0F0E0EF2B09F407CF0E9400001D
:104C400003CF0E944504C61AD70AE80AF90A3CE2D3
:104C5000C31631E0D306E104F10408F03DCF3ECFA6
:104C6000813009F03BCF0E9445046B017C0120900C
:104C7000D4053090D5054090D6055090D705C21484
:104C8000D304E404F50469F00E9445046219730931
:104C900084099509683C71058105910508F01CCFD0
:104CA0001DCF0E944504C61AD70AE80AF90A88EC03
:104CB000C816D104E104F10408F00ECF0FCF833001
:104CC00009F06ACFC091CC052AE130E00E94782A31
:104CD000A50194010E94592AC11109C02F593F4FC3
:104CE0004F4F5F4F3093CE052093CD0555CFC13048
:104CF00029F42F5B3F4F4F4F5F4FF4CF205E3F4F64
:104D00004F4F5F4FEFCF833009F057CF6091CD0504
:104D10008091CB0590E0FC01E85FF94F6083209122
:104D2000CF053091D005820F931F0E94021080E0C2
:104D30000E94B81242CF8530910591F48091D3053D
:104D4000823011F40E94661C0E949618E091C605FC
:104D500036E03E9FF0011124EB57FD4F80815BCF81
:104D60008631910589F58091D305833009F05FCFB5
:104D70008091CC0581111BC081E08093CC0561E45A
:104D80008091CB0590E0FC01E85FF94F60832091B2
:104D9000CF053091D005820F931F0E94021080E052
:104DA0000E94B81268EC70E080E090E03ECF813065
:104DB00021F41093CC0561E2E3CF60E2823001F789
:104DC0001092CC0561E6DCCF4091C2055091C3053D
:104DD0006091C4057091C505C416D506E606F706B0
:104DE00009F040C08091D305823029F58091CF052C
:104DF0009091D005809781F48091070690E0909380
:104E0000B1058093B0058091B0050E94641766E9F2
:104E100070E080E090E009CF2091D1053091D2057B
:104E2000029FC001039F900D1124815F9C4FFC01E4
:104E300087819085E4CF833051F78091CB0590E056
:104E4000FC01E85FF94F20E220832091CF053091EB
:104E5000D00560E2820F931F0E94021080E00E9442
:104E6000B812D5CF4091BE055091BF056091C005E5
:104E70007091C105C416D506E606F70699F50E949D
:104E800096188091D305823089F40E94661C0E9496
:104E900075060E9430068091D3058230B9F41092D5
:104EA000CB058091D8050E94CD1509C0833039F417
:104EB0008091CB05882359F381508093CB050E94C4
:104EC0007E1868E770E080E090E0AFCE8330B9F7FD
:104ED0000E948D0681508093CB058091D8050E9459
:104EE000B812EDCF4091BA055091BB056091BC0559
:104EF0007091BD05C416D506E606F70621F50E9499
:104F000096188091D305823081F40E94661C0E941D
:104F10005D060E9430068091D305823009F4BFCF30
:104F2000833069F61092CB05D8CF833041F6C0911B
:104F3000CB050E948D060197C817190644F7CF5F6D
:104F4000C093CB05BCCF4091B6055091B705609199
:104F5000B8057091B905C416D506E606F70609F03E
:104F600047C00E9496188091D3058230F9F4809151
:104F7000B0059091B1054091D1055091D205049FA3
:104F80009001059F300D1124215F3C4FF9012381D1
:104F90003481281739072CF401979093B105809339
:104FA000B0058091B0050E9464171BC08330C9F41E
:104FB0008091CB0590E0FC01E85FF94F6081615082
:104FC000603208F440C06E3788F460832091CF05CA
:104FD0003091D005820F931F0E94021080E00E9442
:104FE000B81268E270E080E090E01FCE60E2EDCFA2
:104FF0004091B2055091B3056091B4057091B5052B
:10500000C416D506E606F70601F50E9496188091AB
:10501000D305823051F48091B0059091B10501968D
:105020009093B1058093B005BECF8330D1F68091C7
:10503000CB0590E0FC01E85FF94F60816F5F6E3750
:10504000A8F6603210F66DE7C0CF089709F0EFCDF3
:105050008091D305823011F40E94661C81E0809318
:1050600004066091C60583E190E00E940210609101
:10507000AE0584E190E00E9402108091ED05813040
:1050800039F4F3E0F093E0057092DF056092DE05FD
:105090000E94850A80911D070E94E8038091050601
:1050A000813061F40E943D0B60E0809102060E9415
:1050B0002C1564EF71E080E090E0B7CD0E941814E9
:1050C000F8CF80910006813009F04BC00E94450462
:1050D000C090E905D090EA05E090EB05F090EC0572
:1050E0006C157D058E059F05E1F06C197D098E0913
:1050F0009F09613375478105910598F08091E70517
:105100009091E80501969093E8058093E7050E9449
:1051100045046093E9057093EA058093EB0590934D
:10512000EC0588E090E00E943E1090E0880F991F07
:105130002091E7053091E8052817390794F00E947F
:10514000850A60E887E693E00E94950D68EB7BE0B6
:1051500080E090E00E9413040E94D91481E08093C3
:1051600004068091F005813059F08091EF0583307D
:1051700039F480910506813019F080E00E940E110B
:105180008091E605813061F50E9445046B017C0148
:105190002090E2053090E3054090E4055090E5054D
:1051A000C214D304E404F50471F00E9445046219AA
:1051B000730984099509613D77408105910580F067
:1051C0000E9404100DC00E944504C61AD70AE80ABE
:1051D000F90A81EDC81687E0D806E104F10480F7EA
:1051E0008091EE05813009F056C08091FC05813038
:1051F00009F051C08091E0058150823008F04BC029
:105200000E94E202EC018091DE059091DF05FE0133
:10521000E81BF90BCF01F7FF03C091958195910928
:105220000497CCF150900206C0900306D12CF12CCB
:10523000E12C2091DC0530E050E040E02C193D09E4
:105240004E095F092F5F3F4F4F4F5F4FDE010E94B6
:105250007F2AA50194010E94592AC20ED31EE41E82
:10526000F51E5C14C1F00E949A14C09202065C14F0
:1052700080F58091F005813061F51092F00561E0D4
:105280008C2D0E942C15809102068093DD05D09311
:10529000DF05C093DE058091ED05813009F0D9CBA3
:1052A0008091FC05882309F4D4CB8091DB05882309
:1052B00009F4CFCB8091E0058230C1F160F48130F8
:1052C00009F0C7CB1093E005809102068093DD05BD
:1052D000C0CB60E0D5CF8330D9F1843009F0B9CBB1
:1052E0000E949A1464E170E080E090E00E94130450
:1052F0000E94E2022091DE053091DF0582179307BC
:1053000009F086C02091D9053091DA052F5F3F4F13
:105310003093DA052093D9052530310514F0109328
:10532000E0059093DF058093DE0593CBC0910206E4
:105330008091DD05C81749F0F3E0F093E0050E9485
:10534000E2029093DF058093DE05C093DD0581CBFB
:105350000E949A141092DA051092D905C0900306A3
:10536000D12CF12CE12C6091020670E090E080E0FD
:105370006C197D098E099F092AE0660F771F881F27
:10538000991F2A95D1F72091DC0530E050E040E0EC
:105390002C193D094E095F092F5F3F4F4F4F5F4F5B
:1053A0000E94592A6901E9010E94E202C81AD90A39
:1053B00028E0C20ED11C31E1C316D10490F460E0A4
:1053C00081E10E942C0360E080E10E942C0384E0D4
:1053D0008093E00565E070E080E090E00E941304B7
:1053E00038CB8C179D074CF460E081E10E942C03C0
:1053F00061E080E10E942C032CCBC817D9070CF088
:1054000028CB60E080E10E942C0361E081E1F2CFD3
:105410001092DA051092D90584CFFB01DC010590CA
:105420000D920020E1F70895FB01DC01415050404E
:1054300048F005900D920020C9F701C01D9241501F
:105440005040E0F70895F999FECF92BD81BDF89ADA
:10545000992780B50895262FF999FECF1FBA92BDDE
:1054600081BD20BD0FB6F894FA9AF99A0FBE019645
:105470000895991B79E004C0991F961708F0961BB0
:10548000881F7A95C9F78095089597FB072E16F423
:10549000009407D077FD09D00E94872A07FC05D029
:1054A0003EF4909581959F4F0895709561957F4F3B
:1054B0000895052E97FB1EF400940E94702A57FD54
:1054C00007D00E949B2A07FC03D04EF40C94702A4C
:1054D00050954095309521953F4F4F4F5F4F089520
:1054E00090958095709561957F4F8F4F9F4F089550
:1054F0000E94C32AB7FF0895821B930B0895B7FF3C
:105500000C94D22A0E94D22A821B930B0895AA1BC4
:10551000BB1B51E107C0AA1FBB1FA617B70710F09E
:10552000A61BB70B881F991F5A95A9F780959095D0
:10553000BC01CD010895A1E21A2EAA1BBB1BFD01DF
:105540000DC0AA1FBB1FEE1FFF1FA217B307E40762
:10555000F50720F0A21BB30BE40BF50B661F771FBA
:10556000881F991F1A9469F760957095809590959A
:105570009B01AC01BD01CF010895EE0FFF1F059007
:10558000F491E02D0994A29FB001B39FC001A39FA5
:10559000700D811D1124911DB29F700D811D11246C
:1055A000911D08950E94C32AA59F900DB49F900D50
:1055B000A49F800D911D11240895DC0101C06D93FD
:1055C00041505040E0F70895FB01DC010D900020B0
:1055D000E9F7119701900D920020E1F70895FB0182
:1055E000DC014150504030F08D910190801919F448
:1055F0000020B9F7881B990B0895FB01DC0141508D
:10560000504048F001900D920020C9F701C01D9252
:1056100041505040E0F70895AEE0B0E0E2E1FBE237
:105620000C94BB2D0D891E8986E08C831A83098317
:105630008FEF9FE79E838D83AE01475E5F4F6F893B
:10564000788DCE0101960E942F2B2F813885020F75
:10565000131FF80110822E96E4E00C94D72DABE0D6
:10566000B0E0E5E3FBE20C94AD2D7C013B018A0147
:10567000FC0117821682838181FFC8C1CE01019689
:105680005C01F7019381F30193FD859193FF819173
:105690003F01882309F453C1853239F493FD859184
:1056A00093FF81913F01853229F4B70190E00E9478
:1056B0001F2DE7CF912C212C312CFFE1F31538F071
:1056C0008B3211F190F4803209F1833229F137FCE9
:1056D0003CC020ED280F2A3050F536FE20C08AE06D
:1056E000989E200D1124922E06C08D3291F08033A9
:1056F00071F7689430F8F30193FD859193FF8191E0
:105700003F018111DACF21C0689431F8689432F8F2
:10571000F2CF689433F8EFCF689434F8ECCFEAE036
:105720002E9E200D1124222E689435F8E4CF8E325F
:1057300029F436FC04C1689436F8DDCF8C3619F4B0
:10574000689437F8D8CF8836B1F2982F9F7D95545A
:105750009330E0F08336A1F18337C1F1833509F04E
:1057600063C02801F2E04F0E511CF801C080D180C7
:10577000692D70E036FC02C06FEF7FEFC6010E941A
:10578000092D4C01689437F882010AC00C5F1F4F45
:10579000FFE3F98388248394912C6501E89437F81A
:1057A00033FE2DC0522C8114910471F5552009F45B
:1057B00068CFB70180E290E00E941F2D5A94F6CF87
:1057C000F801808189830E5F1F4FE4CF2801F2E04A
:1057D0004F0E511CF801C080D180692D70E036FC5D
:1057E00002C06FEF7FEFC6010E94142D4C018201B1
:1057F000D5CFB70180E290E00E941F2D2A94281493
:10580000190409F0B0F7CECFF60137FC859137FEC9
:1058100081916F01B70190E00E941F2D51105A94A1
:10582000F1E08F1A9108BFCF843619F0893609F05C
:1058300077C0F80137FE6BC06081718182819381EE
:105840000C5F1F4FF32DFF763F2E97FF09C09095F9
:105850008095709561957F4F8F4F9F4F689437F873
:105860002AE030E0A5010E944F2DC82ECA188C2CCA
:10587000432C36FE0CC0E89440F8C91440F434FEC2
:1058800005C032FC03C0F32DFE7E4F2E892C44FE52
:1058900095C0FE01EC0DF11D8081803309F087C0B9
:1058A000242D297E422E842D8870582E43FC95C0CD
:1058B00040FE8FC09C2C821418F42C0C922C98184B
:1058C00044FE91C0B70180E390E00E941F2D42FE8C
:1058D00009C088E790E041FE02C088E590E0B7018A
:1058E0000E941F2DC91408F48AC0CA94D12C9FEFBE
:1058F000C91AD90ACA0CDB1CF60182916F01B701E3
:1059000090E00E941F2DAC14BD04B1F74FCF608111
:105910007181072E000C880B990B0E5F1F4F92CFE1
:10592000D32CE894D4F82AE030E0853739F1232DE0
:10593000297FD22E8F3601F148F48835A9F0F7017E
:10594000868197812B96E2E10C94C92D803749F02E
:105950008837A9F7D4FE02C06894D2F820E130E07D
:105960000DC06894D4F8F6CF34FE03C0822F866051
:10597000D82E20E132E002C028E030E0F801D7FE66
:105980000FC060817181828193810C5F1F4FA501DF
:105990000E944F2DC82ECA183D2CE89437F867CFC7
:1059A0006081718190E080E00E5F1F4FF0CF42FC7C
:1059B00002C0839478CF8394839475CF842D8678A6
:1059C00009F471CFF6CFB70180E290E00E941F2D5D
:1059D00083948214C0F3512C73CF522C5818821424
:1059E00008F46ECFF8CF842D867809F47BCF8BE254
:1059F00041FE80E247FC8DE2B70190E071CFB70134
:105A000080E390E00E941F2D9A946CCF8FEF9FEF60
:105A100099CFFC010590615070400110D8F7809536
:105A200090958E0F9F1F0895FC016150704001906A
:105A30000110D8F7809590958E0F9F1F08950F93B2
:105A40001F93CF93DF93182F092FEB018B8181FDDB
:105A500009C01FEF0FEF812F902FDF91CF911F9182
:105A60000F91089582FF14C02E813F818C819D810A
:105A7000281739073CF4E881F981CF010196998311
:105A8000888310838E819F8101969F838E83E3CFCD
:105A9000E885F985812F0995892BA1F3DACFFA01E1
:105AA000AA27283051F1203181F1E8946F936E7F5D
:105AB0006E5F7F4F8F4F9F4FAF4FB1E03ED0B4E04E
:105AC0003CD0670F781F891F9A1FA11D680F791F8F
:105AD0008A1F911DA11D6A0F711D811D911DA11DA0
