:100000000C9411020C9439020C9439020C943902AC
:100010000C9439020C9439020C9439020C94390274
:100020000C9439020C94E0240C9439020C9439029B
:100030000C9439020C9439020C9439020C94390254
:100040000C9477230C9439020C9439020C943902E5
:100050000C9439020C9439020C9439020C94390234
:100060000C94C1230C943902300039003800370059
:1000700036003500340033003200310044697370BB
:100080006C6179004D656E7500446F776E20416C30
:1000900069617300557020416C696173004D75741E
:1000A00065004C656674204172726F770052696713
:1000B0006874204172726F7700446F776E204172CE
:1000C000726F77005570204172726F7700002000C8
:1000D0002000200064322D320064322D3100643162
:1000E0002D320064312D31003A0042616E6E65722E
:1000F00020320042616E6E6572203100566F6C7561
:100100002D4D617374657220312E303200414D42A5
:10011000204C61626F7261746F72696573004D612A
:1001200078566F6C004D696E566F6C00492F4F20EA
:1001300073656C00566F6C756D6500506F72742D31
:100140003800506F72742D3700506F72742D360066
:10015000506F72742D3500506F72742D3400506FD3
:1001600072742D3300506F72742D3200506F7274A0
:100170002D31004D6178004D696E00436F617273DF
:100180006500566F6C756D65205374657000436C27
:100190006F636B00506F74004D6F746F7200644238
:1001A0002F537465700064312052656C617973005F
:1001B000416D702044656C617900506F7765720005
:1001C000C400B900AD00A2009D0094008900BA01EE
:1001D000840055026D027C007A007800760074007D
:1001E000720070006E006C006A0068004B02CD0067
:1001F000436F6D706C657465642E004B6579205398
:100200006B69707065642E004C6561726E20495296
:1002100000556E6368616E6765642E00496E69748F
:1002200020454550524F4D206E6F772E005265731A
:10023000746F72652044656661756C743F00436F2E
:100240006E666967204D6F646521004D756C746939
:100250002D4F757400536C65657000204175746F87
:1002600000204F66662000204F6E20200042616310
:100270006B6C696768740032206432202020003182
:1002800020643220202000496E707574004F757410
:1002900070757400322064312020003120643120D8
:1002A00020006E2F61003120644200302E35206422
:1002B0004200302E3120644200A60100009E0198C9
:1002C0000194018E01000000000000000082010086
:1002D000007B01770173016C0165015E01570150DC
:1002E00001490142013B0134012C010000B00155DC
:1002F000026D0225011E010D01FC00F300EA00E879
:1003000000E300DE00D900D400D200D000CE00CD42
:10031000004D5554450000000000240027002A002D
:1003200000000000250028002B0000000000230032
:100330002600290004040404040404040202020246
:100340000202030303030303010204081020408098
:100350000102040810200102040810200000000817
:10036000000201000003040700000000000000007C
:10037000476F6F64206E696768740080809F9F9FDD
:100380009F808080809E9F9F9E808080809C9D9D7E
:100390009C80808080989D9D98808080809095959D
:1003A000908080808080959580808080809F9F9FB6
:1003B0009F80808E95959791918E801F001F1F00C2
:1003C0001F001F1F000000001F000000001F000092
:1003D00000001F000000001F0E001F1F1F0E001F47
:1003E0001F1F0E040204020402040202020204207F
:1003F0002004020204040204202004040204020275
:10040000040401040104200303040103040402049E
:1004100004030304030301010404030404030400AC
:10042000872511241FBECFEFD8E0DEBFCDBF15E07A
:10043000A0E0B1E0EAE7F1E602C005900D92A2313A
:10044000B107D9F727E0A2E1B5E001C01D92A233C0
:10045000B207E1F712E0C1E1D2E004C02197FE014A
:100460000E94942DC031D107C9F70E94B3250C9486
:10047000BB300C9400008091230681110CC081EAEE
:100480008093B20082E08093810610921D07109243
:100490008406109283060895AF92BF92CF92DF92A6
:1004A000EF92FF920F931F93CF93DF937C016B0129
:1004B0008A01FC01C081D1818091040690910506DA
:1004C000C817D9070CF081C0E0910206F09103062D
:1004D000CE01880F991FE80FF91FA080B18024E694
:1004E00030E0C0FD02C02CE93FEF200F311FC901F1
:1004F000880F991F820F931F68EC70E00E941C2DDB
:10050000A616B70654F0C90168E270E00E941C2DDF
:100510006F5F7F4F6A157B05A4F5200F311FC9015E
:10052000880F991F820F931F68EC70E00E941C2DAA
:10053000A616B70654F0C90168E270E00E941C2DAF
:100540006F5F7F4F6A157B05B4F5200F311FC9011E
:10055000880F991F820F931F68EC70E00E941C2D7A
:10056000A616B70664F0C90168E270E00E941C2D6F
:100570006F5F7F4F23E030E06A157B0524F48FEF37
:100580000FC021E030E0F601808191810196821751
:100590009307A4F491838083CE0180959095817018
:1005A000DF91CF911F910F91FF90EF90DF90CF904F
:1005B000BF90AF90089522E030E0E5CF1182108225
:1005C000F701808191810196E5CF81E0E9CF2AE0B2
:1005D00090E080E061E460937C0030917A003064C8
:1005E00030937A0030917A0036FDFCCF309178005C
:1005F00040917900542F432F840F951F215059F7B4
:100600006AE070E00E941C2DCB01089508950895C2
:10061000833081F028F4813099F08230A9F0089578
:100620008730A9F08830C9F08430B1F4809180001F
:100630008F7D03C0809180008F7780938000089524
:1006400084B58F7784BD089584B58F7DFBCF80916D
:10065000B0008F778093B00008958091B0008F7DB7
:10066000F9CFCF93DF93282F30E0F901E45AFC4F04
:100670008491F901E85BFC4FD491F901EC5CFC4FEB
:10068000C491CC23A1F081110E940803EC2FF0E06B
:10069000EE0FFF1FE65DFC4FA591B491EC91ED23A9
:1006A00081E090E009F480E0DF91CF91089580E04F
:1006B00090E0FACF1F93CF93DF93282F30E0F9011A
:1006C000E45AFC4F8491F901E85BFC4FD491F901A5
:1006D000EC5CFC4FC491CC23A9F0162F81110E9431
:1006E0000803EC2FF0E0EE0FFF1FE05EFC4FA5913A
:1006F000B4918FB7F894EC91111108C0D095DE2316
:10070000DC938FBFDF91CF911F910895DE2BF8CF3F
:10071000CF93DF9390E0FC01E85BFC4F24918C5C6D
:100720009C4FFC0184918823D1F090E0880F991FA1
:10073000FC01EA5EFC4FA591B491FC01E05EFC4F28
:10074000C591D49161110EC09FB7F8948C91E22F9E
:10075000E0958E238C932881E223E8839FBFDF916D
:10076000CF9108958FB7F894EC91E22BEC938FBF63
:10077000F6CF1F93CF93DF93182FEB0161E00E9418
:100780008803209739F460E0812FDF91CF911F918A
:100790000C945A03CF3FD10511F461E0F5CFE12F5E
:1007A000F0E0E45AFC4FE491E33031F140F4E13001
:1007B000B1F0E230E1F0C038D1057CF7E4CFE730AA
:1007C00029F1E83059F1E430B1F78091800080627E
:1007D00080938000D0938B00C0938A0004C084B5BE
:1007E000806884BDC7BDDF91CF911F91089584B506
:1007F000806284BDC8BDF7CF8091800080688093FF
:100800008000D0938900C0938800EDCF8091B00024
:1008100080688093B000C093B300E5CF8091B000B2
:1008200080628093B000C093B400DDCF682F70E089
:1008300080912C070C94B9033FB7F89480919E05E2
:1008400090919F05A091A005B091A10526B5A89B08
:1008500005C02F3F19F00196A11DB11D3FBFBA2F52
:10086000A92F982F8827BC01CD01620F711D811D12
:10087000911D42E0660F771F881F991F4A95D1F797
:1008800008958F929F92AF92BF92CF92DF92EF9294
:10089000FF924B015C010E941C046B017C010E94D1
:1008A0001C046C197D098E099F09683E73408105FF
:1008B0009105A8F321E0821A9108A108B10888EEF9
:1008C000C80E83E0D81EE11CF11C81149104A10420
:1008D000B10429F7FF90EF90DF90CF90BF90AF90D9
:1008E0009F908F9008952FB7F89460919A0570911A
:1008F0009B0580919C0590919D052FBF08952091A7
:100900007605260F3327331F21323105ECF4209171
:100910004A06FC0190E080E0243069F082E008950E
:10092000A09176052191AC014A5A5A4FA40FB52FD8
:10093000B11D2C930196861798F380917605680F68
:100940006093760580E0089581E0089510924A064C
:1009500081E0809349061092240661E082E10E94C2
:100960005A0361E083E10E945A03E9EBF0E08081E1
:100970008E7F808380818D7F808388E48093B80020
:1009800085E48093BC000895CF93DF9391E090932A
:1009900055058823B9F0C091B800D091BA00809174
:1009A000BC008A7B8093BC0060E082E10E945A0315
:1009B00060E083E10E945A030E94A604D093BA002B
:1009C000C093B800DF91CF9108958F929F92AF921C
:1009D000BF92CF92DF92EF92FF920F931F93CF932C
:1009E000DF93D0917306D13208F0D7C0182FC09191
:1009F00072060E941C046B017C0180914A068111E1
:100A00006BC082E080934A06109349068FEF809373
:100A1000480610924706D0934606A2E5B6E0E6E205
:100A2000F6E080E0D81391C010922506809125064B
:100A3000CC0FC82BC093250680912406813009F085
:100A400088C0109224060E941C046B017C018091D6
:100A500025068093BB0080914C0690914D06A09195
:100A60004E06B0914F06892B8A2B8B2BA1F00E944A
:100A70001C0400914C0610914D0620914E063091B9
:100A80004F066C197D098E099F090617170728075D
:100A9000390708F442C08091BC0083FDD8CF85ECB3
:100AA0008093BC000E941C046B017C0180914A066B
:100AB000823009F450C0809148068F3F09F46FC01E
:100AC00080914806803209F46CC0809148068033DA
:100AD00009F469C084E026C080914C0690914D06CF
:100AE000A0914E06B0914F06892B8A2B8B2B09F4CF
:100AF00084CF0E941C0480904C0690904D06A090DC
:100B00004E06B0904F066C197D098E099F09861616
:100B10009706A806B90608F070CF80914B060E9490
:100B2000C40485E01092510610927306109250068C
:100B3000DF91CF911F910F91FF90EF90DF90CF90B9
:100B4000BF90AF909F908F9008959D9191938F5FEC
:100B500069CF85EEA5CF80914C0690914D06A0916E
:100B60004E06B0914F06892B8A2B8B2B09F49ECF12
:100B70000E941C0400914C0610914D0620914E06D7
:100B800030914F066C197D098E099F0906171707CA
:100B90002807390708F08ACFC0CF81E0C3CF80E0B3
:100BA000C1CF82E0BFCF83E0BDCF0895E091A7051C
:100BB0008091A605E81730F4F0E0EB5CFA4F8081F5
:100BC00090E008958FEF9FEF08959091A705809191
:100BD000A6052FEF3FEF981748F4E92FF0E0EB5C04
:100BE000FA4F208130E09F5F9093A705C9010895D7
:100BF0008091A6059091A705891B990B0895CF9226
:100C0000DF92EF92FF920F931F93CF93DF937C01BC
:100C1000CB018A0120915006222389F0EB016B0160
:100C2000C40ED51ECC15DD0569F06991D701ED9193
:100C3000FC910190F081E02DC7010995F3CF642F5D
:100C40000E947F04C801DF91CF911F910F91FF9007
:100C5000EF90DF90CF900895CF93DF931F92CDB7A1
:100C6000DEB76983209150062223F9F020917306A4
:100C7000203258F021E030E0FC013383228390E001
:100C800080E00F90DF91CF91089580915106E82F79
:100C9000F0E0EE5AF94F998190838F5F809351066F
:100CA0008093730681E090E0ECCF61E0CE01019685
:100CB0000E947F04F7CF90E080E00895E091B205B4
:100CC000F091B305EE0FFF1FE953FE4F818190E0D5
:100CD0009093D5058093D40520812093D6052230AA
:100CE00079F42BE0289FF001299FF00D1124E15F9A
:100CF000FC4F818592859093D3058093D20508950A
:100D000025E0289FF001299FF00D1124EB56FE4F9E
:100D100083819481F0CF1092CE058091B20590919D
:100D2000B30520912805309129058217930749F4CE
:100D300080912A0590912B059093B3058093B2057D
:100D400008950196F9CF1092CE058091B205909149
:100D5000B30520912A0530912B058217930749F49A
:100D600080912805909129059093B3058093B20551
:100D700008950197F9CF8091D605823079F480915A
:100D8000D4059091D5052BE0289FF001299FF00D07
:100D90001124E15FFC4F828190E00895833069F473
:100DA0008091D4059091D50525E0289FF001299FD9
:100DB000F00D1124EB56FE4FEECF90E080E0089549
:100DC0002D9A08957F928F929F92AF92BF92CF9269
:100DD000DF92EF92FF920F931F93CF93DF9300D098
:100DE00000D0CDB7DEB785E896E0909303068093F8
:100DF000020680911D0790E09093050680930406FB
:100E000080918106853009F0C3C280911D078A3127
:100E100008F446C08091870690918806859708F46B
:100E20003FC0809187069091880680349105C0F577
:100E3000A0E8B6E082E090E040E050E0BA01E09146
:100E40001D079C012F5F3F4FE217130609F00CF4BA
:100E5000CBC019962D913C911A972730310508F493
:100E6000C3C019962D913C911A972E30310508F088
:100E7000BBC0FD013B961B962D913C911C972331E5
:100E8000310540F01B962D913C911C972232310583
:100E900008F497C0208131812A30310508F099C0CB
:100EA00080918706909188068838910548F1809155
:100EB000870690918806853E910510F580911D0763
:100EC0008430C9F48091890690918A06809798F0C1
:100ED0008091890690918A06C79768F480918B0665
:100EE00090918C06099738F080918B0690918C0632
:100EF000429708F404C180911D07843408F010C1A2
:100F000080911D078D3008F475C181E090E09C83CD
:100F10008B831A82198249E753E0BE016F5F7F4FCE
:100F2000CE0103960E944C02811164C149E753E04F
:100F3000BE016F5F7F4FCE0103960E944C0281304D
:100F400009F058C149E753E0BE016F5F7F4FCE0102
:100F500003960E944C0281114DC110E000E0C12CAB
:100F6000D12C760120911D078B819C8128171906B1
:100F700009F00CF431C149E753E0BE016F5F7F4FC8
:100F8000CE0103960E944C02A82EB12C49E753E0F3
:100F9000BE016F5F7F4FCE0103960E944C0290E02E
:100FA00021E0A216B10409F00EC1892B09F022C17B
:100FB000CC0CDD1CEE1CFF1C6894C0F80F5F1F4FAB
:100FC000D1CF440F551F661F771F416002961496BC
:100FD00036CF208131812331310508F061CF440FB4
:100FE000551F661F771FF2CF0197959587959093B0
:100FF0000106809300060C972CF4109201061092C3
:1010000000064ECF4093FC055093FD056093FE050E
:101010007093FF0582E08093FB052091FB05213052
:10102000A1F58091FC059091FD05A091FE05B09180
:10103000FF058F3F3FEF9307A307B30709F09AC15E
:101040008091120590911305A0911405B09115059A
:101050008F3F9F4FAF4FBF4F41F410921205109238
:1010600013051092140510921505809112059091A8
:101070001305A0911405B09115058093FC0590937C
:10108000FD05A093FE05B093FF058091FC059091AE
:10109000FD05A091FE05B091FF050097A105B105E2
:1010A00061F0233009F06FC197708093FC05909335
:1010B000FD05A093FE05B093FF0564E170E080E0BC
:1010C00090E00E9441040E943B026091FC057091F7
:1010D000FD058091FE059091FF050F900F900F90F8
:1010E0000F90DF91CF911F910F91FF90EF90DF90C4
:1010F000CF90BF90AF909F908F907F900895109267
:101100000106109200068FEF9FEFDC018093FC0533
:101110009093FD05A093FE05B093FF0581E07BCF82
:101120008091890690918A068234910508F4E8CE70
:101130008091890690918A068037910508F0E0CE6B
:1011400030E020E080E090E0DC01F901E557F94F64
:10115000408151814930510508F4D2CE40815181FE
:101160004231510508F0CCCEF901E357F94F4081E7
:1011700051814631510528F0408151814732510556
:1011800088F0408151814630510508F4B9CE408144
:1011900051814D30510508F0B3CE880F991FAA1F19
:1011A000BB1F05C0880F991FAA1FBB1F81602C5F42
:1011B0003F4F2038310549F620E230E030930106F8
:1011C00020930006A3CFAB28A9F4019799F4CC0C87
:1011D000DD1CEE1CFF1CF2CE1093010600930006EE
:1011E000C092FC05D092FD05E092FE05F092FF054D
:1011F00083E011CF80910406909105061816190618
:101200000CF08EC081E090E09C838B83E09102061D
:10121000F091030682819381899708F481C08281CD
:1012200093818734910508F07BC082E090E09C8335
:101230008B83848195810B9708F472C0848195819A
:10124000459708F06DC083E090E09C838B831A8201
:1012500019824CEB51E0BE016F5F7F4FCE010396C8
:101260000E944C0281115CC04CEB51E0BE016F5FEB
:101270007F4FCE0103960E944C02813009F050C08E
:1012800010E000E0C12CD12C7601209104063091B1
:1012900005068B819C81821793070CF05DC04CEB97
:1012A00051E0BE016F5F7F4FCE0103960E944C025A
:1012B000982EA82EB12C0330110539F14CEB51E0DA
:1012C000BE016F5F7F4FCE0103960E944C02782EC5
:1012D000882E912C0330110559F44CEB51E0BE01DE
:1012E0006F5F7F4FCE0103960E944C02781218C0A8
:1012F000A114B10429F1AA94AB2891F4892881F4AE
:10130000CC0CDD1CEE1CFF1C24C04CEB51E0BE01DC
:101310006F5F7F4FCE0103960E944C02981671F2C8
:101320008FEF8093FB051092010610920006109239
:10133000FC051092FD051092FE051092FF056DCE82
:101340008A94892869F7CC0CDD1CEE1CFF1C68947C
:10135000C0F80F5F1F4F99CF10930106009300064E
:10136000C092FC05D092FD05E092FE05F092FF05CB
:1013700084E051CE8093120590931305A093140539
:10138000B093150582CE243009F097CEA1608DCEA2
:1013900060E070E0CB01A1CEEFE2F7E08081282F82
:1013A00022952F709AE08F70299F800D11248093D1
:1013B0002C058181282F22952F708F70299F800DF9
:1013C000112480932E058281282F22952F708F70F3
:1013D000299F800D112480932D0508956AE00E94B5
:1013E000102D8295807F890F0895CF93C42F91E0AF
:1013F00090935006809372061092510610927306D5
:1014000084E796E00E942C066C2F84E796E00E9409
:101410002C0681E0CF910C94E504EF92FF921F938C
:10142000CF93DF939EE1E92E97E0F92EF701178520
:10143000182B412F6AE083850E94F509CFE1D0E0A7
:10144000CE010197F1F740E8410F6AE0F70183858B
:101450000E94F509CE010197F1F7412F6AE0F701EB
:1014600083850E94F5092197F1F7DF91CF911F91B4
:10147000FF90EF9008951F93CF93DF93182F8295DD
:101480008F700E940D0ACFE1D0E0CE010197F1F7F5
:10149000812F8F700E940D0A2197F1F71092230679
:1014A000DF91CF911F910895CF93DF93CEE1D7E0E5
:1014B0009F8590619F870E943B0A8F8590E18927D5
:1014C0008F87DF91CF910895CF93DF93EC018991BE
:1014D000882319F00E94540AFACFDF91CF91089522
:1014E000CF93DF93D82F80912C056AE00E94102DB6
:1014F000C92F805D0E94540A80E38C0F0E94540A19
:101500008AE30E94540AC09130078C2F82958F7015
:10151000805D0E94540A8C2F8F70805D0E94540A57
:10152000D13091F48AE30E94540AC09131078C2F84
:1015300082958F70805D0E94540A8C2F8F70805D21
:10154000DF91CF910C94540ADF91CF9108950E94BE
:101550003B0A8BE79CE00197F1F70895CF93DF9367
:10156000EC01862F61110E94A70ACE01DF91CF9175
:101570000C94640ACF92DF92EF92FF920F931F9325
:10158000CF93DF93C82F80E8860F10EC160FC03280
:10159000A9F40E94A70A84E994E00E94640A812FBA
:1015A0000E94A70A84E994E0DF91CF911F910F91E7
:1015B000FF90EF90DF90CF900C94640AC0539C2F63
:1015C000990FC90F0E94A70AF12CE12CD0E0CE019F
:1015D0008F5F9B4F6C01F601EE0DFF1D84910E9401
:1015E000540A9FEFE91AF90A83E0E816F10499F723
:1015F000812F0E94A70A10E000E0CD51DC4FFE01D0
:10160000E00FF11F84910E94540A0F5F1F4F0330B7
:101610001105A9F7DF91CF911F910F91FF90EF90E6
:10162000DF90CF90089581E00C94A70ACF93DF93C9
:10163000C0912707D0E0209759F08C2F0E94160404
:1016400062E070E080E090E00E9441042197F3CFD7
:1016500082E080932507DF91CF910C94130BCF92FA
:10166000DF92EF92FF92CF93DF9380912507811154
:1016700070C00E9473046B017C0180911E079091E1
:101680001F07A0912007B0912107C816D906EA06C6
:10169000FB0631F10E947304C0901E07D0901F0713
:1016A000E0902007F09021076C197D098E099F09B1
:1016B000683E73408105910500F580912207909165
:1016C000230706970CF445C080912807813049F51F
:1016D000DF91CF91FF90EF90DF90CF900C94160B9D
:1016E0000E947304C61AD70AE80AF90A88EEC816D7
:1016F00083E0D806E104F10400F380912207909181
:101700002307019690932307809322070E94730476
:1017100060931E0770931F07809320079093210703
:10172000CCCF8230B1F4C0912707D0E0809126075A
:101730008C171D065CF48C2F0E94160462E070E08A
:1017400080E090E00E9441042197F0CF81E08093F7
:101750002507DF91CF91FF90EF90DF90CF90089514
:10176000E82FF0E0EE0FFF1FE658FB4F8081860F59
:1017700080680C94A70ACF93813059F480E80E94C6
:10178000A70AC0E180E20E94540AC150D9F7CF9164
:10179000089580ECF4CFDF92EF92FF920F931F93A6
:1017A000CF93DF9380E40E94A70A0BEB13E0C8E01D
:1017B0008C2F8064D8E0D80F7801DD24D394D80E24
:1017C0000E94A70AF70184910E94540AF5E0EF0EE7
:1017D000F11C8D2DDD12F1CFC85F0F5F1F4FC0339D
:1017E00039F780E8DF91CF911F910F91FF90EF9033
:1017F000DF900C94A70A0F931F93CF93DF9380E49D
:101800000E94A70AC3EBD3E0FE0184910E94540A10
:101810002196F3E0CB3BDF07B9F7CBEAD3E0FE013B
:1018200084910E94540A2196F3E0C33BDF07B9F785
:10183000C3EAD3E0FE0184910E94540A2196F3E0AA
:10184000CB3ADF07B9F7CBE9D3E0FE0184910E94E0
:10185000540A2196F3E0C33ADF07B9F7C3E9D3E0AE
:10186000FE0184910E94540A2196F3E0CB39DF07F0
:10187000B9F7CBE8D3E003E913E0FE0184910E94BD
:10188000540A21960C171D07C1F7C3E8D3E0FE01E7
:1018900084910E94540A2196F3E0CB38DF07B9F710
:1018A000CBE7D3E003E813E0FE0184910E94540AE1
:1018B00021960C171D07C1F780E8DF91CF911F918A
:1018C0000F910C94A70ACF93C82F80E88C0F0E9429
:1018D000A70A82E00E94540A82E00E94540A80EC27
:1018E0008C0F0E94A70A81E00E94540A81E0CF91E8
:1018F0000C94540A1F93CF93DF93162FD42FC22F2B
:10190000EBECF9E33197F1F7E82FF0E0E855FA4F07
:1019100040E060E080810E94F509E12FF0E0E855A9
:10192000FA4F40E060E080810E94F509DF3FA1F0BE
:10193000CF3F91F0ED2FF0E0E855FA4F40E060E046
:1019400080810E94F509EC2FF0E0E855FA4F40E065
:1019500060E080810E94F5098BEC99E30197F1F733
:10196000DF91CF911F910895CF92DF92EF92FF9276
:101970000F931F93CF93DF93F82ED62EC42FD22F21
:101980002E2D2150330BC9015091340510E0E12C6C
:1019900061E070E08F3F9807B1F09B01082E01C015
:1019A000220F0A94EAF7402F4223E52FE2234E1339
:1019B00003C0E1E0CE1203C0442319F0E22A0197EC
:1019C000E9CF122BFCCFED2DF0E0E855FA4F008166
:1019D000412F60E0802F0E94F509EF2DF0E0E855DF
:1019E000FA4FC08040E060E08C2D0E94F509CF3FA7
:1019F000A1F0DF3F91F0ED2FF0E0E855FA4F412FD5
:101A000060E080810E94F509EC2FF0E0E855FA4F84
:101A100040E060E080810E94F5092D2F4C2F6D2D54
:101A20008F2D0E947A0C4E2D60E08C2D0E94F509BE
:101A300040E060E0802F0E94F509CF3FA1F0DF3F3A
:101A400091F0EC2FF0E0E855FA4F4E2D60E08081E8
:101A50000E94F509ED2FF0E0E855FA4F40E060E014
:101A600080810E94F5092D2F4C2F6D2D8F2DDF9138
:101A7000CF911F910F91FF90EF90DF90CF900C943A
:101A80007A0CCF92EF920F9330E020E000E090E0EC
:101A900047E050E061E070E0FC01022E02C0F595E5
:101AA000E7950A94E2F7E0FF0AC0FA01E21BF30BA4
:101AB000DB0102C0AA0FBB1FEA95E2F70A2B2F5FDA
:101AC0003F4F2830310541F780910906813071F48C
:101AD000CC24C39498E0E92E2FEF4FEF65E084E02B
:101AE0000E94B40C0F91EF90CF9008958230D1F7FF
:101AF000CC24C39488E0E82E27E046E0EFCFCF92D5
:101B0000EF920F93CF939091FA05913031F1C62E59
:101B1000C82F80913405C81302C0662379F08091E4
:101B20000B068130F9F4E09033050C2F2FEF4FEFC7
:101B300061E080E00E94B40CC093340581E08093A2
:101B4000EB050E9473046093E7057093E8058093AA
:101B5000E9059093EA05C093E605CF910F91EF90C8
:101B6000CF900895823041F7E09033050C2F23E0A9
:101B700042E0DECFCF93DF93CDB7DEB729970FB624
:101B8000F894DEBF0FBECDBF48E050E060E270E0E9
:101B9000CE0101960E94B42D198660ECCE0101960B
:101BA0000E94AE0A29960FB6F894DEBF0FBECDBFD5
:101BB000DF91CF910895CF93DF93D82FC8E06D2F99
:101BC000617083E00E945A03D69561E082E00E9432
:101BD0005A0360E082E00E945A03C15081F7DF910E
:101BE000CF910895EF92FF921F93CF93DF93C82F69
:101BF00061E084E00E945A038C2F0E94DB0D60E0BC
:101C000083E00E94880397E0E92EF12C10E083E046
:101C10000E943103019709F41068C12FD0E0D595D7
:101C2000C7951C2F61E082E00E945A0361E070E0DA
:101C300080E090E00E94410460E082E00E945A034C
:101C400061E070E080E090E00E94410481E0E81AE9
:101C5000F108E9F661E083E00E94880360E084E037
:101C60000E945A038C2FDF91CF911F91FF90EF902C
:101C70000895CF93DF9381E80E94F20DCFE2D7E081
:101C80008A8383E80E94F20D898385E80E94F20D21
:101C90008883DF91CF910C94CC09CF93C82F0E94F9
:101CA00073046093EC057093ED058093EE059093BB
:101CB000EF050E94390E2091300780913105082EE2
:101CC000000C990B2817190611F4C13081F40E94F9
:101CD000BA0D80EC0E94A70A80E00E94700A8091F1
:101CE000300780933105809131078093D705CF91DC
:101CF00008950F931F93CF93DF93082F162F61E062
:101D000084E00E945A03C3E0D0E0CE010197F1F7CE
:101D1000802F0E94DB0D2197F1F7812F0E94DB0DB0
:101D200060E084E0DF91CF911F910F910C945A03F2
:101D3000CF93DF93CFE2D7E0688184E80E94790EE9
:101D4000698182E80E94790E6A8180E8DF91CF91F3
:101D50000C94790ECF92DF92EF92FF920F931F9324
:101D6000CF93DF93D091290781E080935006D093E1
:101D70007206109251061092730669E084E796E0AD
:101D80000E942C0681E00E94E50481119EC00E9401
:101D90001C046B017C0180914A06811165C081E0C1
:101DA00080934A06809349069FEF909348061092CD
:101DB0004706109246068093250680912506DD0F82
:101DC000D82BD093250680912406813009F08BC052
:101DD000109224060E941C046B017C018091250650
:101DE0008093BB0080914C0690914D06A0914E06C9
:101DF000B0914F06892B8A2B8B2BA1F00E941C04DB
:101E000000914C0610914D0620914E0630914F06E0
:101E10006C197D098E099F090617170728073907CE
:101E200008F443C08091BC0083FDD8CF85EC80933B
:101E3000BC000E941C046B017C0180914A06813029
:101E400009F453C080914706C1E0811102C0C091DE
:101E50004706A6E2B6E0E5E3F5E080E08C1751F135
:101E60009D9191938F5FFACF80914C0690914D0692
:101E7000A0914E06B0914F06892B8A2B8B2B09F42B
:101E80008ACF0E941C0400914C0610914D062091AF
:101E90004E0630914F066C197D098E099F09061771
:101EA00017072807390708F076CF80914B060E9464
:101EB000C404C0E01092A705C093A605CC2329F066
:101EC00084E796E00E94E505C82FC07681E0C03621
:101ED00009F480E0DF91CF911F910F91FF90EF9077
:101EE000DF90CF90089585EEA2CF80914C0690911F
:101EF0004D06A0914E06B0914F06892B8A2B8B2B55
:101F000009F49BCF0E941C0400914C0610914D06D1
:101F100020914E0630914F066C197D098E099F095C
:101F2000061717072807390708F087CFBECFCF92CB
:101F3000DF92EF92FF920E9473046B017C010E947A
:101F400073046C157D058E059F0589F00E9473044E
:101F50006C197D098E099F09693B7B4081059105BC
:101F6000A8F080E0FF90EF90DF90CF9008950E945E
:101F70007304A7019601261B370B480B590BDA0196
:101F8000C901893B9B40A105B10558F70E94AA0EE3
:101F9000813041F364E170E080E090E00E94410410
:101FA000CECFCF93DF93EC01862F61110E94A70A59
:101FB00040E150E0BE0182E196E00E94EB2C1092DD
:101FC000230682E196E0DF91CF910C94640A909110
:101FD0001106282F291B330BB9012DE2611571055C
:101FE00009F420E2CB0177FF04C088279927861BDC
:101FF000970B30911006311145C06AE070E00E94E5
:102000001C2D30E040910F06413011F540910E0635
:102010004130F1F49F938F937F936F933F932F936E
:1020200088E994E09F938F9382E196E09F938F934A
:102030000E94E32D8DB79EB70A960FB6F8949EBF07
:102040000FBE8DBF6FEC74E082E196E00C94BB2D67
:102050009F938F937F936F933F932F9380EA94E0A6
:102060009F938F9382E196E09F938F930E94E32D3D
:102070002DB73EB7265F3F4F0FB6F8943EBF0FBE59
:102080002DBFE0CF313009F05CC045E380FF40E375
:102090009595879550E030910F063130C9F5309114
:1020A0000E063130A9F530910D063833C8F05F9334
:1020B0004F939F938F931F922F9389EA94E09F935E
:1020C0008F9382E196E09F938F930E94E32D8DB7CB
:1020D0009EB70A960FB6F8949EBF0FBE8DBFB2CFC3
:1020E0005F934F939F938F9381EB94E09F938F9394
:1020F00082E196E09F938F930E94E32D2DB73EB728
:10210000285F3F4F0FB6F8943EBF0FBE2DBF9ACF4A
:102110005F934F939F938F931F922F9387EB94E03E
:102120009F938F9382E196E09F938F930E94E32D7C
:102130008DB79EB70A960FB6F8949EBF0FBE8DBF9F
:1021400081CF323009F07ECF30910E0647E954E05E
:10215000313011F045E954E0672BC1F41F921F9212
:102160005F934F9380EC94E09F938F9382E196E08E
:102170009F938F930E94E32D2DB73EB7285F3F4F6B
:102180000FB6F8943EBF0FBE2DBF5CCF9F938F93C9
:102190001F922F935F934F9387EC94E09F938F93BD
:1021A00082E196E09F938F930E94E32D8DB79EB7B7
:1021B0000A960FB6F8949EBF0FBE8DBF43CF85ED34
:1021C0008093BC0080914C0690914D06A0914E06E4
:1021D000B0914F060796A11DB11D23E0B695A795B6
:1021E000979587952A95D1F72091BC0024FD03C0CF
:1021F00010924A06089540914C0650914D06609108
:102200004E0670914F06452B462B472B69F30097DE
:10221000A105B10541F025E32A95F1F700000197EA
:10222000A109B109E1CF80914B060C94C4040C9430
:10223000022D6091040184E090E00E9417118091CA
:102240000401082E000C990B6091E605C2960E94CD
:1022500017111092EB051092E7051092E805109205
:10226000E9051092EA050895CF93DF93D82FC62F82
:10227000682F85E090E00E9417116C2F86E090E0B7
:102280000E941711D0930301C0930806809109069C
:102290008150823098F48091040127E030E0281BBF
:1022A000310987FD339581E090E001C0880F2A95C0
:1022B000EAF78C2BDF91CF910C94410DDF91CF91F8
:1022C0000895CF93C82F0E94E00627E030E02C1B32
:1022D000310981E090E001C0880F2A95EAF720914A
:1022E000070621110FC0C093030180930806C09315
:1022F0000001809316056091080680910301CF913B
:102300000C94341120910806322F382329F080953F
:10231000822380930806EFCF822BFBCFEF92FF92B0
:102320000F931F93CF93DF938B01005F1F4FEB0140
:102330007C01E61AF70AFE016491C7018C0F9D1F0C
:102340000E9417112196C017D107A9F7DF91CF91ED
:102350001F910F91FF90EF9008950C94FA2CCF935A
:10236000DF93C82F80910C068093E6050E94191117
:10237000C09304016C2F84E090E00E9417118091BB
:102380000B06882391F1D091FA05D13051F060E02D
:1023900080E00E947F0D62E070E080E090E00E94AB
:1023A000410480910401082E000C990BC2960E94F2
:1023B000AD1180930C069091E105981710F490935D
:1023C0000C0680910D0690910C06981710F48093DE
:1023D0000C06C0910C06D13021F061E08C2F0E94D8
:1023E0007F0DC093E6050E94191180910906815066
:1023F0008230F0F4C09108068C2F0E94410D62E0FB
:1024000070E080E090E00E9441048091040127E0A8
:1024100030E0281B310987FD339581E090E001C051
:10242000880F2A95EAF78C2BDF91CF910C94410D00
:10243000DF91CF910895883020F490E0CC960C94F1
:10244000AD1182E008954F925F926F927F928F92CA
:102450009F92AF92BF92CF92DF92EF92FF920F9333
:102460001F93CF93DF93582E4B01E09004010E2C65
:10247000000CFF08EB0110E000E087E0C82ED12C33
:10248000AA24A394B12C2DE2722E39E4432E802F7E
:102490000E941B128130E9F4E016F106E1F4488253
:1024A0000F5F1F4F21960830110589F7F401108640
:1024B000DF91CF911F910F91FF90EF90DF90CF9020
:1024C000BF90AF909F908F907F906F905F904F9054
:1024D0000895823011F47882E3CFC601801B910BFE
:1024E000950102C0220F331F8A95E2F7C9018521A9
:1024F00091F381E3800F8883D3CFCF93DF93C09193
:10250000F105D091F20520912F0530913005C217C9
:10251000D30711F4813099F5D0933005C0932F057E
:102520000E94BA0D80EC0E94A70A80910A068130B1
:10253000F1F488E090E00E94AD119E01D7FF02C047
:102540002F5F3F4F35952795C82FC21B83E50E940B
:10255000540A8C2F6AE00E94102DC92F805D0E94C2
:10256000540A80E38C0FDF91CF910C94540A83E5D9
:102570000E94540A8DE20E94540A8DE2F4CFDF914A
:10258000CF910895FF920F931F93CF93DF93F82E6F
:102590008150990BEC0184E0CC0FDD1F8A95E1F7A7
:1025A00002E116E0CE51D440CE01800F911F0E946F
:1025B000AD11F80181938F01F6E002321F07A1F7F8
:1025C0001092220681E060E8F81260EC82E196E069
:1025D000DF91CF911F910F91FF900C94AE0ACF9392
:1025E0008AE090E00E94AD118093330561E070E0D5
:1025F00001C0660F8A95EAF7CFEFC60FC0931106A8
:102600008BE090E00E94AD11809310068FE190E086
:102610000E94AD1180930D0680E290E00E94AD1102
:10262000C81730F18093E10590910D068091E10586
:10263000891778F410920D0660E08FE190E00E9417
:102640001711609111066093E10580E290E00E940D
:1026500017118091E10590910D06891B990B97FF49
:1026600003C09195819591098093E005CF910895DC
:10267000C093E1056C2F80E290E00E941711D4CF47
:102680000F931F93CF93DF9324E0880F991F2A9510
:10269000E1F7C2E1D6E08C010E511440C8018C0F65
:1026A0009D1F0E94AD11899386E0C232D807B1F711
:1026B00010922206DF91CF911F910F9108958AE128
:1026C00090E00E94AD118093F905823029F481E0F9
:1026D00080930F060C94CB0B813021F410920F06DF
:1026E0000C94FB0B83508230C8F381E08093F90592
:1026F000F5CFEF92FF921F93CF93DF937C010E945F
:10270000AD11182FC70101960E94AD11D82FC70136
:1027100002960E94AD11C82FC70103960E94AD1109
:10272000682F70E0762F66276C0F711D90E080E0B7
:102730002D2F30E0322F2227210F311DCB0177279B
:102740006627620F731F811D911DDF91CF911F912D
:10275000FF90EF9008950F931F93CF93DF9306EBB5
:1027600015E0C8ECD0E0CE010E947913F801619326
:102770007193819391938F012496CC3DD10599F764
:10278000DF91CF911F910F910895CF92DF92EF9239
:10279000FF920F931F93CF93DF93C090CA05D09001
:1027A000CB05E090CC05F090CD050CED10E0C5E038
:1027B000D0E0C8010E947913C616D706E806F906CC
:1027C00041F021960C5F1F4FC731D10591F7CFEF34
:1027D000DFEFCE01DF91CF911F910F91FF90EF902E
:1027E000DF90CF900895EF92FF920F931F93CF93B6
:1027F000DF93EC0183E0CC0FDD1F8A95E1F790E2D7
:1028000090931206909313069093140690931506D6
:1028100090931606909317069093180690931906B6
:1028200010921A068E010A5B1F4F92E1E92E96E084
:10283000F92EC25BDF4FC8010E94AD11882341F021
:10284000F70181937F010F5F1F4F0C171D0799F749
:10285000DF91CF911F910F91FF90EF9008951F93FB
:10286000CF93DF93182FC091D405D091D505C830F0
:10287000D10518F4CE010E94F313CE0108978230DF
:10288000910510F40E94401385E08C9FF0018D9F0C
:10289000F00D1124EB56FE4FD081D150C181C150B3
:1028A0006C2F8D2F0E94B00B82E196E00E94640A8B
:1028B000113061F46091CE056C0F8D2F0E94B00B2A
:1028C0008FEFDF91CF911F910C94540ADF91CF913C
:1028D0001F9108951F93CF93DF93C82FD62F809118
:1028E0000B0690910F06913009F065C0882309F41A
:1028F0001BC18C2F0E94E70F8091FA05813029F5CA
:102900000E94130B80E00E94630C84E00E94630C21
:1029100088E00E94630C80911006823031F08BECCD
:102920000E94A70A81EA0E94540A8CE00E94630C6C
:102930008FEC0E94A70A80910A068130D1F580E0D1
:10294000DF91CF911F910C94540A80911206D0917F
:102950001306C0911406109115068D32E1F480E043
:102960000E94630CDD32D9F484E00E94630CCD3206
:10297000D9F488E00E94630C80911006823031F017
:102980008BEC0E94A70A81EA0E94540A6CE0812F16
:102990000E94BA0ACDCF60E00E94BA0AE3CF64E099
:1029A0008D2F0E94BA0AE3CF68E08C2F0E94BA0AEA
:1029B000E3CF80E2C5CF8823A1F08C2F0E94E70FE0
:1029C00022E136E0F90101900020E9F79F0123514F
:1029D000364080ED821B0E94A70A82E196E00E94A9
:1029E000640AD13059F48091FA058130D1F40E9403
:1029F000BA0D60EC81E193E00E94D10F8091F9055E
:102A0000813009F091C08091FA05813009F48CC0C1
:102A100080910B0681111AC0DF91CF911F910C9408
:102A2000BA0D8091F905843039F48091F005813038
:102A300029F70E944D0EE2CF833001F780910F06F7
:102A40008130E1F281E00E947D12D8CF6091E005F3
:102A50002C2F30E0611121C0F4E6CF9FC00111247A
:102A60006FEF70E00E941C2D87E0869FE001879F3A
:102A7000D00D1124CE0164E670E00E941C2D9B0154
:102A800090E080E041E082179307C4F4FC01FF2747
:102A9000EE5EF94F40830196F6CF80910D06281B1C
:102AA000310937FF03C031952195310944E6429F32
:102AB000C001439F900D112470E0D4CFC90137FFAE
:102AC00002C090E080E0482F27303105B4F441E0A7
:102AD000480F9927FC01EE5EF94F55E05C9FC0015D
:102AE0005D9F900D112464E670E00E941C2D8BEF19
:102AF000289F600D11246D5F608382E02F5F3F4F40
:102B0000273031053CF4E42FF0E0EE5EF94F80838E
:102B10004F5FF4CF1092190660EC82E196E0DF91EE
:102B2000CF911F910C94AE0ADF91CF911F91089520
:102B30000F931F93CF93DF93CDB7DEB729970FB6CF
:102B4000F894DEBF0FBECDBF80910F06813009F42F
:102B500040C081E00E94BB0B809109068823C9F127
:102B600010910401812F0E941B12813061F4812F8A
:102B7000110F990B0E94F31310921A0660E882E17C
:102B800096E00E94AE0A85E090E00E94AD11182FF9
:102B90008093030186E090E00E94AD11082F80939E
:102BA0000806812F0E941B12811113C08091070615
:102BB000811131C0812F110F990B0E94F3131092D4
:102BC0001A0668E080E00E94B00B82E196E00E9465
:102BD000640A61E080910C060E946A1480910B06E1
:102BE000882371F080910F06813051F48FEC0E94A0
:102BF000A70A80910A068130D9F480E00E94540A25
:102C000029960FB6F894DEBF0FBECDBFDF91CF91EE
:102C10001F910F91089568E080E00E94B00BBE0103
:102C20006F5F7F4F802F0E942312CE010196CFCF7E
:102C300080E2E4CF80912507882361F08091270707
:102C40000E94160480910606813011F40E949815A6
:102C50001092250710922307109222070E947304F6
:102C600060931E0770931F0780932007909321079E
:102C700008950F931F93CF93DF938C01EB010E9474
:102C80001A160E94130B60E882ED94E00E94AE0ACF
:102C900068E8C8010E94AE0A60EC87ED94E00E94EB
:102CA000AE0A68ECCE01DF91CF911F910F910C9489
:102CB000AE0A1092060660E082E090E00E941711D2
:102CC00010920A061092F2051092F105109230054A
:102CD00010922F0560E081E10E945A0360E080E1DC
:102CE0000E945A0380910C068093E6050E941911F8
:102CF000809109068150823068F580E00E94410D84
:102D00000E94130B0E941A1663E88AEB91E00E945E
:102D1000D10F60E081E692E00E94D10F60E273E0A3
:102D200080E090E00E94410460E087E00E945A0346
:102D30000E94FB0B0E94130B809128078130A1F0A9
:102D400081E00E94C2128091F00581110DC082E0E5
:102D50000C94C21280910B068150833088F661E09A
:102D600080E00E947F0DCCCF0895CF93C62F0E94A4
:102D70007F0D6C2F80910C06CF910C946A14CF9329
:102D8000DF9390910B06992361F0909106069923A9
:102D900041F090910C06823039F42091E1059217B0
:102DA00038F0DF91CF91089520910D062917C8F7CB
:102DB000D62FC82F0E941A169091FA0580910C0602
:102DC0009130C9F5C230C9F51092FA0561E00E9450
:102DD0006A1480910C069091E105D13071F4891745
:102DE00048F4282F30E02F5F3F4F8F5F9217130674
:102DF00009F064F490930C060BC020913205692F02
:102E0000621B770B86171706ACF7820F80930C06B0
:102E100060E080910C06DF91CF910C94B516209163
:102E20003205692F620F7727771F8617170611F370
:102E30000CF3821BEBCFC23061F290910D06D130C2
:102E400071F79817B8F6482F4150550B81509417D9
:102E50001506E4F2CFCF80910B06882331F10E9452
:102E60001A168091FA05811119C08091E005882316
:102E7000E1F060E081E10E945A0360E080E10E949D
:102E80005A0361E080910D060E94B51681E080939F
:102E9000FA0561E080910C060C946A141092FA0510
:102EA00061E080910C060C94B5160895DF92EF92C4
:102EB000FF920F931F93CF93DF93F82EC091D2050B
:102EC000D091D30580912C05CB31D10569F080914B
:102ED0002E05CC31D10541F080912D05CD31D105A4
:102EE00019F0CE010E94AD1190E09093B50580934A
:102EF000B405809127070E941604C731D10581F4DB
:102F00008091B405809326070E941604CE014F9746
:102F1000029708F090C08091B4050E94E70F39C075
:102F2000C831D10529F48091B40580932707EECFED
:102F3000CE31D10559F7209110068091B4059091BA
:102F4000B505213029F030910B06333009F043C02C
:102F500025E380FF20E31F922F93959587959F93FC
:102F60008F9389EB94E09F938F9382E196E09F93F8
:102F70008F930E94E32D8DB79EB708960FB6F894F5
:102F80009EBF0FBE8DBF6FEC74E082E196E00E94A1
:102F9000BB2D8091D4059091D5052BE0289F800111
:102FA000299F100D1124015F1C4FF801E180DD24E1
:102FB000DA94DE0CC081C1506D2D8C2F0E94B00BB5
:102FC000D0E0F8011281D11708F002C180E20E941E
:102FD000540ADF5FF8CF223099F49F938F938CEDE2
:102FE00094E09F938F9382E196E09F938F930E944A
:102FF000E32D0F900F900F900F900F900F90C3CF75
:103000006AE070E00E941C2D9F938F937F936F93D3
:1030100082EE94E09F938F9382E196E09F938F934B
:103020000E94E32DEDB7FEB738960FB6F894FEBFB9
:103030000FBEEDBFA8CFCB30D105C1F48091B40550
:103040009091B50562EB72E0009729F0813091050F
:1030500039F46BEA72E082E196E00E94E42C99CFA9
:1030600066EA72E0029709F094CFF5CFC131D1053D
:10307000A1F48091B4059091B505009719F462EA26
:1030800072E0E9CF6BE972E08130910521F364E9E8
:1030900072E0029709F07DCFDECFCE01CC97089782
:1030A00068F48091B4059091B5056DE872E00097E1
:1030B00091F267E872E0019711F7CDCFC231D105E7
:1030C00091F48091B4059091B5050097C1F26FE736
:1030D00072E08130910509F4BECF67E772E0029794
:1030E00009F057CFB8CFC659D1092897A0F540911C
:1030F000B4055091B505842FE7E1F5E060E175E096
:10310000A0E3B1E3282F30E080FF23C0B683C901DC
:103110009595879531976E177F07A1F787E195E021
:1031200010921E059F938F935F934F938AEE94E0C6
:103130009F938F9382E196E09F938F930E94E32D5C
:103140008DB79EB708960FB6F8949EBF0FBE8DBF81
:1031500020CFA683DCCF8091D4059091D5052BE0BC
:10316000289FF001299FF00D1124E15FFC4F82811F
:103170008130B9F48091B5058F938091B4058F9318
:1031800087EE94E09F938F9382E196E09F938F93D5
:103190000E94E32D0F900F900F900F900F900F90C3
:1031A000F8CE823049F48091B5058F938091B405B3
:1031B0008F9382EF94E0E6CF833009F0EACE8091DE
:1031C000B5058F938091B4058F9387EF94E0DACFA4
:1031D0006D2D8C2F0E94B00B82E196E00E94640A54
:1031E000F1E0FF1227C06091CE0561506E0D8C2F6B
:1031F0000E94B00B8091D605823091F4C0E002E1CC
:1032000016E0F80101900020E9F7CF0183519640C4
:10321000C817190678F48FEF0E94540ACF5FF1CFD8
:103220008FEFDF91CF911F910F91FF90EF90DF9083
:103230000C94540ADF91CF911F910F91FF90EF9062
:10324000DF9008950F931F93CF93C82F8091D405DB
:103250009091D5052BE0289FF001299FF00D1124B6
:10326000E15FFC4F25813681C217130611F00CF087
:10327000C22F2BE0289FF001299FF00D1124E15F60
:10328000FC4F83819481C81719060CF4C82F009154
:10329000D2051091D3050F31110531F48091E1056C
:1032A0008C1748F4C82F07C00032110549F48091EB
:1032B0000D06C817B8F36C2FC8010E9417112DC056
:1032C0000731110551F480912707C81710F0CFEF8F
:1032D000C80F8C2F0E941604EECF0831110539F467
:1032E000809126078C1738F3C1E0C80FE4CF0B316B
:1032F000110519F58C2F0E94EE0980932F078091FC
:103300002E050E94EE098093300780912D050E94C2
:10331000EE09809331070E94980E8091D20590911A
:10332000D305479721F0809127070E94160480E07B
:10333000CF911F910F910C9456170C31110541F448
:1033400080912C050E94EE0980932F078C2FD9CFF6
:103350000D31110509F0AFCF80912C050E94EE09C7
:1033600080932F0780912E050E94EE0980933007ED
:103370008C2FCDCF0F931F93CF93DF93C82F0E9435
:10338000130B809127070E941604C093D80526E0EE
:10339000C29FF0011124EB57FD4F848190E0909380
:1033A0002B0580932A05858190E0909329058093D1
:1033B0002805828190E09093B3058093B205C38184
:1033C000D0E08091B2059091B305C817D9070CF4ED
:1033D0004EC00E945E068091D605813009F03BC048
:1033E0000091D4051091D505000F111F000F111F7A
:1033F0000B5F1E4FD80111966C91119761508C9103
:1034000081500E94B00BD8011296ED91FC91FF27DC
:10341000EE0FFF1FE754FD4F85919491A2E1B6E0B6
:1034200082519640FC01EA0FFB1FE491ED93EE23DD
:1034300021F0E6E0A332BE07A9F782E196E00E9400
:10344000640A8091B2059091B30501969093B305FB
:103450008093B205B6CF823021F480E00E945617E7
:10346000F0CF833071F780E00E942F14EACF809173
:103470002A0590912B059093B3058093B2050E9485
:103480005E068091D6058230C1F41092CE0580E0B0
:103490000E9456178091F705813051F08091F80510
:1034A000813031F40E94E7029093E4058093E305B4
:1034B000DF91CF911F910F910895833059F71092AA
:1034C000CE0580E00E942F14E5CF9091D605933071
:1034D00011F40C942F14923011F40C945617089593
:1034E0000E9473046093D9057093DA058093DB051D
:1034F0009093DC058091DD05811107C081E0809308
:10350000DD058091DD050C94651A1092DD05F9CF7B
:103510000E9473046093D9057093DA058093DB05EC
:103520009093DC051092DD0580E00C94651AAF9253
:10353000BF92CF92DF92EF92FF920F931F93CF93A0
:10354000DF9361E090E080E00E941711C1E0C0933A
:10355000060661E082E090E00E94171110920401DB
:1035600060E084E090E00E94171187E080930301FF
:10357000C093080667E085E090E00E941711609113
:10358000080686E090E00E9417111092070660E09E
:1035900087E090E00E941711C093100661E08BE075
:1035A00090E00E9417118CE0809332056CE08EE170
:1035B00090E00E94171188E08093330568E08AE06C
:1035C00090E00E9417112091330581E090E001C046
:1035D000880F2A95EAF781508093110610920D0604
:1035E00060E08FE190E00E941711609111066093F6
:1035F000E10580E290E00E941711C093F00561E0C0
:103600008EE090E00E94171184E68093260764E61E
:1036100087E190E00E9417118FEF809327076FEFEB
:1036200088E190E00E941711809127070E941604FC
:1036300083E08093280763E089E190E00E941711FE
:103640001092F70560E08CE090E00E941711C093A3
:10365000F80561E08DE090E00E941711C0930B0621
:1036600061E081E190E00E9417118FE38093A8054B
:103670008EE38093A9058DE38093AA058CE3809364
:10368000AB056FE386E990E00E9417116091A905F0
:1036900087E990E00E9417116091AA0588E990E0FF
:1036A0000E9417116091AB0589E990E00E94171103
:1036B000C093090661E082E190E00E9417118BE35C
:1036C0008093AC058AE38093AD0589E38093AE05D2
:1036D00088E38093AF056BE38AE990E00E941711BD
:1036E0006091AD058BE990E00E9417116091AE05E5
:1036F0008CE990E00E9417116091AF058DE990E090
:103700000E941711C093F90561E08AE190E00E94E0
:10371000171160E083E190E00E94171160E084E1FE
:1037200090E00E9417116CE388E090E00E9417116E
:1037300063E089E090E00E941711E7EFF2E0659105
:10374000749184EF91E00E948E11E9EFF2E06591AF
:10375000749184E092E00E948E1106E410E0C2E3CE
:10376000D0E09CEFE92E94E0F92E60E0CE010E94BB
:103770001711CE010A962C2F2253243008F042C094
:1037800061E00E94171167E872E082E196E00E9412
:10379000E42CCE0101979F938F9382E196E09F9353
:1037A0008F93FF92EF929F938F930E94E32D82E17C
:1037B000C82E86E0D82E580188E0A80EB11CEDB7BF
:1037C000FEB738960FB6F894FEBF0FBEEDBFF601F8
:1037D00061916F01C8010E9417110F5F1F4F0A15F9
:1037E0001B05A9F72196CA33D10509F0BECFDF9199
:1037F000CF911F910F91FF90EF90DF90CF90BF90EE
:10380000AF90089560E00E9417116DE872E0BDCF9F
:10381000CF92DF92EF92FF920F931F93CF93DF939C
:103820000E94130B8FEF0E941604C4E0D0E060E802
:103830008EE392E00E94D10F219779F06CE271E063
:1038400080E090E00E9441040E94130B66E470E067
:1038500080E090E00E944104EACF68EE73E080E0EF
:1038600090E00E9441040E94130B60E88DE292E018
:103870000E94D10F0E94970F813009F08BC082E027
:103880000E94BB0B60EC8CE192E00E94D10F0E9481
:10389000971A68EE73E080E090E00E9441040E9475
:1038A000130B60E888E092E00E94D10F8FE30E9442
:1038B000540A0E94970F813009F075C00E943B02A4
:1038C0000E94130B60E888E092E00E94D10F8AE327
:1038D0000E94540A60ED77E080E090E00E9441048D
:1038E00000EC11E0C8ECD0E082E00E94BB0BF801D4
:1038F0008591949161EC0E94D10FEE24E394F12C18
:103900000E94E2066093CA057093CB058093CC05B4
:103910009093CD05672B682B692B09F09CC00E9402
:103920003B0281E0E8126BC082E00E94BB0B66E9BB
:1039300070E080E090E00E944104E12C0E94AA0E19
:10394000813009F06CC082E00E94BB0B61EC8BEF10
:1039500091E00E94D10F64EF71E080E090E00E945E
:103960004104109212051092130510921405109242
:10397000150568EE73E080E090E00E9441040E942B
:103980003B020E5F1F4F2496C43281E0D80709F036
:10399000ABCF17C082E00E94BB0B60EC81E192E0EC
:1039A0000E94D10F76CF82E00E94BB0B60EC81E1D8
:1039B00092E00E94D10F68EE73E080E090E00E94F8
:1039C000410481E080930E060E94AB130E94130B0A
:1039D0000E941A1660E880EF91E00E94D10F64EF18
:1039E00071E080E090E00E944104DF91CF911F914F
:1039F0000F91FF90EF90DF90CF900C94130BF39406
:103A0000F8018591949161EC0E94D10F6CE271E014
:103A100080E090E00E944104EE24E3948FCF87E29F
:103A20008F1508F06DCF81E080930E060E94130B76
:103A300060EC80EF91E00E94D10F68EE73E080E0CF
:103A400090E0DF91CF911F910F91FF90EF90DF9069
:103A5000CF900C94410460EC82E095E00E94AE0AA5
:103A6000F8018591949161EC0E94D10FC090CA0534
:103A7000D090CB05E090CC05F090CD056C2DCE011B
:103A80000E94171199278F2D7E2D6D2DCE01019645
:103A90000E941711B70188279927CE0102960E942C
:103AA00017116F2D772788279927CE0103960E943B
:103AB000171157CFCF93DF9381E090E00E9440131E
:103AC0004CE050E064E075E082E196E00E94C62D93
:103AD000892BA9F480911E06803389F480911F06FA
:103AE0008E3269F48091200680538A3040F4E9EFE9
:103AF000F2E06591749184E092E00E948E110E9440
:103B0000EF1282E090E00E94AD11809306068EE1F4
:103B100090E00E94AD118093320589E090E00E9410
:103B2000AD118F3128F06EE189E090E00E9417110D
:103B30008EE090E00E94AD118093F005813031F06D
:103B400084E090E00E94AD11809304018091040113
:103B500088303CF01092040160E084E090E00E9424
:103B60001711C09104010C2E000CDD0BE296CE0162
:103B70000E94AD1180930C069091E105981710F406
:103B800090930C0680910D0690910C06981710F4F6
:103B900080930C0660910C06CE010E94171185E0FF
:103BA00090E00E94AD11C82F8093030186E090E061
:103BB0000E94AD118093080687E090E00E94AD114D
:103BC00080930706C8308CF087E08093030181E082
:103BD0008093080667E085E090E00E9417116091ED
:103BE000080686E090E00E941711809103018093FF
:103BF0000001809108068093160581E190E00E9403
:103C0000AD11833008F067C080930B0682E190E02D
:103C10000E94AD11833008F067C0809309068CE0E4
:103C200090E00E94AD118093F7058DE090E00E9436
:103C3000AD118093F80581E08093E50560E081E1B6
:103C40000E945A0360E080E10E945A0386E990E0F6
:103C50000E94AD118093A80587E990E00E94AD1104
:103C60008093A90588E990E00E94AD118093AA0590
:103C700089E990E00E94AD118093AB058AE990E05C
:103C80000E94AD118093AC058BE990E00E94AD11CC
:103C90008093AD058CE990E00E94AD118093AE0554
:103CA0008DE990E00E94AD118093AF0587E190E02F
:103CB0000E94AD118093260788E190E00E94AD112B
:103CC0008093270789E190E00E94AD118093280737
:103CD000DF91CF91089581E080930B0661E081E14F
:103CE00090E00E94171192CF81E08093090661E075
:103CF00082E190E00E94171192CF0F931F93CF9310
:103D00000091D2051091D305C091B4050D31110574
:103D100061F40E94390E8C2F0E94EE0980933107C6
:103D20000E94980E6C2FC80108C00A30110571F46A
:103D3000C09333056C2F8AE090E00E9417110E9417
:103D4000EF12CF911F910F910C945A1D0B3011055A
:103D500049F7C09310066C2F8BE090E0EECF0E94E5
:103D6000AB130E945A1D10920A061092F20510928F
:103D7000F1051092300510922F0581E080930E0618
:103D80001092EB051092E7051092E8051092E905F4
:103D90001092EA058091F805813031F40E94E70223
:103DA0009093E4058093E3050895DF92EF92FF92EC
:103DB0000F931F93CF93DF93D82E0E94130B609124
:103DC000270770E080912C070E94B9030E94130B13
:103DD0000E9498150E941A1660E087E00E945A031C
:103DE000809109068150823008F073C080E00E9403
:103DF000410D61E087E00E945A030E94130B0E946C
:103E00001A1663E88AEB91E00E94D10F60E087E622
:103E100092E00E94D10F60E273E080E090E00E94A7
:103E200041040E94130B63E880EB91E00E94D10FE4
:103E300089E090E00E94AD11C82FD0E002EF14E0BD
:103E400082E1E82E86E0F82E2097E1F0DF93CF9311
:103E50001F930F93FF92EF920E94E32D67EC82E194
:103E600096E00E94AE0A0E94AA0E21970F900F9032
:103E70000F900F900F900F908130B1F50E94081CA9
:103E80000E94AF1E8091F705813051F08091F805B6
:103E9000813031F40E94E7029093E4058093E305BA
:103EA000DD2009F444C00E94130BC0912607D0E026
:103EB000809127078C171D06F1F0ECF08C2F0E94E3
:103EC000160462E070E080E090E00E9441042196D8
:103ED000EFCF80910B068150833008F08ACF61E0EC
:103EE00080E00E947F0D85CF68EE73E080E090E077
:103EF0000E944104A9CF1092250710922307109227
:103F000022070E94730460931E0770931F0780931B
:103F100020079093210781E00E94C21282E00E9454
:103F2000C2120E94970F813011F40E94081C0E9457
:103F3000AF1E0E94130B84E090E00E94AD118093AD
:103F40000401082E000C990BC2960E94AD118093BB
:103F50000C068091F705813049F483E08093E505F4
:103F60008FEF9FEF9093E4058093E305DF91CF916E
:103F70001F910F91FF90EF90DF900895EF92FF92C5
:103F80001F93CF93DF93CDB7DEB762970FB6F89448
:103F9000DEBF0FBECDBF90910606992309F464C021
:103FA000182F0E941A1680910906882309F45CC014
:103FB00048E050E060E270E0CE0101960E94B42D2E
:103FC000198648E050E060E270E0CE010A960E9457
:103FD000B42D1A8A812F0E941B1281116BC080910F
:103FE000070681114DC080910301082E000C990B2A
:103FF000E12EF12C8E159F05B9F120910F0621308D
:1040000051F40E94F31348E050E062E176E0CE0103
:1040100001960E94D42D812F0E94611180910F067C
:104020008130D1F4C7010E94F31348E050E062E10F
:1040300076E0CE010A960E94D42DBE01665F7F4FC6
:10404000CE0101960E94391668EE73E080E090E0A0
:104050000E9441040E94130B0E94981560E971E0D0
:1040600080E090E00E94410462960FB6F894DEBFB3
:104070000FBECDBFDF91CF911F91FF90EF900895BC
:1040800080910F06813039F4BE016F5F7F4F8091C0
:1040900008060E942312812F0E94611180910F0651
:1040A0008130D1F6BE01665F7F4F809108060E9485
:1040B0002312C3CF813091F680910401082E000CA9
:1040C000990BE12EF12C8E159F0571F220910F06B0
:1040D0002130E1F40E94F31348E050E062E176E021
:1040E000CE0101960E94D42DC7010E94F31348E02F
:1040F00050E062E176E0CE010A960E94D42DBE0126
:10410000665F7F4FCE0101960E9439160E94E0063D
:10411000812F0E94AF1180910F06813009F09CCF52
:1041200093CFCF92DF92EF92FF92CF93DF93C09124
:104130000606C130E1F40E94AA0E8823E9F1C4E129
:10414000D0E00E94AA0E882309F4C1C264E670E0A0
:1041500080E090E00E944104219799F70E9459164F
:1041600068EE73E080E090E00E9441041DC00E9470
:10417000AA0E882309F166E970E080E090E00E94D1
:10418000410481E08093060661E082E090E00E94B5
:10419000171181E00E94D51E809104010E94AF1189
:1041A0000E945F130E949815DF91CF91FF90EF90CE
:1041B000DF90CF900C943B020E94E2066B017C01E1
:1041C000C092CA05D092CB05E092CC05F092CD0505
:1041D000C114D104E104F10409F482C28091BE0546
:1041E0009091BF05A091C005B091C105C816D90630
:1041F000EA06FB0629F00E94C5138530910541F4BB
:10420000CC2309F46DC20E94E00661E082E02BC07D
:104210004091C2055091C3056091C4057091C505D8
:10422000C416D506E606F706B9F086309105A1F06A
:104230004091B6055091B7056091B8057091B905E8
:10424000C416D506E606F706C1F4CC2309F448C225
:104250000E94E00662E0DACFCC2309F441C20E945A
:10426000E00661E081E00E94BF1664E170E080E05A
:1042700090E00E9441042D9897CF4091BA0550914B
:10428000BB056091BC057091BD05C416D506E60658
:10429000F70639F4CC2309F423C20E94E00662E059
:1042A000E1CF4091C6055091C7056091C805709156
:1042B000C905C416D506E606F70671F4CC2309F441
:1042C0000FC20E941A160E94E0060E942B1760E996
:1042D00071E080E090E0CDCF8C30910521F480E05A
:1042E0000E94BE1FC8CF8D30910511F481E0F8CF38
:1042F0008E30910511F482E0F3CF8F30910511F4E7
:1043000083E0EECF8031910511F484E0E9CF813173
:10431000910511F485E0E4CF8231910511F486E036
:10432000DFCF8331910511F487E0DACF8830910532
:10433000B9F5CC2309F4D4C10E94E0060E941A16F4
:1043400082E080930E0660E081E10E945A0360E003
:1043500080E10E945A036EEE72E080E090E00E94DD
:10436000410480910C068093E6050E94191164E6D1
:1043700070E080E090E00E9441040E943B02809146
:10438000F805813031F40E94E7029093E4058093B0
:10439000E3050E94130B8091D8050E94BA196BCFD8
:1043A0008730910531F50E941A160E94E00680912F
:1043B0000606811114C081E08093060661E082E068
:1043C00090E00E94171180E00E94D51E80910401A8
:1043D0000E94AF110E945F130E94981578CF10922F
:1043E000060660E082E090E00E9417110E945916D4
:1043F0006ECF8631910509F046C0CC2309F470C117
:104400000E941A160E94E0068BE492E00E947C252E
:104410008091070681111CC081E08093070661E04E
:1044200087E090E00E94171160E087E692E00E942A
:10443000D10F68EE73E080E090E00E94410460914B
:104440000806809103010E9434110E94130B4CC096
:104450001092070660E087E090E00E94171160E08C
:1044600081E692E00E94D10F68EE73E080E090E078
:104470000E94410480910001809303016091160520
:1044800060930806E0CF8930910509F04BC0CC233A
:1044900009F426C10E941A160E94E00685E592E002
:1044A0000E947C2580910A06813009F510920A0647
:1044B0001092F2051092F1051092F3051092F40596
:1044C0001092F5051092F60560E081E692E00E94F8
:1044D000D10F68EE73E080E090E00E94410480918B
:1044E0000F06813009F4B1CF0E949815C4CE81E047
:1044F00080930A061092F2051092F1058FEF9FEF5C
:104500009093300580932F050E9473046093F30508
:104510007093F4058093F5059093F60560E087E6C7
:1045200092E0D5CF8B30910509F065C0CC2309F41A
:10453000D7C00E941A160E94E006C091F905C1304A
:1045400001F580910B06882389F082E08093F905BC
:1045500062E08AE190E00E941711C0930F060E946A
:10456000130B0E94CB0B0E94130B36CF83E080937A
:10457000F90563E08AE190E00E94171110920F069E
:104580002AC0C23079F483E08093F90563E08AE1C0
:1045900090E00E94171110920F060E94130B0E94C8
:1045A000FB0BE1CFC330F9F48091F0058130C9F401
:1045B00084E08093F9056091F9058AE190E00E941A
:1045C000171110920F061092EC051092ED05109243
:1045D000EE051092EF0561E080910C060E946A14CE
:1045E00076CE81E0E6CFC43009F071CE81E08093D1
:1045F000F90561E0BFCF0A9709F03DCE0E941A1677
:104600000E94E00680912807813041F583E0809385
:10461000280763E089E190E00E9417118DE692E09F
:104620000E947C2560E087E692E00E94D10F6CEB4F
:1046300072E080E090E00E944104809106068111C2
:104640004ECF0E94130B81E00E94C2128091F005B0
:10465000811111CE82E00E94C2120DCE823021F56E
:1046600081E08093280761E089E190E00E941711C2
:104670008DE692E00E947C2560E081E692E00E9457
:10468000D10F6CEB72E080E090E00E9441040E9448
:10469000130B80910606813021F40E945F130E9463
:1046A00098150E94160BE7CD833009F0E4CD82E027
:1046B0008093280762E089E190E00E9417118DE65F
:1046C00092E00E947C2560E08BE592E0AECF0E94F4
:1046D0001A160E942B176AEF70E080E090E044CD3C
:1046E000DF91CF91FF90EF90DF90CF9008951F92D0
:1046F0000F920FB60F9211242F933F938F939F9396
:10470000AF93BF9380919A0590919B05A0919C05D2
:10471000B0919D053091990523E0230F2D3758F571
:104720000196A11DB11D2093990580939A05909340
:104730009B05A0939C05B0939D0580919E0590914B
:104740009F05A091A005B091A1050196A11DB11DE5
:1047500080939E0590939F05A093A005B093A1051B
:10476000BF91AF919F918F913F912F910F900FBE6D
:104770000F901F90189526E8230F0296A11DB11DDA
:10478000D2CF1F920F920FB60F9211242F933F9307
:104790004F935F936F937F938F939F93AF93BF9349
:1047A000EF93FF938091B900887F803609F44AC067
:1047B000F0F5883209F4A7C018F5803109F49BC0E0
:1047C000B8F4882309F4F9C0883009F494C0FF9143
:1047D000EF91BF91AF919F918F917F916F915F9179
:1047E0004F913F912F910F900FBE0F901F901895F2
:1047F000883109F488C0803251F78093480614C08C
:10480000803409F49DC040F48033B9F38833F9F65D
:104810008093480685ECB0C0803509F485C08835A2
:1048200009F496C0883499F60E94DF10D0CF8839F9
:1048300009F48CC038F5883729F050F4883611F027
:10484000803729F683E080934A061092980557C076
:10485000883809F47BC0803919F0803809F0B7CF67
:1048600080919805803208F071C0E091980581E050
:104870008E0F809398058091BB00F0E0E858FA4FC6
:1048800080833DC0803B39F0E0F4803A09F479C080
:10489000883A09F09CCF84E080934A06109277050D
:1048A00010927605E091A405F091A50509958091F7
:1048B000760581110FC081E0809376051092560530
:1048C00009C0803C09F4A6CF883C09F4A3CF883BFB
:1048D00009F07DCFE091770581E08E0F8093770519
:1048E000F0E0EA5AFA4F80818093BB0090917705FF
:1048F0008091760529C0809125068093BB0085ECC8
:104900008093BC0064CF909147068091460698172B
:1049100058F5E091470681E08E0F80934706F0E05E
:10492000EA5DF94F8081E9CFE091470681E08E0F83
:10493000809347068091BB00F0E0EA5DF94F8083E9
:1049400090914706809146069817C8F285E8D8CF1F
:10495000E091470681E08E0F809347068091BB006F
:10496000F0E0EA5DF94F80838091490681115CCFC8
:1049700081E08093240684EA8093BC0010924A066A
:1049800026CF85EC8093BC0010924A068091980552
:10499000803230F4E0919805F0E0E858FA4F108248
:1049A0006091980570E0E091A205F091A30588E779
:1049B00095E00995109298050ACF1092480634CFD9
:1049C0001F920F920FB60F9211242F933F934F9384
:1049D0005F936F937F938F939F93AF93BF93EF9367
:1049E000FF9380912306811120C081EA8093B20059
:1049F000809180060E9431032091830630918406C5
:104A00002F5F3F4F309384062093830690911D07BC
:104A10009C3418F095E09093810690918106933034
:104A200009F443C098F49230C9F0FF91EF91BF911F
:104A3000AF919F918F917F916F915F914F913F9136
:104A40002F910F900FBE0F901F901895943009F47E
:104A500047C0953051F7882351F0E7CF8111E5CF5A
:104A600080918306909184068436910528F41092F3
:104A7000840610928306D9CF10921D07E0911D077E
:104A800081E08E0F80931D07F0E080918306909166
:104A90008406EE0FFF1FE058F94F9683858310922E
:104AA00084061092830683E018C0813009F0BDCFE0
:104AB000E0911D078E0F80931D07F0E08091830623
:104AC00090918406EE0FFF1FE058F94F968385837F
:104AD000109284061092830684E080938106A5CF0D
:104AE000882361F280918306909184068536910532
:104AF00008F49BCF85E0F1CFCF93DF93EC010E94C8
:104B0000130B60E8CE01DF91CF910C94D10FE4E755
:104B1000F6E01382128288EE93E0A0E0B0E0848396
:104B20009583A683B78386E894E091838083E0E849
:104B3000F6E088E080831282EEE1F7E082E084878D
:104B400090E1958797E2938799E09687828717820D
:104B5000108211821282138215821482168261E001
:104B600089E00C948803789484B5826084BD84B510
:104B7000816084BD85B5826085BD85B5816085BD58
:104B800080916E00816080936E0010928100809110
:104B90008100826080938100809181008160809398
:104BA0008100809180008160809380008091B100BD
:104BB00084608093B1008091B00081608093B000E8
:104BC00080917A00846080937A0080917A0082607C
:104BD00080937A0080917A00816080937A0080913E
:104BE0007A00806880937A001092C1001092A70525
:104BF0001092A60510925106109273060E94A60408
:104C000086E093E09093A5058093A40587E093E068
:104C10009093A3058093A20580910B06833008F042
:104C200066C080910906823008F061C0CFE3D1E010
:104C3000D0935006C09372061092510610927306DC
:104C400060E084E796E00E942C0681E00E94E50483
:104C5000C150C73369F7C7E2D1E0D0935006C09383
:104C60007206109251061092730660E084E796E097
:104C70000E942C0681E00E94E504C150CF3169F703
:104C8000E090AC0540E060E08E2D0E94F509F090C8
:104C9000AD054FEF60E08F2D0E94F5090091AE0544
:104CA00040E060E0802F0E94F5091091AF054FEFC2
:104CB00060E0812F0E94F509CBECD9E3CE0101978A
:104CC000F1F740E060E08E2D0E94F50940E060E0E1
:104CD0008F2D0E94F50940E060E0802F0E94F509C9
:104CE00040E060E0812F0E94F5092197F1F761E033
:104CF00087E00E94880360E087E00E945A0381E019
:104D000090E00E94AD11823F39F00E94971A62EF45
:104D100081E090E00E94171160E081E00E9488032A
:104D200061E080E10E94880361E081E10E948803E4
:104D300060E080E10E945A0360E081E10E945A0332
:104D400060E08DE00E945A030E94AF1E61E084E0A3
:104D50000E94880361E083E00E94880361E082E0B2
:104D60000E94880360E08EE80E94790E81E80E942C
:104D7000F20D682F6F776093310780E80E94790EFB
:104D800065EA80E90E94790E0E94130B80E6809309
:104D90002E0710922D074CE065E0809129070E94B4
:104DA000F50962E370E080E090E00E9441044091E8
:104DB0002E0760E0809129070E94F50962E370E008
:104DC00080E090E00E94410440912E0766E08091CF
:104DD00029070E94F50962E370E080E090E00E94FC
:104DE000410483E00E940D0A65E070E080E090E0FD
:104DF0000E94410483E00E940D0A8BE891E0019734
:104E0000F1F783E00E940D0A65E070E080E090E039
:104E10000E94410482E00E940D0A88E20E943B0A3F
:104E20008CE00E943B0A8BEE90E00197F1F781E065
:104E30000E94A70A109223060E94FB0B89E190E0D2
:104E40000E94AD118093280787E190E00E94AD1188
:104E50008093260788E190E00E94AD118093270798
:104E600083E190E00E94AD118093D80584E190E049
:104E70000E94AD1190E09093B3058093B20510921B
:104E8000CE0580912306811124C01092B00080913C
:104E9000B1008B7F8093B1008091B10082608093DC
:104EA000B1008091B1008E7F8093B100809170003D
:104EB00081608093700081EA8093B200789482E0F0
:104EC0008093810610921D078091800660E00E9409
:104ED0008803809106068130D9F50E94D51E809105
:104EE00004010E94AF110E945F130E949815812C4B
:104EF00044E0942EA12CB12C12E066246A94762C06
:104F00000BE08091060681113DC080912807813019
:104F1000D1F08091F0058130B1F464E00E94B00BD3
:104F2000C0913107C093D7050E94390E0E94CC0969
:104F3000209131070C2E000CDD0B2C171D0619F0EB
:104F400081E00E94700A0E9491200E942F0B0BC1E9
:104F50000E94130B80912807813049F26091270746
:104F600070E080912C070E94B90381E00E94C21278
:104F70008091F005811103C082E00E94C2120E945C
:104F80001A16B5CF80910E06823009F034C30E9404
:104F90005E068091DD058111FDC00E9473046B01E6
:104FA0007C012090D9053090DA054090DB055090C7
:104FB000DC05C214D304E404F50409F4DCC00E9447
:104FC000730462197309840995096C327140810573
:104FD000910510F00E94701A8091D8058131C1F4BA
:104FE0000E94390E0E94CC09209131078091D7058B
:104FF000082E000C990B2817190651F02093D7059D
:105000000E94881A82EC0E94A70A81E00E94700A1E
:105010008091F805813009F070C00E94E702DC0140
:105020008091E3059091E405FD01E81BF90BCF01A8
:10503000F7FF03C091958195910904970CF45DC029
:105040007092020160920101B093E405A093E30520
:105050008091D605823009F0CCC08091D405909122
:10506000D505089FF001099FF00D1124E15FFC4F69
:10507000C380D4808091D2059091D3054F97409101
:10508000110650E0029710F0458156810D2C000C5E
:10509000EE08FF08052E000C660B770B9A01AB019A
:1050A0002C193D094E095F092F5F3F4F4F4F5F4F4E
:1050B0000E94562DA50194010E94302DC20ED31ED0
:1050C000E41EF51ED092D105C092D0058091D00586
:1050D0009091D105019689F00E94881A8091D60599
:1050E000823009F0AAC08091D0050E94221962E3A3
:1050F00070E080E090E00E9441040E94E2066B01B3
:105100007C01C092CA05D092CB05E092CC05F0920A
:10511000CD05C114D104E104F10429F10E94C513A5
:105120008630910509F0A1C08091D605823011F436
:105130000E947D1E0E94881AE091D80526E02E9FCD
:10514000F0011124EB57FD4F81818093D8050E9417
:10515000BA190E94701A60E570E080E090E00E9449
:1051600041040E943B0280E090E0892B09F4C9CE03
:105170000E940000C5CE0E947304C61AD70AE80A2E
:10518000F90A3CE2C31631E0D306E104F10408F069
:1051900021CF22CF813009F01FCF0E9473046B0111
:1051A0007C012090D9053090DA054090DB055090C5
:1051B000DC05C214D304E404F50469F00E9473040E
:1051C0006219730984099509683C71058105910587
:1051D00008F000CF01CF0E947304C61AD70AE80A6C
:1051E000F90A88ECC816D104E104F10408F0F2CE03
:1051F000F3CE833009F06ACFC091CF052AE130E0C9
:105200000E944F2DA50194010E94302DC11109C0AB
:105210002F593F4F4F4F5F4F3093D1052093D0050B
:1052200055CFC13029F42F5B3F4F4F4F5F4FF4CF25
:10523000205E3F4F4F4F5F4FEFCF833009F057CF86
:105240006091D0058091CE0590E0FC01EE5EF94FB3
:1052500060832091D2053091D305820F931F0E9465
:10526000171180E00E942F1442CF8530910591F4F0
:105270008091D605823011F40E947D1E0E94881A0A
:10528000E091D80536E03E9FF0011124EB57FD4F29
:1052900080815BCF8631910589F58091D605833079
:1052A00009F05FCF8091CF0581111BC081E0809311
:1052B000CF0561E48091CE0590E0FC01EE5EF94FF0
:1052C00060832091D2053091D305820F931F0E94F5
:1052D000171180E00E942F1468EC70E080E090E0ED
:1052E0003ECF813021F41093CF0561E2E3CF60E23D
:1052F000823001F71092CF0561E6DCCF4091C60500
:105300005091C7056091C8057091C905C416D506AE
:10531000E606F70609F040C08091D605823029F5EF
:105320008091D2059091D305809781F480911106E8
:1053300090E09093B5058093B4058091B4050E94E8
:10534000221966E970E080E090E009CF2091D40551
:105350003091D505029FC001039F900D1124815FFC
:105360009C4FFC0187819085E4CF833051F7809179
:10537000CE0590E0FC01EE5EF94F20E22083209103
:10538000D2053091D30560E2820F931F0E9417115E
:1053900080E00E942F14D5CF4091C2055091C305E3
:1053A0006091C4057091C505C416D506E606F706DA
:1053B00099F50E94881A8091D605823089F40E945E
:1053C0007D1E0E94A3060E945E068091D605823053
:1053D000B9F41092CE058091DD050E94561709C0E0
:1053E000833039F48091CE05882359F3815080931E
:1053F000CE050E94701A68E770E080E090E0AFCEC2
:105400008330B9F70E94BB0681508093CE0580910E
:10541000DD050E942F14EDCF4091BE055091BF05D0
:105420006091C0057091C105C416D506E606F70661
:1054300021F50E94881A8091D605823081F40E945D
:105440007D1E0E948B060E945E068091D6058230EA
:1054500009F4BFCF833069F61092CE05D8CF8330E0
:1054600041F6C091CE050E94BB060197C8171906E8
:1054700044F7CF5FC093CE05BCCF4091BA055091A1
:10548000BB056091BC057091BD05C416D506E60646
:10549000F70609F047C00E94881A8091D60582302D
:1054A000F9F48091B4059091B5054091D4055091DF
:1054B000D505049F9001059F300D1124215F3C4FBD
:1054C000F90123813481281739072CF4019790932F
:1054D000B5058093B4058091B4050E9422191BC0C4
:1054E0008330C9F48091CE0590E0FC01EE5EF94F67
:1054F00060816150603208F440C06E3788F4608388
:105500002091D2053091D305820F931F0E9417116D
:1055100080E00E942F1468E270E080E090E01FCEEF
:1055200060E2EDCF4091B6055091B7056091B805A6
:105530007091B905C416D506E606F70601F50E9476
:10554000881A8091D605823051F48091B4059091EB
:10555000B50501969093B5058093B405BECF833011
:10556000D1F68091CE0590E0FC01EE5EF94F6081AE
:105570006F5F6E37A8F6603210F66DE7C0CF089700
:1055800009F0EFCD8091D605823011F40E947D1E86
:1055900081E080930E066091D80583E190E00E943F
:1055A00017116091B20584E190E00E94171180917B
:1055B000F705813039F4F3E0F093E5057092E405E6
:1055C0006092E3050E94130B809127070E94160446
:1055D00080910F06813061F40E94CB0B60E08091D6
:1055E0000C060E94B51664EF71E080E090E0B7CD44
:1055F0000E949815F8CF80910A06813009F04BC0BF
:105600000E947304C090F305D090F405E090F50576
:10561000F090F6056C157D058E059F05E1F06C197F
:105620007D098E099F09613375478105910598F0C1
:105630008091F1059091F20501969093F205809387
:10564000F1050E9473046093F3057093F405809351
:10565000F5059093F60588E090E00E94AD1190E08A
:10566000880F991F2091F1053091F205281739070D
:1056700094F00E94130B60E880E793E00E94D10F42
:1056800068EB7BE080E090E00E9441040E945916A4
:1056900081E080930E068091F9059091FA05913092
:1056A00079F1833039F480910F06813019F080E070
:1056B0000E947D128091EB05813009F068C00E9444
:1056C00073046B017C012090E7053090E805409061
:1056D000E9055090EA05C214D304E404F50409F482
:1056E00048C00E9473046219730984099509613DD9
:1056F00077408105910508F44AC00E94191147C0FE
:105700008430C1F6809128078130A1F28091F005A4
:10571000813081F60E9473046B017C012090EC05BE
:105720003090ED054090EE055090EF05C214D30483
:10573000E404F50481F00E9473046219730984097A
:105740009509613D77408105910508F4B3CF80E06C
:105750000E944D0EAFCF0E947304C61AD70AE80A02
:10576000F90A81EDC81687E0D806E104F10478F75C
:10577000A1CF0E947304C61AD70AE80AF90AF1ED0C
:10578000CF16F7E0DF06E104F10408F0B6CF809110
:10579000F805813009F056C080910606813009F085
:1057A00051C08091E5058150823008F04BC00E94C5
:1057B000E702EC018091E3059091E4059E01281B2E
:1057C000390BC90137FF03C0919581959109049761
:1057D000CCF150900C06C0900D06D12CF12CE12C90
:1057E0002091E10530E050E040E02C193D094E09E0
:1057F0005F092F5F3F4F4F4F5F4FDE010E94562DD5
:10580000A50194010E94302DC20ED31EE41EF51E88
:105810005C14C1F00E941A16C0920C065C1480F54C
:105820008091FA05813061F51092FA0561E08C2DC6
:105830000E94B51680910C068093E205D093E40592
:10584000C093E3058091F705813009F07CCB80910E
:105850000606882309F477CB8091E005882309F4B4
:1058600072CB8091E5058230C1F160F4813009F09E
:105870006ACB1093E50580910C068093E20563CB1B
:1058800060E0D5CF8330D9F1843009F05CCB0E9441
:105890001A1664E170E080E090E00E9441040E94EA
:1058A000E7022091E3053091E4058217930709F0A0
:1058B00086C02091DE053091DF052F5F3F4F30938A
:1058C000DF052093DE052530310514F01093E50542
:1058D0009093E4058093E30536CBC0910C0680914C
:1058E000E205C81749F033E03093E5050E94E7026E
:1058F0009093E4058093E305C093E20524CB0E94D6
:105900001A161092DF051092DE05C0900D06D12CFC
:10591000F12CE12C60910C0670E090E080E06C19B5
:105920007D098E099F092AE0660F771F881F991F3E
:105930002A95D1F72091E10530E050E040E02C19A4
:105940003D094E095F092F5F3F4F4F4F5F4F0E9448
:10595000302D6901E9010E94E702C81AD90AE8E07E
:10596000CE0ED11CF1E1CF16D10490F460E081E1BC
:105970000E945A0360E080E10E945A0324E02093D1
:10598000E50565E070E080E090E00E944104DBCA3C
:105990008C179D074CF460E081E10E945A0361E09E
:1059A00080E10E945A03CFCAC817D9070CF0CBCAAE
:1059B00060E080E10E945A0361E081E1F2CF109241
:1059C000DF051092DE0584CFFB01DC0105900D920E
:1059D0000020E1F70895FB01DC014150504048F000
:1059E00005900D920020C9F701C01D924150504012
:1059F000E0F70895F999FECF92BD81BDF89A9927F5
:105A000080B50895262FF999FECF1FBA92BD81BDAA
:105A100020BD0FB6F894FA9AF99A0FBE0196089530
:105A2000991B79E004C0991F961708F0961B881FF0
:105A30007A95C9F78095089597FB072E16F4009480
:105A400007D077FD09D00E945E2D07FC05D03EF4FB
:105A5000909581959F4F0895709561957F4F08951A
:105A6000052E97FB1EF400940E94472D57FD07D08A
:105A70000E94722D07FC03D04EF40C94472D5095D4
:105A80004095309521953F4F4F4F5F4F089590952A
:105A90008095709561957F4F8F4F9F4F08950E941D
:105AA0009A2DB7FF0895821B930B0895B7FF0C94AE
:105AB000A92D0E94A92D821B930B0895AA1BBB1B25
:105AC00051E107C0AA1FBB1FA617B70710F0A61BFE
:105AD000B70B881F991F5A95A9F780959095BC011F
